:100000000C942A000C9447000C9447000C94470071
:100010000C9447000C9447000C9447000C94470044
:100020000C9447000C9447000C9447000C94470034
:100030000C9447000C9447000C9447000C94470024
:100040000C94C7000C9447000C9447000C94470094
:100050000C94470011241FBECFE5D8E0DEBFCDBF12
:1000600010E0A0E6B0E0E6E1F1E102C005900D92FB
:10007000A039B107D9F710E0A0E9B0E001C01D92A6
:10008000A339B107E1F70E942A080C9489080C945F
:1000900000006D9ABD98BE9ABC98BF986C986E9AF5
:1000A0000895C4988FB9779BFECFC49A0895779B23
:1000B000FECF8FB108958FB9779BFECF8FB1089592
:1000C000899A8898529886E880BD87E689B9539ABC
:1000D000549A08958CB95E9BFECF08955F9BFECF26
:1000E0008CB108953F983E9A3D98309A319A329A51
:1000F000359A379A0895349BFECF24B135B1C901A2
:100100000895882321F43C983B983A9819C081308F
:1001100021F43C983B983A981AC0823031F43C98CC
:100120003B983A98399A389821C0833021F43C980A
:100130003B983A9819C0843029F43C983B983A9AF5
:100140003998F1CF853029F43C983B983A9A399800
:100150000CC0863021F43C983B983A9AE3CF873024
:1001600029F43C983B983A9A399A389A369A0895E5
:100170008FB780688FBF339A08958FB78F778FBFFF
:1001800033980895909392008093910008951F9260
:100190000F920FB60F9211242F933F934F935F93BB
:1001A0006F937F938F939F93AF93BF93EF93FF933F
:1001B000E0919100F09192000995FF91EF91BF912C
:1001C000AF919F918F917F916F915F914F913F91EF
:1001D0002F910F900FBE0F901F901895813029F12D
:1001E000813038F0823009F43CC0833009F06EC0B1
:1001F00053C0413059F42AB381E090E002C0880F27
:10020000991F6A95E2F7282B2ABB0895442309F029
:100210005DC02AB381E090E002C0880F991F6A9503
:10022000E2F7809582238ABB0895413059F427B3C1
:1002300081E090E002C0880F991F6A95E2F7282BB1
:1002400027BB0895442309F041C027B381E090E023
:1002500002C0880F991F6A95E2F78095822387BBB9
:100260000895413059F424B381E090E002C0880F32
:10027000991F6A95E2F7282B24BB0895442331F592
:1002800024B381E090E002C0880F991F6A95E2F7DD
:100290008095822384BB0895413059F421B381E0D5
:1002A00090E002C0880F991F6A95E2F7282B21BBC6
:1002B0000895442359F421B381E090E002C0880FEF
:1002C000991F6A95E2F78095822381BB089581305A
:1002D00029F1813038F0823009F43CC0833009F0D4
:1002E0006EC053C0413059F42BB381E090E002C09E
:1002F000880F991F6A95E2F7282B2BBB089544239A
:1003000009F05DC02BB381E090E002C0880F991F17
:100310006A95E2F7809582238BBB0895413059F4AA
:1003200028B381E090E002C0880F991F6A95E2F738
:10033000282B28BB0895442309F041C028B381E04D
:1003400090E002C0880F991F6A95E2F7809582239A
:1003500088BB0895413059F425B381E090E002C094
:10036000880F991F6A95E2F7282B25BB089544232F
:1003700031F525B381E090E002C0880F991F6A959E
:10038000E2F78095822385BB0895413059F422B36A
:1003900081E090E002C0880F991F6A95E2F7282B50
:1003A00022BB0895442359F422B381E090E002C0B7
:1003B000880F991F6A95E2F78095822382BB089582
:1003C000813049F0813028F0823039F0833041F4B7
:1003D00006C06ABB089567BB089564BB089561BBFE
:1003E0000895813049F0813028F0823039F083302F
:1003F00041F406C06BBB089568BB089565BB0895C2
:1004000062BB0895813049F0813028F0823039F0A4
:100410008330B1F40DC089B303C086B301C083B388
:1004200090E002C0959587956A95E2F781700895EE
:1004300080B390E002C0959587956A95E2F7817048
:1004400008950E9481000E947B00A0E0B0E0BC0102
:10045000CD0124E630E040E050E00E942D082FEF6F
:1004600033E040E050E00E944C08C90108950E942A
:10047000720008950E9481000E947B00A0E0B0E01D
:10048000BC01CD0124EF31E040E050E00E942D0896
:100490002FEF33E040E050E00E944C08822F089597
:1004A0000E94720008958F929F92AF92BF92DF9246
:1004B000EF92FF920F931F93CF93DF93182F062F86
:1004C000B42E40E050E06BE0220F331F441F551F55
:1004D0006A95D1F7CA01B90120EA35E040E050E061
:1004E0000E944C084901D02ED39432E0E32EE00E56
:1004F00023E0F22EF00E812F602F41E00E94EE00EB
:10050000812F6D2D41E00E94EE00812F6E2D41E084
:100510000E94EE00812F6F2D41E00E94EE00812F9E
:10052000602F41E00E946701812F6D2D41E00E9404
:100530006701812F6E2D41E00E946701812F6F2D91
:1005400041E00E946701BB2059F081E0B81609F034
:10055000D1C0C0E0D0E090E2A92E9EE4B92EC6C082
:10056000C0E0D0E080E2A82E8EE4B82E5DC0812FDE
:10057000602F40E00E946701812F6D2D41E00E94B5
:100580006701812F6E2D41E00E946701812F6F2D41
:1005900041E00E946701C5010197F1F7812F602FAB
:1005A00041E00E946701812F6D2D40E00E946701AC
:1005B000812F6E2D41E00E946701812F6F2D41E058
:1005C0000E946701C5010197F1F7812F602F41E07B
:1005D0000E946701812F6D2D41E00E946701812FEC
:1005E0006E2D40E00E946701812F6F2D41E00E9437
:1005F0006701C5010197F1F7812F602F41E00E944B
:100600006701812F6D2D41E00E946701812F6E2DC2
:1006100041E00E946701812F6F2D40E00E94670139
:10062000C5010197F1F72196C815D90508F49FCFA8
:1006300061C0812F602F41E00E946701812F6D2DE5
:1006400041E00E946701812F6E2D41E00E94670109
:10065000812F6F2D40E00E946701C5010197F1F7DE
:10066000812F602F41E00E946701812F6D2D41E0B5
:100670000E946701812F6E2D40E00E946701812F4B
:100680006F2D41E00E946701C5010197F1F7812FAD
:10069000602F41E00E946701812F6D2D40E00E9494
:1006A0006701812F6E2D41E00E946701812F6F2D20
:1006B00041E00E946701C5010197F1F7812F602F8A
:1006C00040E00E946701812F6D2D41E00E9467018B
:1006D000812F6E2D41E00E946701812F6F2D41E037
:1006E0000E946701C5010197F1F72196C815D90548
:1006F00008F49FCFDF91CF911F910F91FF90EF9062
:10070000DF90BF90AF909F908F900895DF92EF920F
:10071000FF920F931F93182FF62EE42ED22E41E056
:100720000E94EE008E2D6D2D41E00E94EE00002310
:1007300019F00130A1F409C0812F6F2D41E00E9412
:1007400067018E2D6D2D40E008C0812F6F2D40E098
:100750000E9467018E2D6D2D41E00E9467011F915F
:100760000F91FF90EF90DF900895AF92BF92DF92CC
:10077000EF92FF920F931F93CF93DF93DD2400E05E
:1007800010E038ECA32EB12C24E0E22EE00E80E045
:100790006E2D40E00E946701E801CC0FDD1FCC0FF9
:1007A000DD1FC158DF4F82E0F82E82E06F2D0E94DE
:1007B00002028823A1F480EB94E0F5013197F1F770
:1007C0000197D9F782E06F2D0E940202882339F445
:1007D00082E06F2D0E9402028823D1F3D880F39427
:1007E000219686E0F81609F780E06E2D41E00E9420
:1007F00067010F5F1F4F0430110531F68D2DDF911A
:10080000CF911F910F91FF90EF90DF90BF90AF902D
:10081000089580E064E041E00E94EE0080E065E041
:1008200041E00E94EE0080E066E041E00E94EE00C0
:1008300080E067E041E00E94EE0080E064E041E09B
:100840000E94670180E065E041E00E94670180E06E
:1008500066E041E00E94670180E067E041E00E94BD
:10086000670182E062E040E00E94EE0082E063E027
:1008700040E00E94EE0082E064E040E00E94EE0072
:1008800082E065E040E00E94EE000895EF92FF9262
:100890001F93182F83E066E041E00E946701412F1B
:1008A0004295417083E062E00E946701412F4295CA
:1008B0004695417083E063E00E946701412F4295B5
:1008C00046954695417083E064E00E946701412FA0
:1008D000441F4427441F83E065E00E94670183E0D2
:1008E00067E041E00E94670180EDE82E87E0F82E86
:1008F000C7010197F1F783E067E040E00E946701DC
:10090000412F417083E062E00E946701412F4695CC
:10091000417083E063E00E94670116951695412FB0
:10092000417083E064E00E9467011695117083E0D6
:1009300065E0412F0E94670183E067E041E00E948B
:100940006701C7010197F1F783E067E040E00E948B
:10095000670180E197E20197F1F71F91FF90EF9017
:100960000895AF92BF92DF92EF92FF920F931F9381
:10097000DF93CF93CDB7DEB72A970FB6F894DEBFDB
:100980000FBECDBF7B018C016115710581059105FD
:1009900021F480E30E94460445C016161706180687
:1009A00019060CF03FC0FE0131968AE0DF011D926E
:1009B0008A95E9F75F01DD24C801B7012AE030E03C
:1009C00040E050E00E946E08F50161935F01D3940E
:1009D000C801B7012AE030E040E050E00E946E0814
:1009E000C901DA017C018D01E114F1040105110551
:1009F00019F7DA948D2D992787FD9095D3948E0160
:100A00000F5F1F4F080F191F7801ED18F10807C07D
:100A1000D8018C91805D0E944604015010400E1553
:100A20001F05B1F72A960FB6F894DEBF0FBECDBFF3
:100A3000CF91DF911F910F91FF90EF90DF90BF90CA
:100A4000AF900895CF93DF93EC0103C00E9446045A
:100A5000219688818823D1F7DF91CF910895EF9275
:100A6000FF921F93182F83E066E040E00E94670129
:100A7000412F4295417083E062E00E946701412F5F
:100A800042954695417083E063E00E946701412FE3
:100A9000429546954695417083E064E00E94670167
:100AA000412F441F4427441F83E065E00E946701F3
:100AB00083E067E041E00E94670190EDE92E97E056
:100AC000F92EC7010197F1F783E067E040E00E944B
:100AD0006701412F417083E062E00E946701412F6E
:100AE0004695417083E063E00E9467011695169574
:100AF000412F417083E064E00E94670116951170F8
:100B000083E065E0412F0E94670183E067E041E0F8
:100B10000E946701C7010197F1F783E067E040E0B9
:100B20000E94670180E197E20197F1F71F91FF9022
:100B3000EF900895DF93CF9300D000D0CDB7DEB70C
:100B400090E8998390EC9A8390E99B8390ED9C8345
:100B5000FE01E80FF11D8181860F0E942F050F9085
:100B60000F900F900F90CF91DF910895EF92FF9229
:100B70001F93CF93DF937C01162F842F622F0E9447
:100B80009A05812F0E944604183098F4110F110F16
:100B9000110F812F80640E942F05C0E0D0E0F70183
:100BA000EC0FFD1F80810E9446042196C830D105BC
:100BB000B1F782E00E942F05DF91CF911F91FF9046
:100BC000EF90089581E00E942F05089583E067E08B
:100BD00041E00E94EE0083E066E041E00E94EE000A
:100BE00083E062E041E00E94EE0083E063E041E0E8
:100BF0000E94EE0083E064E041E00E94EE0083E0AA
:100C000065E041E00E94EE0088EE93E028EC30E0E1
:100C1000F9013197F1F70197D9F783E30E942F0586
:100C200082E30E942F0588E20E942F058CE00E943B
:100C30002F0582E00E942F0581E00E942F0586E0AB
:100C40000E942F0508950F931F93082F162F6FEF03
:100C50000E94E001143029F1153048F41130C1F040
:100C6000113098F01230B9F0133071F517C0173009
:100C700009F1183028F41530B9F0163029F517C0ED
:100C80001830D9F0193001F51BC0802F6FE31AC05E
:100C9000802F66E017C0802F6BE514C0802F6FE4B3
:100CA00011C0802F66E60EC0802F6DE60BC0802F2E
:100CB0006DE708C0802F67E005C0802F6FE702C096
:100CC000802F6FE60E94F1011F910F910895089502
:100CD0000E94020208950F931F93182F062F41E0E0
:100CE0000E94EE00812F602F40E00E9467011F915B
:100CF0000F9108950F931F93182F062F41E00E9424
:100D0000EE00812F602F41E00E9467011F910F913B
:100D100008951F93CF93DF930E94E6050E94490038
:100D2000C8ECD0E00E945700182F882389F080E09B
:100D300065E00E949A05612F70E080E090E00E94DB
:100D4000B10480E197E2FE013197F1F70197D9F7FD
:100D500080E065E00E949A0580E690E00E9422050E
:100D6000E1CFCF93DF930E9409040E944900C8ECB1
:100D7000D0E00E94B50380530E94510080E197E2C9
:100D8000FE013197F1F70197D9F7F3CF1F93CF9376
:100D9000DF930E94E6050E946000C8ECD0E00E944C
:100DA0006E00182F882389F080E065E00E949A0584
:100DB000612F70E080E090E00E94B10480E197E252
:100DC000FE013197F1F70197D9F780E065E00E94C5
:100DD0009A0584E690E00E942205E1CFCF93DF934D
:100DE0000E9409040E946000C8ECD0E00E94B50394
:100DF00080530E946A0080E197E2FE013197F1F78B
:100E00000197D9F7F3CF0E94E6050E94370281E0EF
:100E100061E00E949A0581E00E942102A0E0B0E01A
:100E2000BC01CD010E94B104F2CFCF93DF930E94A9
:100E3000E6050E945002C8E6D0E081E061E00E9431
:100E40009A0581E00E943A0290E0A0E0B0E0BC0187
:100E5000CD010E94B1048C2F0E944604EECF81E0A8
:100E600061E00E949A050E947B00A0E0B0E0BC0116
:100E7000CD010E94B10480E790E00E9446040895ED
:100E80000E94E6050E9472000E94B8008FE297E07F
:100E90000E94C20080E00E948100FCCF80E060E000
:100EA00040E028E631E00E94530280E395E728EC19
:100EB00030E0F9013197F1F70197D9F780E060E070
:100EC00041E02AE530E00E94530280E395E728ECF8
:100ED00030E0F9013197F1F70197D9F708950F93B1
:100EE00081E066E041E027E000E00E94860380E3C5
:100EF00095E728EC30E0F9013197F1F70197D9F740
:100F000081E066E041E027E001E00E94860380E3A3
:100F100095E728EC30E0F9013197F1F70197D9F71F
:100F20000F9108951F930E94E6050E9409040E94F4
:100F3000B503182F8823D9F381E061E00E949A0558
:100F4000612F70E060537040882777FD8095982F5F
:100F50000E94B104ECCFCF93DF930E94E605C8EC6A
:100F6000D0E081E061E00E949A0581E40E9446049D
:100F700080E197E2FE013197F1F70197D9F70E94DE
:100F8000E20581E061E00E949A0588E790E00E9416
:100F9000220580E197E2FE013197F1F70197D9F739
:100FA0000E94E20581E061E00E949A0567E370E03B
:100FB00080E090E00E94B10480E197E2FE01319769
:100FC000F1F70197D9F70E94E205CBCF609190002D
:100FD00080E090E070E00E942306209190002F5F57
:100FE0002093900080E197E248EC50E0FA013197BD
:100FF000F1F70197D9F72A3010F010929000089578
:1010000081E063E00E946806813021F464E00E9480
:101010007A06089581E064E00E946B06089581E0FD
:1010200064E00E947A0680E197E228EC30E0F90162
:101030003197F1F70197D9F781E064E00E946B06E0
:1010400080E197E228EC30E0F9013197F1F7019760
:10105000D9F708950E948906FFCF629FD001739F40
:10106000F001829FE00DF11D649FE00DF11D929F44
:10107000F00D839FF00D749FF00D659FF00D992783
:10108000729FB00DE11DF91F639FB00DE11DF91FA7
:10109000BD01CF0111240895A1E21A2EAA1BBB1B8A
:1010A000FD010DC0AA1FBB1FEE1FFF1FA217B30734
:1010B000E407F50720F0A21BB30BE40BF50B661F4A
:1010C000771F881F991F1A9469F76095709580950E
:1010D00090959B01AC01BD01CF01089597FB092EAE
:1010E00005260ED057FD04D0D7DF0AD0001C38F4F7
:1010F00050954095309521953F4F4F4F5F4F089544
:10110000F6F790958095709561957F4F8F4F9F4F23
:061110000895F894FFCFE2
:101116002020200020202000202020202020200029
:1011260020202020202020004748415249420037F5
:1011360038392F3435362A3132332D43303D2B00A2
:00000001FF
