:100000000C942A000C9447000C9447000C94470071
:100010000C9447000C9447000C9447000C94470044
:100020000C9447000C9447000C9447000C94470034
:100030000C9447000C9447000C9447000C94470024
:100040000C94D4000C9447000C9447000C94470087
:100050000C94470011241FBECFE5D8E0DEBFCDBF12
:1000600010E0A0E6B0E0E0E3F1E102C005900D92FF
:10007000A039B107D9F710E0A0E9B0E001C01D92A6
:10008000A339B107E1F70E9437080C9496080C9445
:1000900000006D9ABD9ABE98BC9ABF9A6C9A6A9AF3
:1000A000689A699A709880E29EE428EC30E0F90141
:1000B0003197F1F70197D9F76E9A0895C4988FB9DF
:1000C000779BFECFC49A0895779BFECF8FB108959A
:1000D0008FB9779BFECF8FB10895899A88985298EF
:1000E00086E880BD87E689B9539A549A08958CB9F9
:1000F0005E9BFECF08955F9BFECF8CB108953F9825
:100100003E9A3D98309A319A329A359A379A0895A4
:10011000349BFECF24B135B1C9010895882321F461
:100120003C983B983A9819C0813021F43C983B9810
:100130003A981AC0823031F43C983B983A98399AF0
:10014000389821C0833021F43C983B983A9819C0E4
:10015000843029F43C983B983A9A3998F1CF85300D
:1001600029F43C983B983A9A39980CC0863021F48F
:100170003C983B983A9AE3CF873029F43C983B98D7
:100180003A9A399A389A369A08958FB780688FBF0D
:10019000339A08958FB78F778FBF339808959093D0
:1001A00092008093910008951F920F920FB60F92C4
:1001B00011242F933F934F935F936F937F938F936C
:1001C0009F93AF93BF93EF93FF93E0919100F091D2
:1001D00092000995FF91EF91BF91AF919F918F91FF
:1001E0007F916F915F914F913F912F910F900FBE33
:1001F0000F901F901895813029F1813038F08230AE
:1002000009F43CC0833009F06EC053C0413059F44A
:100210002AB381E090E002C0880F991F6A95E2F747
:10022000282B2ABB0895442309F05DC02AB381E03E
:1002300090E002C0880F991F6A95E2F780958223AB
:100240008ABB0895413059F427B381E090E002C0A1
:10025000880F991F6A95E2F7282B27BB089544233E
:1002600009F041C027B381E090E002C0880F991FD8
:100270006A95E2F78095822387BB0895413059F44F
:1002800024B381E090E002C0880F991F6A95E2F7DD
:10029000282B24BB0895442331F524B381E090E05A
:1002A00002C0880F991F6A95E2F78095822384BB6C
:1002B0000895413059F421B381E090E002C0880FE5
:1002C000991F6A95E2F7282B21BB0895442359F41E
:1002D00021B381E090E002C0880F991F6A95E2F790
:1002E0008095822381BB0895813029F1813038F0D7
:1002F000823009F43CC0833009F06EC053C04130F5
:1003000059F42BB381E090E002C0880F991F6A95E1
:10031000E2F7282B2BBB0895442309F05DC02BB3D3
:1003200081E090E002C0880F991F6A95E2F78095FE
:1003300082238BBB0895413059F428B381E090E0CB
:1003400002C0880F991F6A95E2F7282B28BB0895F1
:10035000442309F041C028B381E090E002C0880F37
:10036000991F6A95E2F78095822388BB08954130F2
:1003700059F425B381E090E002C0880F991F6A9577
:10038000E2F7282B25BB0895442331F525B381E0FE
:1003900090E002C0880F991F6A95E2F7809582234A
:1003A00085BB0895413059F422B381E090E002C04A
:1003B000880F991F6A95E2F7282B22BB08954423E2
:1003C00059F422B381E090E002C0880F991F6A952A
:1003D000E2F78095822382BB0895813049F0813015
:1003E00028F0823039F0833041F406C06ABB0895AA
:1003F00067BB089564BB089561BB0895813049F0DF
:10040000813028F0823039F0833041F406C06BBB74
:10041000089568BB089565BB089562BB0895813057
:1004200049F0813028F0823039F08330B1F40DC0CA
:1004300089B303C086B301C083B390E002C0959531
:1004400087956A95E2F78170089580B390E002C0C5
:10045000959587956A95E2F7817008950E948E00C0
:100460000E948800A0E0B0E0BC01CD0124E630E0AD
:1004700040E050E00E943A082FEF33E040E050E0C7
:100480000E945908C90108950E947F0008950E94A2
:100490008E000E948800A0E0B0E0BC01CD0124EFF6
:1004A00031E040E050E00E943A082FEF33E040E0B6
:1004B00050E00E945908822F08950E947F000895FD
:1004C0008F929F92AF92BF92DF92EF92FF920F9323
:1004D0001F93CF93DF93182F062FB42E40E050E0E8
:1004E0006BE0220F331F441F551F6A95D1F7CA01D5
:1004F000B90120EA35E040E050E00E945908490186
:10050000D02ED39432E0E32EE00E23E0F22EF00E54
:10051000812F602F41E00E94FB00812F6D2D41E073
:100520000E94FB00812F6E2D41E00E94FB00812F75
:100530006F2D41E00E94FB00812F602F41E00E945F
:100540007401812F6D2D41E00E947401812F6E2D69
:1005500041E00E947401812F6F2D41E00E947401DF
:10056000BB2059F081E0B81609F0D1C0C0E0D0E05E
:1005700090E2A92E9EE4B92EC6C0C0E0D0E080E291
:10058000A82E8EE4B82E5DC0812F602F40E00E941F
:100590007401812F6D2D41E00E947401812F6E2D19
:1005A00041E00E947401812F6F2D41E00E9474018F
:1005B000C5010197F1F7812F602F41E00E9474017E
:1005C000812F6D2D40E00E947401812F6E2D41E03E
:1005D0000E947401812F6F2D41E00E947401C501BA
:1005E0000197F1F7812F602F41E00E947401812F64
:1005F0006D2D41E00E947401812F6E2D40E00E941C
:100600007401812F6F2D41E00E947401C501019793
:10061000F1F7812F602F41E00E947401812F6D2D31
:1006200041E00E947401812F6E2D41E00E9474010F
:10063000812F6F2D40E00E947401C5010197F1F7F1
:100640002196C815D90508F49FCF61C0812F602F6E
:1006500041E00E947401812F6D2D41E00E947401E0
:10066000812F6E2D41E00E947401812F6F2D40E09B
:100670000E947401C5010197F1F7812F602F41E0BD
:100680000E947401812F6D2D41E00E947401812F21
:100690006E2D40E00E947401812F6F2D41E00E9479
:1006A0007401C5010197F1F7812F602F41E00E948D
:1006B0007401812F6D2D40E00E947401812F6E2DF9
:1006C00041E00E947401812F6F2D41E00E9474016E
:1006D000C5010197F1F7812F602F40E00E9474015E
:1006E000812F6D2D41E00E947401812F6E2D41E01C
:1006F0000E947401812F6F2D41E00E947401C50199
:100700000197F1F72196C815D90508F49FCFDF911D
:10071000CF911F910F91FF90EF90DF90BF90AF901E
:100720009F908F900895DF92EF92FF920F931F9307
:10073000182FF62EE42ED22E41E00E94FB008E2DC3
:100740006D2D41E00E94FB00002319F00130A1F45F
:1007500009C0812F6F2D41E00E9474018E2D6D2DF7
:1007600040E008C0812F6F2D40E00E9474018E2D63
:100770006D2D41E00E9474011F910F91FF90EF9049
:10078000DF900895AF92BF92DF92EF92FF920F93A6
:100790001F93CF93DF93DD2400E010E038ECA32E0D
:1007A000B12C24E0E22EE00E80E06E2D40E00E94AD
:1007B0007401E801CC0FDD1FCC0FDD1FC158DF4FE6
:1007C00082E0F82E82E06F2D0E940F028823A1F4B0
:1007D00080EB94E0F5013197F1F70197D9F782E0CA
:1007E0006F2D0E940F02882339F482E06F2D0E9442
:1007F0000F028823D1F3D880F394219686E0F8166F
:1008000009F780E06E2D41E00E9474010F5F1F4FD9
:100810000430110531F68D2DDF91CF911F910F918D
:10082000FF90EF90DF90BF90AF90089580E064E07C
:1008300041E00E94FB0080E065E041E00E94FB0097
:1008400080E066E041E00E94FB0080E067E041E07C
:100850000E94FB0080E064E041E00E94740180E0BF
:1008600065E041E00E94740180E066E041E00E94A2
:10087000740180E067E041E00E94740182E062E080
:1008800040E00E94FB0082E063E040E00E94FB0049
:1008900082E064E040E00E94FB0082E065E040E02E
:1008A0000E94FB000895EF92FF921F93182F83E0A0
:1008B00066E041E00E947401412F4295417083E05F
:1008C00062E00E947401412F42954695417083E099
:1008D00063E00E947401412F429546954695417010
:1008E00083E064E00E947401412F441F4427441FA9
:1008F00083E065E00E94740183E067E041E00E94CC
:10090000740180EDE82E87E0F82EC7010197F1F71A
:1009100083E067E040E00E947401412F417083E072
:1009200062E00E947401412F4695417083E063E0CC
:100930000E94740116951695412F417083E064E082
:100940000E9474011695117083E065E0412F0E94AA
:10095000740183E067E041E00E947401C7010197E0
:10096000F1F783E067E040E00E94740180E197E2E4
:100970000197F1F71F91FF90EF900895AF92BF920A
:10098000DF92EF92FF920F931F93DF93CF93CDB738
:10099000DEB72A970FB6F894DEBF0FBECDBF7B013E
:1009A0008C01611571058105910521F480E30E9498
:1009B000530445C016161706180619060CF03FC05A
:1009C000FE0131968AE0DF011D928A95E9F75F0109
:1009D000DD24C801B7012AE030E040E050E00E9489
:1009E0007B08F50161935F01D394C801B7012AE048
:1009F00030E040E050E00E947B08C901DA017C0150
:100A00008D01E114F1040105110519F7DA948D2D1A
:100A1000992787FD9095D3948E010F5F1F4F080F84
:100A2000191F7801ED18F10807C0D8018C91805D7D
:100A30000E945304015010400E151F05B1F72A966D
:100A40000FB6F894DEBF0FBECDBFCF91DF911F91DF
:100A50000F91FF90EF90DF90BF90AF900895CF93EC
:100A6000DF93EC0103C00E94530421968881882300
:100A7000D1F7DF91CF910895EF92FF921F93182F36
:100A800083E066E040E00E947401412F429541708E
:100A900083E062E00E947401412F429546954170C7
:100AA00083E063E00E947401412F4295469546958C
:100AB000417083E064E00E947401412F441F442789
:100AC000441F83E065E00E94740183E067E041E039
:100AD0000E94740190EDE92E97E0F92EC70101976D
:100AE000F1F783E067E040E00E947401412F41701C
:100AF00083E062E00E947401412F4695417083E0DB
:100B000063E00E94740116951695412F417083E0B1
:100B100064E00E9474011695117083E065E0412F36
:100B20000E94740183E067E041E00E947401C70104
:100B30000197F1F783E067E040E00E94740180E1F3
:100B400097E20197F1F71F91FF90EF900895DF93DF
:100B5000CF9300D000D0CDB7DEB790E8998390EC6A
:100B60009A8390E99B8390ED9C83FE01E80FF11D31
:100B70008181860F0E943C050F900F900F900F907F
:100B8000CF91DF910895EF92FF921F93CF93DF9360
:100B90007C01162F842F622F0E94A705812F0E94AF
:100BA0005304183098F4110F110F110F812F806426
:100BB0000E943C05C0E0D0E0F701EC0FFD1F8081F2
:100BC0000E9453042196C830D105B1F782E00E94FB
:100BD0003C05DF91CF911F91FF90EF90089581E048
:100BE0000E943C05089583E067E041E00E94FB001D
:100BF00083E066E041E00E94FB0083E062E041E0C8
:100C00000E94FB0083E063E041E00E94FB0083E080
:100C100064E041E00E94FB0083E065E041E00E9467
:100C2000FB0088EE93E028EC30E0F9013197F1F712
:100C30000197D9F783E30E943C0582E30E943C05BB
:100C400088E20E943C058CE00E943C0582E00E9404
:100C50003C0581E00E943C0586E00E943C05089529
:100C60000F931F93082F162F6FEF0E94ED01143082
:100C700029F1153048F41130C1F0113098F01230DC
:100C8000B9F0133071F517C0173009F1183028F496
:100C90001530B9F0163029F517C01830D9F01930D1
:100CA00001F51BC0802F6FE31AC0802F66E017C0CC
:100CB000802F6BE514C0802F6FE411C0802F66E693
:100CC0000EC0802F6DE60BC0802F6DE708C0802F0F
:100CD00067E005C0802F6FE702C0802F6FE60E949B
:100CE000FE011F910F91089508950E940F0208952B
:100CF0000F931F93182F062F41E00E94FB00812FB6
:100D0000602F40E00E9474011F910F9108950F938E
:100D10001F93182F062F41E00E94FB00812F602FA8
:100D200041E00E9474011F910F9108951F93CF938A
:100D3000DF930E94F3050E944900C8ECD0E00E94B6
:100D40006400182F882389F080E065E00E94A705E1
:100D5000612F70E080E090E00E94BE0480E197E2A5
:100D6000FE013197F1F70197D9F780E065E00E9425
:100D7000A70580E690E00E942F05E1CFCF93DF9397
:100D80000E9416040E944900C8ECD0E00E94C203F1
:100D900080530E945E0080E197E2FE013197F1F7F7
:100DA0000197D9F7F3CF1F93CF93DF930E94F305F9
:100DB0000E946D00C8ECD0E00E947B00182F8823B1
:100DC00089F080E065E00E94A705612F70E080E077
:100DD00090E00E94BE0480E197E2FE013197F1F7B6
:100DE0000197D9F780E065E00E94A70584E690E0CE
:100DF0000E942F05E1CFCF93DF930E9416040E943B
:100E00006D00C8ECD0E00E94C20380530E947700BE
:100E100080E197E2FE013197F1F70197D9F7F3CF1F
:100E20000E94F3050E94440281E061E00E94A70550
:100E300081E00E942E02A0E0B0E0BC01CD010E9442
:100E4000BE04F2CFCF93DF930E94F3050E945D02B0
:100E5000C8E6D0E081E061E00E94A70581E00E9441
:100E6000470290E0A0E0B0E0BC01CD010E94BE04CA
:100E70008C2F0E945304EECF81E061E00E94A70511
:100E80000E948800A0E0B0E0BC01CD010E94BE0439
:100E900080E790E00E94530408950E94F3050E94A9
:100EA0007F000E94C5008CE397E00E94CF0080E0A5
:100EB0000E948E00FCCF80E060E040E028E631E058
:100EC0000E94600280E395E728EC30E0F901319759
:100ED000F1F70197D9F780E060E041E02AE530E0E2
:100EE0000E94600280E395E728EC30E0F901319739
:100EF000F1F70197D9F708950F9381E066E041E09B
:100F000027E000E00E94930380E395E728EC30E0BF
:100F1000F9013197F1F70197D9F781E066E041E0F7
:100F200027E001E00E94930380E395E728EC30E09E
:100F3000F9013197F1F70197D9F70F9108951F93B0
:100F40000E94F3050E9416040E94C203182F8823F2
:100F5000D9F381E061E00E94A705612F70E0605342
:100F60007040882777FD8095982F0E94BE04ECCFB3
:100F7000CF93DF930E94F305C8ECD0E081E061E0FD
:100F80000E94A70581E40E94530480E197E2FE01DC
:100F90003197F1F70197D9F70E94EF0581E061E001
:100FA0000E94A70588E790E00E942F0580E197E264
:100FB000FE013197F1F70197D9F70E94EF0581E023
:100FC00061E00E94A70567E370E080E090E00E9486
:100FD000BE0480E197E2FE013197F1F70197D9F75E
:100FE0000E94EF05CBCF6091900080E090E070E030
:100FF0000E943006209190002F5F2093900080E1A6
:1010000097E248EC50E0FA013197F1F70197D9F7F0
:101010002A3010F010929000089581E063E00E9461
:101020007506813021F464E00E948706089581E00E
:1010300064E00E947806089581E064E00E948706DB
:1010400080E197E228EC30E0F9013197F1F7019760
:10105000D9F781E064E00E94780680E197E228EC0D
:1010600030E0F9013197F1F70197D9F708950E941F
:101070009606FFCF629FD001739FF001829FE00D23
:10108000F11D649FE00DF11D929FF00D839FF00D07
:10109000749FF00D659FF00D9927729FB00DE11DB3
:1010A000F91F639FB00DE11DF91FBD01CF01112490
:1010B0000895A1E21A2EAA1BBB1BFD010DC0AA1F99
:1010C000BB1FEE1FFF1FA217B307E407F50720F0B1
:1010D000A21BB30BE40BF50B661F771F881F991F2C
:1010E0001A9469F760957095809590959B01AC0175
:1010F000BD01CF01089597FB092E05260ED057FD9F
:1011000004D0D7DF0AD0001C38F4509540953095B4
:1011100021953F4F4F4F5F4F0895F6F7909580957B
:10112000709561957F4F8F4F9F4F0895F894FFCF33
:10113000202020002020200020202020202020000F
:1011400020202020202020004748415249420037DB
:1011500038392F3435362A3132332D43303D2B0088
:00000001FF
