:100000000C942A000C9447000C9447000C94470071
:100010000C9447000C9447000C9447000C94470044
:100020000C9447000C9447000C9447000C94470034
:100030000C9447000C9447000C9447000C94470024
:100040000C94B0000C9447000C9447000C944700AB
:100050000C94470011241FBECFE5D8E0DEBFCDBF12
:1000600010E0A0E6B0E0E8E5F0E102C005900D92F6
:10007000A838B107D9F710E0A8E8B0E001C01D9298
:10008000AB38B107E1F70E94CB070C942A080C9417
:100090000000899A8898529886E880BD87E689B9D9
:1000A000539A549A08958CB95E9BFECF08955F9B36
:1000B000FECF8CB108953F983E9A3D98309A319A80
:1000C000329A359A379A0895349BFECF24B135B1D0
:1000D000C9010895882321F43C983B983A9819C0A7
:1000E000813021F43C983B983A981AC0823031F420
:1000F0003C983B983A98399A389821C0833021F43B
:100100003C983B983A9819C0843029F43C983B9825
:100110003A9A3998F1CF853029F43C983B983A9A2D
:1001200039980CC0863021F43C983B983A9AE3CF3A
:10013000873029F43C983B983A9A399A389A369AFB
:1001400008958FB780688FBF339A08958FB78F77E0
:100150008FBF3398089590938A0080938900089503
:100160001F920F920FB60F9211242F933F934F932C
:100170005F936F937F938F939F93AF93BF93EF930F
:10018000FF93E0918900F0918A000995FF91EF912A
:10019000BF91AF919F918F917F916F915F914F919F
:1001A0003F912F910F900FBE0F901F9018958130A7
:1001B00029F1813038F0823009F43CC0833009F0F5
:1001C0006EC053C0413059F42AB381E090E002C0C0
:1001D000880F991F6A95E2F7282B2ABB08954423BC
:1001E00009F05DC02AB381E090E002C0880F991F3A
:1001F0006A95E2F7809582238ABB0895413059F4CD
:1002000027B381E090E002C0880F991F6A95E2F75A
:10021000282B27BB0895442309F041C027B381E070
:1002200090E002C0880F991F6A95E2F780958223BB
:1002300087BB0895413059F424B381E090E002C0B7
:10024000880F991F6A95E2F7282B24BB0895442351
:1002500031F524B381E090E002C0880F991F6A95C0
:10026000E2F78095822384BB0895413059F421B38D
:1002700081E090E002C0880F991F6A95E2F7282B71
:1002800021BB0895442359F421B381E090E002C0DA
:10029000880F991F6A95E2F78095822381BB0895A4
:1002A000813029F1813038F0823009F43CC083304C
:1002B00009F06EC053C0413059F42BB381E090E097
:1002C00002C0880F991F6A95E2F7282B2BBB08956F
:1002D000442309F05DC02BB381E090E002C0880F99
:1002E000991F6A95E2F7809582238BBB0895413070
:1002F00059F428B381E090E002C0880F991F6A95F5
:10030000E2F7282B28BB0895442309F041C028B305
:1003100081E090E002C0880F991F6A95E2F780950E
:10032000822388BB0895413059F425B381E090E0E1
:1003300002C0880F991F6A95E2F7282B25BB089504
:10034000442331F525B381E090E002C0880F991F66
:100350006A95E2F78095822385BB0895413059F470
:1003600022B381E090E002C0880F991F6A95E2F7FE
:10037000282B22BB0895442359F422B381E090E056
:1003800002C0880F991F6A95E2F78095822382BB8D
:100390000895813049F0813028F0823039F083307F
:1003A00041F406C06ABB089567BB089564BB089515
:1003B00061BB0895813049F0813028F0823039F0F6
:1003C000833041F406C06BBB089568BB089565BBDC
:1003D000089562BB0895813049F0813028F0823061
:1003E00039F08330B1F40DC089B303C086B301C0C6
:1003F00083B390E002C0959587956A95E2F7817086
:10040000089580B390E002C0959587956A95E2F7CC
:10041000817008950E946A000E946400A0E0B0E02C
:10042000BC01CD0124E630E040E050E00E94CE0760
:100430002FEF33E040E050E00E94ED07C90108953E
:100440000E945B0008950E946A000E946400A0E080
:10045000B0E0BC01CD0124EF31E040E050E00E946B
:10046000CE072FEF33E040E050E00E94ED07822FEF
:1004700008950E945B0008958F929F92AF92BF9261
:10048000DF92EF92FF920F931F93CF93DF93182F7A
:10049000062FB42E40E050E06BE0220F331F441FC4
:1004A000551F6A95D1F7CA01B90120EA35E040E04D
:1004B00050E00E94ED074901D02ED39432E0E32EA4
:1004C000E00E23E0F22EF00E812F602F41E00E941B
:1004D000D700812F6D2D41E00E94D700812F6E2D16
:1004E00041E00E94D700812F6F2D41E00E94D7008C
:1004F000812F602F41E00E945001812F6D2D41E03E
:100500000E945001812F6E2D41E00E945001812FE9
:100510006F2D41E00E945001BB2059F081E0B816D8
:1005200009F0D1C0C0E0D0E090E2A92E9EE4B92E3F
:10053000C6C0C0E0D0E080E2A82E8EE4B82E5DC038
:10054000812F602F40E00E945001812F6D2D41E0EE
:100550000E945001812F6E2D41E00E945001812F99
:100560006F2D41E00E945001C5010197F1F7812FE5
:10057000602F41E00E945001812F6D2D40E00E94CC
:100580005001812F6E2D41E00E945001812F6F2D6F
:1005900041E00E945001C5010197F1F7812F602FC2
:1005A00041E00E945001812F6D2D41E00E945001D9
:1005B000812F6E2D40E00E945001812F6F2D41E070
:1005C0000E945001C5010197F1F7812F602F41E092
:1005D0000E945001812F6D2D41E00E945001812F1A
:1005E0006E2D41E00E945001812F6F2D40E00E944E
:1005F0005001C5010197F1F72196C815D90508F4F6
:100600009FCF61C0812F602F41E00E945001812F58
:100610006D2D41E00E945001812F6E2D41E00E941E
:100620005001812F6F2D40E00E945001C5010197BC
:10063000F1F7812F602F41E00E945001812F6D2D35
:1006400041E00E945001812F6E2D40E00E94500138
:10065000812F6F2D41E00E945001C5010197F1F7F4
:10066000812F602F41E00E945001812F6D2D40E0CD
:100670000E945001812F6E2D41E00E945001812F78
:100680006F2D41E00E945001C5010197F1F7812FC4
:10069000602F40E00E945001812F6D2D41E00E94AB
:1006A0005001812F6E2D41E00E945001812F6F2D4E
:1006B00041E00E945001C5010197F1F72196C8154C
:1006C000D90508F49FCFDF91CF911F910F91FF9033
:1006D000EF90DF90BF90AF909F908F900895DF9242
:1006E000EF92FF920F931F93182FF62EE42ED22E27
:1006F00041E00E94D7008E2D6D2D41E00E94D70071
:10070000002319F00130A1F409C0812F6F2D41E0C1
:100710000E9450018E2D6D2D40E008C0812F6F2D5D
:1007200040E00E9450018E2D6D2D41E00E9450014D
:100730001F910F91FF90EF90DF900895AF92BF92BD
:10074000DF92EF92FF920F931F93CF93DF93DD24FD
:1007500000E010E038ECA32EB12C24E0E22EE00EF5
:1007600080E06E2D40E00E945001E801CC0FDD1FBB
:10077000CC0FDD1FC958DF4F82E0F82E82E06F2DCD
:100780000E94EB018823A1F480EB94E0F5013197FE
:10079000F1F70197D9F782E06F2D0E94EB018823D2
:1007A00039F482E06F2D0E94EB018823D1F3D880C9
:1007B000F394219686E0F81609F780E06E2D41E06B
:1007C0000E9450010F5F1F4F0430110531F68D2D2F
:1007D000DF91CF911F910F91FF90EF90DF90BF902D
:1007E000AF90089580E064E041E00E94D70080E08F
:1007F00065E041E00E94D70080E066E041E00E94B1
:10080000D70080E067E041E00E94D70080E064E02C
:1008100041E00E94500180E065E041E00E9450010B
:1008200080E066E041E00E94500180E067E041E046
:100830000E94500182E062E040E00E94D70082E026
:1008400063E040E00E94D70082E064E040E00E9464
:10085000D70082E065E040E00E94D7000895EF9263
:10086000FF921F93182F83E066E041E00E94500141
:10087000412F4295417083E062E00E945001412F78
:1008800042954695417083E063E00E945001412FFC
:10089000429546954695417083E064E00E94500180
:1008A000412F441F4427441F83E065E00E9450010C
:1008B00083E067E041E00E94500180EDE82E87E090
:1008C000F82EC7010197F1F783E067E040E00E944E
:1008D0005001412F417083E062E00E945001412F9E
:1008E0004695417083E063E00E945001169516958D
:1008F000412F417083E064E00E9450011695117011
:1009000083E065E0412F0E94500183E067E041E011
:100910000E945001C7010197F1F783E067E040E0D2
:100920000E94500180E197E20197F1F71F91FF903B
:10093000EF900895AF92BF92DF92EF92FF920F93E4
:100940001F93DF93CF93CDB7DEB72A970FB6F894F6
:10095000DEBF0FBECDBF7B018C0161157105810526
:10096000910521F480E30E942F0445C01616170656
:10097000180619060CF03FC0FE0131968AE0DF012F
:100980001D928A95E9F75F01DD24C801B7012AE0CD
:1009900030E040E050E00E940F08F50161935F01F4
:1009A000D394C801B7012AE030E040E050E00E9453
:1009B0000F08C901DA017C018D01E114F104010580
:1009C000110519F7DA948D2D992787FD9095D39409
:1009D0008E010F5F1F4F080F191F7801ED18F108E6
:1009E00007C0D8018C91805D0E942F0401501040F7
:1009F0000E151F05B1F72A960FB6F894DEBF0FBE8D
:100A0000CDBFCF91DF911F910F91FF90EF90DF90BD
:100A1000BF90AF900895CF93DF93EC0103C00E9485
:100A20002F04219688818823D1F7DF91CF910895F3
:100A3000EF92FF921F93182F83E066E040E00E9440
:100A40005001412F4295417083E062E00E945001C5
:100A5000412F42954695417083E063E00E9450012A
:100A6000412F429546954695417083E064E00E948F
:100A70005001412F441F4427441F83E065E00E943A
:100A8000500183E067E041E00E94500190EDE92EC3
:100A900097E0F92EC7010197F1F783E067E040E0A6
:100AA0000E945001412F417083E062E00E9450019A
:100AB000412F4695417083E063E00E9450011695F6
:100AC0001695412F417083E064E00E945001169515
:100AD000117083E065E0412F0E94500183E067E0E0
:100AE00041E00E945001C7010197F1F783E067E000
:100AF00040E00E94500180E197E20197F1F71F91D9
:100B0000FF90EF900895DF93CF9300D000D0CDB742
:100B1000DEB790E8998390EC9A8390E99B8390EDFF
:100B20009C83FE01E80FF11D8181860F0E9418054C
:100B30000F900F900F900F90CF91DF910895EF924B
:100B4000FF921F93CF93DF937C01162F842F622F88
:100B50000E948305812F0E942F04183098F4110FF2
:100B6000110F110F812F80640E941805C0E0D0E0A2
:100B7000F701EC0FFD1F80810E942F042196C830E1
:100B8000D105B1F782E00E941805DF91CF911F9146
:100B9000FF90EF90089581E00E941805089583E08A
:100BA00067E041E00E94D70083E066E041E00E94F8
:100BB000D70083E062E041E00E94D70083E063E079
:100BC00041E00E94D70083E064E041E00E94D7004A
:100BD00083E065E041E00E94D70088EE93E028ECD6
:100BE00030E0F9013197F1F70197D9F783E30E94DB
:100BF000180582E30E94180588E20E9418058CE01F
:100C00000E94180582E00E94180581E00E941805E4
:100C100086E00E94180508950F931F93082F162F42
:100C20006FEF0E94C901143029F1153048F41130DA
:100C3000C1F0113098F01230B9F0133071F517C0CF
:100C4000173009F1183028F41530B9F0163029F5AD
:100C500017C01830D9F0193001F51BC0802F6FE391
:100C60001AC0802F66E017C0802F6BE514C0802F5C
:100C70006FE411C0802F66E60EC0802F6DE60BC0BA
:100C8000802F6DE708C0802F67E005C0802F6FE7D9
:100C900002C0802F6FE60E94DA011F910F91089524
:100CA00008950E94EB0108950F931F93182F062FAC
:100CB00041E00E94D700812F602F40E00E94500148
:100CC0001F910F9108950F931F93182F062F41E046
:100CD0000E94D700812F602F41E00E9450011F9198
:100CE0000F910895CF93DF930E94CF050E94490092
:100CF000C8ECD0E080E065E00E9483050E945700C8
:100D000090E0A0E0B0E0BC01CD010E949A0480E137
:100D100097E2FE013197F1F70197D9F7EBCFCF9327
:100D2000DF930E94F2030E944900C8ECD0E00E94C9
:100D30009E0380530E94530080E197E2FE013197A9
:100D4000F1F70197D9F7F3CF0E94CF050E94200257
:100D500081E061E00E94830581E00E940A02A0E038
:100D6000B0E0BC01CD010E949A04F2CFCF93DF9393
:100D70000E94CF050E943902C0E6D0E081E061E028
:100D80000E94830581E00E94230290E0A0E0B0E091
:100D9000BC01CD010E949A048C2F0E942F04EECF3B
:100DA00081E061E00E9483050E946400A0E0B0E061
:100DB000BC01CD010E949A0488E690E00E942F04B5
:100DC00008950E94CF050E945B000E94A10080ED63
:100DD00096E00E94AB0080E00E946A00FCCF80E0B9
:100DE00060E040E028E631E00E943C0280E395E7C5
:100DF00028EC30E0F9013197F1F70197D9F780E05D
:100E000060E041E02AE530E00E943C0280E395E7A3
:100E100028EC30E0F9013197F1F70197D9F70895FF
:100E20000F9381E066E041E027E000E00E946F035D
:100E300080E395E728EC30E0F9013197F1F701976D
:100E4000D9F781E066E041E027E001E00E946F030E
:100E500080E395E728EC30E0F9013197F1F701974D
:100E6000D9F70F9108951F930E94CF050E94F203B6
:100E70000E949E03182F8823D9F381E061E00E942D
:100E80008305612F70E060537040882777FD80955F
:100E9000982F0E949A04ECCFCF93DF930E94CF0546
:100EA000C8ECD0E081E061E00E94830581E40E940B
:100EB0002F0480E197E2FE013197F1F70197D9F70E
:100EC0000E94CB0581E061E00E94830580E790E00D
:100ED0000E940B0580E197E2FE013197F1F701973F
:100EE000D9F70E94CB0581E061E00E94830567E3AA
:100EF00070E080E090E00E949A0480E197E2FE01B9
:100F00003197F1F70197D9F70E94CB05CBCF6091CC
:100F1000880080E090E070E00E940C06209188003C
:100F20002F5F2093880080E197E248EC50E0FA01BF
:100F30003197F1F70197D9F72A3010F01092880015
:100F4000089581E063E00E945106813021F464E05D
:100F50000E946306089581E064E00E9454060895AB
:100F600081E064E00E94630680E197E228EC30E0D3
:100F7000F9013197F1F70197D9F781E064E00E9418
:100F8000540680E197E228EC30E0F9013197F1F75F
:100F90000197D9F708950E948F06FFCF629FD00175
:100FA000739FF001829FE00DF11D649FE00DF11D24
:100FB000929FF00D839FF00D749FF00D659FF00DD3
:100FC0009927729FB00DE11DF91F639FB00DE11DC0
:100FD000F91FBD01CF0111240895A1E21A2EAA1B09
:100FE000BB1BFD010DC0AA1FBB1FEE1FFF1FA217D9
:100FF000B307E407F50720F0A21BB30BE40BF50BD6
:10100000661F771F881F991F1A9469F7609570955E
:10101000809590959B01AC01BD01CF01089597FB90
:10102000092E05260ED057FD04D0D7DF0AD0001CAC
:1010300038F450954095309521953F4F4F4F5F4F75
:101040000895F6F790958095709561957F4F8F4F35
:081050009F4F0895F894FFCFB3
:1010580020202020202020002020202020202000C8
:10106800474841524942003738392F3435362A31FA
:0810780032332D43303D2B0003
:00000001FF
