:100000000C942A000C946A0C0C94A90C0C94E80C27
:100010000C9447000C9447000C9457090C948409E5
:100020000C94B1090C94DE090C940B0A0C94380A58
:100030000C9447000C9447000C9447000C94470024
:100040000C94CD110C9447000C9447000C9447007D
:100050000C94470011241FBECFE5D8E0DEBFCDBF12
:1000600010E0A0E6B0E0E4E5F3E402C005900D92F4
:10007000A837B107D9F710E0A8E7B0E001C01D929A
:10008000AC38B107E1F70E9410210C94A8210C9420
:100090000000EF92FF920F931F937B018C0120E0F1
:1000A00030E040E05FE40E94490388238CF0C801FF
:1000B000B70120E030E040E05FE40E94C1010E940F
:1000C000A9039B01AC01205030404040504806C07D
:1000D000C801B7010E94A9039B01AC01B901CA0183
:1000E0001F910F91FF90EF900895A0E0B0E0EBE733
:1000F000F0E00C947121DC012B01FA019C9192300B
:1001000008F439C1EB018881823008F433C194309E
:1001100069F4843009F02FC111969C91119789815F
:10012000981709F428C1A0E6B0E025C1843009F48D
:1001300021C18230A9F4923009F01DC19A01AD01AC
:1001400088E0EA010990AE01E90109929E0181501F
:10015000C1F7E201898111969C918923818308C1AD
:10016000923009F407C112962D903C901397EB0141
:100170008A819B811496AD90BD90CD90DC901797AD
:10018000EC80FD800E811F819101281B390BB90184
:1001900037FF04C066277727621B730B6032710537
:1001A0000CF061C0121613066CF537014801062EDB
:1001B00004C096948794779467940A94D2F721E0C8
:1001C00030E040E050E004C0220F331F441F551FB1
:1001D0006A95D2F721503040404050402E213F21B7
:1001E00040235123211531054105510521F021E01E
:1001F00030E040E050E079018A01E628F72808293C
:1002000019293CC0232BD1F1260E371E350146019A
:10021000062E04C096948794779467940A94D2F734
:1002200021E030E040E050E004C0220F331F441FC3
:10023000551F6A95D2F721503040404050402A2146
:100240003B214C215D21211531054105510521F04E
:1002500021E030E040E050E059016A01A628B728CB
:10026000C828D9280BC0821593052CF01C01AA249C
:10027000BB24650103C0EE24FF24870111969C91E5
:10028000D20111968C91981709F445C0992339F041
:10029000A80197012A193B094C095D0906C0A6016E
:1002A00095012E193F09400B510B57FD08C01182D3
:1002B0003382228224833583468357831DC081E0A5
:1002C00081833382228288279927DC01821B930B4A
:1002D000A40BB50B84839583A683B7830DC0220F2F
:1002E000331F441F551F24833583468357838281E0
:1002F000938101979383828324813581468157813D
:10030000DA01C9010197A109B1098F5F9F4FAF4F72
:10031000BF4328F30BC0918333822282EA0CFB1C7B
:100320000C1D1D1DE482F5820683178383E0808304
:10033000248135814681578157FF1AC0C901AA27F8
:1003400097FDA095BA2F81709070A070B0705695EF
:10035000479537952795822B932BA42BB52B848318
:100360009583A683B7838281938101969383828349
:10037000DF0101C0D201CD01CDB7DEB7E2E10C94BF
:100380008D21A0E2B0E0E7ECF1E00C947D216983DF
:100390007A838B839C832D833E834F835887E9E048
:1003A000EE2EF12CEC0EFD1ECE010196B7010E943F
:1003B000D2048E010F5E1F4FCE010596B8010E9438
:1003C000D2048A8991E089278A8BC701B801AE01DE
:1003D000475E5F4F0E9475000E94FD03A096E6E015
:1003E0000C949921A0E2B0E0E8EFF1E00C947D21BB
:1003F00069837A838B839C832D833E834F835887C5
:10040000F9E0EF2EF12CEC0EFD1ECE010196B701A6
:100410000E94D2048E010F5E1F4FCE010596B801D7
:100420000E94D204C701B801AE01475E5F4F0E942F
:1004300075000E94FD03A096E6E00C949921A0E2CD
:10044000B0E0E5E2F2E00C94712169837A838B835A
:100450009C832D833E834F835887CE010196BE0136
:10046000675F7F4F0E94D204CE010596BE016F5E8A
:100470007F4F0E94D2049985923088F0898982301A
:10048000C8F0943019F4823051F404C0843029F457
:10049000923081F480E690E0C6C0923049F420E0CA
:1004A0009A858A89981321E02A87CE010996BBC0D4
:1004B000823049F420E09A858A89981321E02A8BBA
:1004C000CE014196B0C02D843E844F8458886D88FB
:1004D0007E888F88988CEE24FF248701AA24BB2471
:1004E000650140E050E060E070E0E0E0F0E0C10174
:1004F00081709070892BE9F0E60CF71C081D191D1E
:100500009A01AB012A0D3B1D4C1D5D1D80E090E062
:10051000A0E0B0E0E614F7040805190520F481E036
:1005200090E0A0E0B0E0BA01A901480F591F6A1F8E
:100530007B1FAA0CBB1CCC1CDD1C97FE08C081E0F5
:1005400090E0A0E0B0E0A82AB92ACA2ADB2A3196B6
:10055000E032F10549F0660C771C881C991C569412
:10056000479437942794C3CFFA85EA892B893C892D
:100570008B859C85280F391F2E5F3F4F17C0CA01FE
:1005800081709070892B61F016950795F794E79428
:1005900080E090E0A0E0B0E8E82AF92A0A2B1B2BC3
:1005A00076956795579547952F5F3F4F77FDE7CF36
:1005B0000CC0440F551F661F771F17FD4160EE0CDE
:1005C000FF1C001F111F21503040403090E05907A0
:1005D00090E0690790E4790760F32B8F3C8FDB0193
:1005E000CA018F779070A070B07080349105A1051A
:1005F000B10561F447FD0AC0E114F10401051105DC
:1006000029F0405C5F4F6F4F7F4F40781A8EFE1786
:1006100011F081E08A8F4D8F5E8F6F8F78A383E01A
:10062000898FCE0149960E94FD03A096E2E10C94C9
:100630008D21A8E1B0E0EFE1F3E00C947D21698326
:100640007A838B839C832D833E834F83588789E0F5
:10065000E82EF12CEC0EFD1ECE010196B7010E9492
:10066000D2048E010F5E1F4FCE010596B8010E9485
:10067000D2048985823040F08989823028F0C70110
:10068000B8010E944A0501C08FEF6896E6E00C941D
:100690009921A8E1B0E0EFE4F3E00C947D216983B7
:1006A0007A838B839C832D833E834F83588789E095
:1006B000E82EF12CEC0EFD1ECE010196B7010E9432
:1006C000D2048E010F5E1F4FCE010596B8010E9425
:1006D000D2048985823040F08989823028F0C701B0
:1006E000B8010E944A0501C08FEF6896E6E00C94BD
:1006F0009921A8E1B0E0EFE7F3E00C947D21698354
:100700007A838B839C832D833E834F83588789E034
:10071000E82EF12CEC0EFD1ECE010196B7010E94D1
:10072000D2048E010F5E1F4FCE010596B8010E94C4
:10073000D2048985823040F08989823028F0C7014F
:10074000B8010E944A0501C081E06896E6E00C9479
:100750009921ACE0B0E0EFEAF3E00C9481216983E9
:100760007A838B839C83CE010196BE016B5F7F4FA2
:100770000E94D2048D81823061F1823050F1843048
:1007800021F48E81882351F12EC02F81388537FDC9
:1007900020C06E812F3131051CF06623F9F023C093
:1007A0008EE190E0821B930B29853A854B855C8511
:1007B00004C056954795379527958A95D2F76623B5
:1007C000B1F050954095309521953F4F4F4F5F4F79
:1007D0000EC020E030E040E050E009C02FEF3FEFD6
:1007E0004FEF5FE704C020E030E040E050E8B9019F
:1007F000CA012C96E2E00C949D21DF92EF92FF92C9
:100800000F931F93FC01E480F58006811781D1804E
:100810008081823048F480E090E0A0E1B0E0E82AF6
:10082000F92A0A2B1B2BA5C0843009F49FC0823003
:1008300021F4EE24FF24870105C0E114F104010531
:10084000110519F4E0E0F0E096C0628173819FEF3A
:10085000623879070CF05BC022E83FEF261B370BAC
:100860002A3131052CF020E030E040E050E02AC091
:10087000B801A701022E04C0769567955795479554
:100880000A94D2F781E090E0A0E0B0E004C0880FC5
:10089000991FAA1FBB1F2A95D2F70197A109B10979
:1008A0008E219F21A023B1230097A105B10521F03E
:1008B00081E090E0A0E0B0E09A01AB01282B392B59
:1008C0004A2B5B2BDA01C9018F779070A070B07052
:1008D00080349105A105B10539F427FF09C0205CDA
:1008E0003F4F4F4F5F4F04C0215C3F4F4F4F5F4F13
:1008F000E0E0F0E02030A0E03A07A0E04A07A0E402
:100900005A0710F0E1E0F0E079018A0127C0603871
:10091000710564F5FB01E158FF4FD801C7018F77DE
:100920009070A070B07080349105A105B10539F4C4
:10093000E7FE0DC080E490E0A0E0B0E004C08FE3EB
:1009400090E0A0E0B0E0E80EF91E0A1F1B1F17FFA1
:1009500005C016950795F794E794319687E01695AC
:100960000795F794E7948A95D1F705C0EE24FF2404
:100970008701EFEFF0E06E2F679566276795902F60
:100980009F77D794DD24D7948E2F8695492F462BB9
:10099000582F5D29B701CA011F910F91FF90EF9069
:1009A000DF900895FC01DB01408151812281622F9B
:1009B0006F7770E0221F2227221F9381892F880FD3
:1009C000822B282F30E0991F9927991F11969C930D
:1009D000119721153105A9F54115510561057105DD
:1009E00011F482E037C082E89FEF13969C938E93B8
:1009F00012979A01AB0167E0220F331F441F551F66
:100A00006A95D1F783E08C930DC0220F331F441FEA
:100A1000551F12968D919C911397019713969C9355
:100A20008E931297203080E0380780E0480780E4FA
:100A3000580758F314962D933D934D935C93179755
:100A400008952F3F310579F4411551056105710570
:100A500019F484E08C93089564FF03C081E08C93C3
:100A600012C01C9210C02F57304013963C932E9307
:100A7000129783E08C9387E0440F551F661F771F02
:100A80008A95D1F7706414964D935D936D937C9322
:100A9000179708951F93DC01FB019C91923008F495
:100AA00047C08081823008F443C0943051F41196DD
:100AB0001C91843099F58181682F70E0611B710968
:100AC0003FC0843021F0923031F48230B9F181811D
:100AD000882389F12DC011961C9111978230F1F075
:100AE00081811817D9F412962D913C911397828128
:100AF00093818217930794F028173907BCF0149656
:100B00008D919D910D90BC91A02D248135814681C0
:100B10005781281739074A075B0718F4112341F05A
:100B20000AC082179307A407B50740F4112319F0F0
:100B300061E070E005C06FEF7FEF02C060E070E041
:100B4000CB011F910895DF93CF930F92CDB7DEB7FE
:100B500080E88983A1E3B0E0E1E3F0E08081826096
:100B60008C93A1E3B0E0E1E3F0E080818E7F8C9391
:100B7000898182608983898184608983AAE2B0E067
:100B8000EAE2F0E080818B7F8C9389818F7E89837C
:100B900089818F7D89838981877F8983E0E4F0E083
:100BA00089818083E9E2F0E087E68083AAE2B0E011
:100BB000EAE2F0E0808188608C93AAE2B0E0EAE2A9
:100BC000F0E0808180618C930F90CF91DF91089548
:100BD000DF93CF930F92CDB7DEB78983ECE2F0E0DD
:100BE00089818083EBE2F0E080818295869586950D
:100BF0008370882F90E081709070009799F30F9028
:100C0000CF91DF910895DF93CF93CDB7DEB7EBE2BD
:100C1000F0E080818823DCF7ECE2F0E08081CF9186
:100C2000DF910895DF93CF9300D000D00F92CDB71E
:100C3000DEB789836A834B83A3E5B0E0E3E5F0E0A8
:100C400080818F7C8C93A3E5B0E0E3E5F0E08081C8
:100C5000282F8981882F90E082959295907F982700
:100C6000807F9827822B8C938A81282F30E03D83C8
:100C70002C838C819D818230910561F12C813D8195
:100C80002330310534F48C819D818130910561F0F0
:100C900054C02C813D812330310591F18C819D819F
:100CA00084309105E1F149C0A3E5B0E0E3E5F0E06F
:100CB0008081877F8C93A3E5B0E0E3E5F0E080815D
:100CC0008F7B8C93A9E5B0E0E9E5F0E0808181605D
:100CD0008C9333C0A3E5B0E0E3E5F0E08081886069
:100CE0008C93A3E5B0E0E3E5F0E080818F7B8C930B
:100CF000A9E5B0E0E9E5F0E0808182608C931DC059
:100D0000A3E5B0E0E3E5F0E0808188608C93A3E5A3
:100D1000B0E0E3E5F0E0808180648C930EC0A3E551
:100D2000B0E0E3E5F0E08081877F8C93A3E5B0E05D
:100D3000E3E5F0E0808180648C93A3E5B0E0E3E537
:100D4000F0E08081887F8C93A3E5B0E0E3E5F0E0FC
:100D500090818B81892B8C930F900F900F900F9027
:100D60000F90CF91DF910895DF93CF93CDB7DEB78A
:100D7000E2E5F0E08081CF91DF910895DF93CF939A
:100D80000F92CDB7DEB78983E2E5F0E089818083F9
:100D90000F90CF91DF910895DF93CF930F92CDB74E
:100DA000DEB78983ECE5F0E0898180830F90CF91F5
:100DB000DF910895DF93CF93CDB7DEB728970FB6B5
:100DC000F894DEBF0FBECDBF89836A834B832C832B
:100DD0008981813009F085C0AFE4B0E0EFE4F0E054
:100DE00080818F738C93AFE4B0E0EFE4F0E080811A
:100DF000282F8A81882F90E0002496958795079464
:100E0000969587950794982F802D822B8C938B81B4
:100E1000282F30E038872F838F8198858230910585
:100E200061F12F8138852330310534F48F81988525
:100E30008130910561F0DAC02F813885233031058A
:100E400091F18F81988584309105E1F1CFC0AFE4B5
:100E5000B0E0EFE4F0E080818E7F8C93AFE4B0E00F
:100E6000EFE4F0E080818D7F8C93A9E5B0E0E9E5C7
:100E7000F0E0808184608C93B9C0AFE4B0E0EFE42F
:100E8000F0E080818E7F8C93AFE4B0E0EFE4F0E09F
:100E900080818D7F8C93A9E5B0E0E9E5F0E0808169
:100EA00080618C93A3C0AFE4B0E0EFE4F0E0808118
:100EB0008E7F8C93AFE4B0E0EFE4F0E0808182605D
:100EC0008C9394C0AFE4B0E0EFE4F0E080818E7FDB
:100ED0008C93AFE4B0E0EFE4F0E0808182608C932B
:100EE00085C08981823009F081C0AEE4B0E0EEE4D3
:100EF000F0E080818F7C8C93AEE4B0E0EEE4F0E033
:100F00008081282F8A81882F90E082959295907F0A
:100F10009827807F9827822B8C938B81282F30E015
:100F20003E832D838D819E818230910561F12D81DB
:100F30003E812330310534F48D819E8181309105CD
:100F400061F054C02D813E812330310591F18D81B6
:100F50009E8184309105E1F149C0AEE4B0E0EEE459
:100F6000F0E08081877F8C93AEE4B0E0EEE4F0E0C7
:100F700080818F7E8C93A9E5B0E0E9E5F0E0808187
:100F800084608C9333C0AEE4B0E0EEE4F0E08081A6
:100F900088608C93AEE4B0E0EEE4F0E080818F7E78
:100FA0008C93A9E5B0E0E9E5F0E0808188608C935E
:100FB0001DC0AEE4B0E0EEE4F0E0808188608C9388
:100FC000AEE4B0E0EEE4F0E0808180618C930EC08E
:100FD000AEE4B0E0EEE4F0E08081877F8C93AEE495
:100FE000B0E0EEE4F0E0808180618C93AEE4B0E0AC
:100FF000EEE4F0E08081887F8C93AEE4B0E0EEE434
:10100000F0E090818C81892B8C9328960FB6F89410
:10101000DEBF0FBECDBFCF91DF910895DF93CF9399
:1010200000D000D00F92CDB7DEB789837B836A836F
:101030008981282F30E03D832C838C819D818130F4
:10104000910531F02C813D812230310541F00DC0F8
:10105000EAE4F0E08A819B819183808306C0E8E422
:10106000F0E08A819B81918380830F900F900F9095
:101070000F900F90CF91DF910895DF93CF9300D021
:10108000CDB7DEB79A838983ECE4F0E08981808371
:101090000F900F90CF91DF910895DF93CF93CDB74D
:1010A000DEB7ECE4F0E08081882F90E0CF91DF9113
:1010B0000895DF93CF9300D00F92CDB7DEB7898329
:1010C0006A834B83AFE4B0E0EFE4F0E080818E7F91
:1010D0008C93AFE4B0E0EFE4F0E0808182608C9329
:1010E000AEE4B0E0EEE4F0E0808188608C93AEE4A2
:1010F000B0E0EEE4F0E0808180618C938981813002
:10110000E1F4AFE4B0E0EFE4F0E080818F738C9322
:10111000AFE4B0E0EFE4F0E08081282F8A81882FEF
:1011200090E0002496958795079496958795079467
:10113000982F802D822B8C931BC089818230C1F423
:10114000AEE4B0E0EEE4F0E080818F7C8C93AEE41E
:10115000B0E0EEE4F0E08081282F8A81882F90E0D3
:1011600082959295907F9827807F9827822B8C93E9
:10117000AEE4B0E0EEE4F0E08081887F8C93AEE4F2
:10118000B0E0EEE4F0E090818B81892B8C930F909E
:101190000F900F90CF91DF910895DF93CF9300D000
:1011A000CDB7DEB79A838983E6E4F0E089819A813E
:1011B000918380830F900F90CF91DF910895DF93FB
:1011C000CF93CDB7DEB7AFE5B0E0EFE5F0E08081DB
:1011D00080688C9382E00E940509A9E5B0E0E9E50A
:1011E000F0E0808180628C93AEE4B0E0EEE4F0E069
:1011F0008081887F8C93AEE4B0E0EEE4F0E0808103
:1012000082608C93CF91DF910895DF93CF9300D0CC
:101210000F92CDB7DEB789838981282F30E03B83D9
:101220002A838A819B818130910531F02A813B811B
:101230002230310549F00FC0AEE4B0E0EEE4F0E05A
:1012400080818F7B8C9307C0AEE4B0E0EEE4F0E0E9
:10125000808180648C930F900F900F90CF91DF91DD
:101260000895DF93CF93CDB7DEB7E6E4F0E0808159
:101270009181CF91DF910895DF93CF9300D00F92AA
:10128000CDB7DEB789837B836A838981882F90E01D
:10129000880F991FFC01E858FF4F8A819B81918339
:1012A00080830F900F900F90CF91DF9108951F9240
:1012B0000F920FB60F9211242F933F934F935F938A
:1012C0006F937F938F939F93AF93BF93EF93FF930E
:1012D000DF93CF93CDB7DEB7E0918200F09183002A
:1012E0000995CF91DF91FF91EF91BF91AF919F91C0
:1012F0008F917F916F915F914F913F912F910F90BF
:101300000FBE0F901F9018951F920F920FB60F925D
:1013100011242F933F934F935F936F937F938F93FA
:101320009F93AF93BF93EF93FF93DF93CF93CDB78B
:10133000DEB7E0917E00F0917F000995CF91DF91BB
:10134000FF91EF91BF91AF919F918F917F916F919D
:101350005F914F913F912F910F900FBE0F901F9073
:1013600018951F920F920FB60F9211242F933F934F
:101370004F935F936F937F938F939F93AF93BF939D
:10138000EF93FF93DF93CF93CDB7DEB7E09180006B
:10139000F09181000995CF91DF91FF91EF91BF917D
:1013A000AF919F918F917F916F915F914F913F91FD
:1013B0002F910F900FBE0F901F9018951F920F92B4
:1013C0000FB60F9211242F933F934F935F936F9318
:1013D0007F938F939F93AF93BF93EF93FF93DF938D
:1013E000CF93CDB7DEB7E0917C00F0917D000995F9
:1013F000CF91DF91FF91EF91BF91AF919F918F912D
:101400007F916F915F914F913F912F910F900FBE00
:101410000F901F9018951F920F920FB60F921124E4
:101420002F933F934F935F936F937F938F939F93EC
:10143000AF93BF93EF93FF93DF93CF93CDB7DEB717
:10144000E0917A00F0917B000995CF91DF91FF91B7
:10145000EF91BF91AF919F918F917F916F915F912C
:101460004F913F912F910F900FBE0F901F901895A5
:101470001F920F920FB60F9211242F933F934F9309
:101480005F936F937F938F939F93AF93BF93EF93EC
:10149000FF93DF93CF93CDB7DEB7E0917800F09163
:1014A00079000995CF91DF91FF91EF91BF91AF91B5
:1014B0009F918F917F916F915F914F913F912F916C
:1014C0000F900FBE0F901F901895DF93CF93CDB75D
:1014D000DEB7ADE2B0E0EDE2F0E0808180628C93B7
:1014E000A7E3B0E0E7E3F0E0808180628C93A7E3BC
:1014F000B0E0E7E3F0E080818F7B8C93A7E3B0E07E
:10150000E7E3F0E0808180618C93A7E3B0E0E7E35C
:10151000F0E0808180688C93ADE2B0E0EDE2F0E035
:10152000808180618C93ADE2B0E0EDE2F0E08081FB
:1015300084608C93ADE2B0E0EDE2F0E08081816008
:101540008C93ADE2B0E0EDE2F0E0808182608C93BC
:10155000AEE2B0E0EEE2F0E080818E7F8C93ADE20F
:10156000B0E0EDE2F0E0808180648C93CF91DF9178
:101570000895DF93CF930F92CDB7DEB78983A8E3A9
:10158000B0E0E8E3F0E080818F7E8C93EFE2F0E062
:1015900089818083EEE2F0E080818823DCF7A8E394
:1015A000B0E0E8E3F0E0808180618C930F90CF9110
:1015B000DF910895DF93CF93CDB7DEB7EEE2F0E091
:1015C00080818823DCF7EFE2F0E08081CF91DF912A
:1015D0000895DF93CF930F92CDB7DEB78983EFE203
:1015E000F0E089818083EEE2F0E080818823DCF7FF
:1015F000EFE2F0E080810F90CF91DF910895DF93CB
:10160000CF93CDB7DEB72A970FB6F894DEBF0FBEE3
:10161000CDBF89836A83AFE5B0E0EFE5F0E080817C
:1016200080688C938981282F30E03A8729878985C3
:101630009A858130910509F46DC029853A8522305B
:10164000310509F4C9C089859A85009709F0E9C078
:10165000ABE5B0E0EBE5F0E0808180648C938A81BB
:10166000282F30E038872F838F819885813091052E
:1016700021F12F813885223031052CF48F81988516
:10168000009761F0CEC02F8138852230310521F1DD
:101690008F8198858330910571F1C3C0A5E5B0E0D5
:1016A000E5E5F0E080818E7F8C93A5E5B0E0E5E58F
:1016B000F0E0808182608C93B4C0A5E5B0E0E5E500
:1016C000F0E0808181608C93A5E5B0E0E5E5F0E095
:1016D000808182608C93A5C0A5E5B0E0E5E5F0E0EF
:1016E000808181608C93A5E5B0E0E5E5F0E0808144
:1016F0008D7F8C9396C0A5E5B0E0E5E5F0E08081B4
:101700008E7F8C93A5E5B0E0E5E5F0E080818D7FEC
:101710008C9387C0ABE5B0E0EBE5F0E080818068BA
:101720008C938A81282F30E03E832D838D819E818A
:101730008130910521F12D813E81223031052CF43B
:101740008D819E81009761F06CC02D813E81223099
:10175000310521F18D819E818330910571F161C048
:10176000A5E5B0E0E5E5F0E080818B7F8C93A5E511
:10177000B0E0E5E5F0E0808188608C9352C0A5E59B
:10178000B0E0E5E5F0E0808184608C93A5E5B0E011
:10179000E5E5F0E0808188608C9343C0A5E5B0E08A
:1017A000E5E5F0E0808184608C93A5E5B0E0E5E5B7
:1017B000F0E08081877F8C9334C0A5E5B0E0E5E55B
:1017C000F0E080818B7F8C93A5E5B0E0E5E5F0E06B
:1017D0008081877F8C9325C0ABE5B0E0EBE5F0E03E
:1017E000808180628C938A81282F30E03C832B8318
:1017F0008B819C81009731F02B813C812130310518
:1018000049F00FC0A4E5B0E0E4E5F0E080818F7B13
:101810008C9307C0A4E5B0E0E4E5F0E0808180644B
:101820008C932A960FB6F894DEBF0FBECDBFCF9132
:10183000DF910895DF93CF9300D00F92CDB7DEB73D
:101840008983AFE5B0E0EFE5F0E080818F778C939E
:101850008981282F30E03B832A838A819B818130D4
:10186000910589F02A813B8122303105A1F08A81DE
:101870009B810097B9F4ABE5B0E0EBE5F0E0808147
:101880008F7B8C930FC0ABE5B0E0EBE5F0E080819F
:101890008F778C9307C0ABE5B0E0EBE5F0E080819B
:1018A0008F7D8C930F900F900F90CF91DF910895C3
:1018B000DF93CF9300D0CDB7DEB79A838983898138
:1018C0009A8190938700809386000F900F90CF911C
:1018D000DF9108951F920F920FB60F9211242F934C
:1018E0003F934F935F936F937F938F939F93AF93A8
:1018F000BF93EF93FF93DF93CF93CDB7DEB7E09124
:101900008600F09187000995CF91DF91FF91EF91CB
:10191000BF91AF919F918F917F916F915F914F9107
:101920003F912F910F900FBE0F901F901895DF934E
:10193000CF9300D0CDB7DEB79A83898389819A810E
:1019400090938900809388000F900F90CF91DF9142
:1019500008951F920F920FB60F9211242F933F9369
:101960004F935F936F937F938F939F93AF93BF93A7
:10197000EF93FF93DF93CF93CDB7DEB7E09188006D
:10198000F09189000995CF91DF91FF91EF91BF917F
:10199000AF919F918F917F916F915F914F913F9107
:1019A0002F910F900FBE0F901F901895DF93CF933C
:1019B00000D0CDB7DEB79A83898389819A819093CD
:1019C0008500809384000F900F90CF91DF91089550
:1019D0001F920F920FB60F9211242F933F934F93A4
:1019E0005F936F937F938F939F93AF93BF93EF9387
:1019F000FF93DF93CF93CDB7DEB7E0918400F091F2
:101A000085000995CF91DF91FF91EF91BF91AF9143
:101A10009F918F917F916F915F914F913F912F9106
:101A20000F900FBE0F901F901895DF93CF9300D0AB
:101A300000D00F92CDB7DEB789836A834B8389814B
:101A4000282F30E03D832C838C819D81813091054E
:101A500009F447C02C813D81223031052CF48C8162
:101A60009D81009771F0CBC02C813D8122303105E2
:101A700009F467C08C819D818330910509F491C080
:101A8000BEC08B818130A1F4AAE3B0E0EAE3F0E0CC
:101A90008081482F8A81282F30E081E090E0022E5B
:101AA00002C0880F991F0A94E2F7842B8C93A7C079
:101AB0008B81882309F0A3C0AAE3B0E0EAE3F0E059
:101AC0008081482F8A81282F30E081E090E0022E2B
:101AD00002C0880F991F0A94E2F7809584238C93A3
:101AE0008EC08B818130A1F4A7E3B0E0E7E3F0E0A2
:101AF0008081482F8A81282F30E081E090E0022EFB
:101B000002C0880F991F0A94E2F7842B8C9377C048
:101B10008B81882309F073C0A7E3B0E0E7E3F0E02E
:101B20008081482F8A81282F30E081E090E0022ECA
:101B300002C0880F991F0A94E2F7809584238C9342
:101B40005EC08B818130A1F4A4E3B0E0E4E3F0E077
:101B50008081482F8A81282F30E081E090E0022E9A
:101B600002C0880F991F0A94E2F7842B8C9347C018
:101B70008B81882309F043C0A4E3B0E0E4E3F0E004
:101B80008081482F8A81282F30E081E090E0022E6A
:101B900002C0880F991F0A94E2F7809584238C93E2
:101BA0002EC08B818130A1F4A1E3B0E0E1E3F0E04D
:101BB0008081482F8A81282F30E081E090E0022E3A
:101BC00002C0880F991F0A94E2F7842B8C9317C0E8
:101BD0008B818823A1F4A1E3B0E0E1E3F0E0808110
:101BE000482F8A81282F30E081E090E0022E02C049
:101BF000880F991F0A94E2F7809584238C930F90A5
:101C00000F900F900F900F90CF91DF910895DF9379
:101C1000CF9300D000D00F92CDB7DEB789836A830F
:101C20004B838981282F30E03D832C838C819D81DB
:101C30008130910509F447C02C813D812230310566
:101C40002CF48C819D81009771F0CBC02C813D815B
:101C50002230310509F467C08C819D818330910564
:101C600009F491C0BEC08B818130A1F4ABE3B0E038
:101C7000EBE3F0E08081482F8A81282F30E081E07B
:101C800090E0022E02C0880F991F0A94E2F7842B7D
:101C90008C93A7C08B81882309F0A3C0ABE3B0E08D
:101CA000EBE3F0E08081482F8A81282F30E081E04B
:101CB00090E0022E02C0880F991F0A94E2F78095E7
:101CC00084238C938EC08B818130A1F4A8E3B0E093
:101CD000E8E3F0E08081482F8A81282F30E081E01E
:101CE00090E0022E02C0880F991F0A94E2F7842B1D
:101CF0008C9377C08B81882309F073C0A8E3B0E090
:101D0000E8E3F0E08081482F8A81282F30E081E0ED
:101D100090E0022E02C0880F991F0A94E2F7809586
:101D200084238C935EC08B818130A1F4A5E3B0E065
:101D3000E5E3F0E08081482F8A81282F30E081E0C0
:101D400090E0022E02C0880F991F0A94E2F7842BBC
:101D50008C9347C08B81882309F043C0A5E3B0E092
:101D6000E5E3F0E08081482F8A81282F30E081E090
:101D700090E0022E02C0880F991F0A94E2F7809526
:101D800084238C932EC08B818130A1F4A2E3B0E038
:101D9000E2E3F0E08081482F8A81282F30E081E063
:101DA00090E0022E02C0880F991F0A94E2F7842B5C
:101DB0008C9317C08B818823A1F4A2E3B0E0E2E307
:101DC000F0E08081482F8A81282F30E081E090E088
:101DD000022E02C0880F991F0A94E2F7809584238F
:101DE0008C930F900F900F900F900F90CF91DF91E9
:101DF0000895DF93CF9300D000D0CDB7DEB78983AD
:101E00006A838981282F30E03C832B838B819C81DE
:101E100081309105D1F02B813C81223031052CF4A9
:101E20008B819C81009761F01EC02B813C81223008
:101E3000310581F08B819C818330910581F013C045
:101E4000EAE3F0E08A8180830EC0E7E3F0E08A8174
:101E5000808309C0E4E3F0E08A81808304C0E1E389
:101E6000F0E08A8180830F900F900F900F90CF91B8
:101E7000DF910895DF93CF9300D000D0CDB7DEB7C8
:101E800089836A838981282F30E03C832B838B816F
:101E90009C8181309105D1F02B813C81223031052C
:101EA0002CF48B819C81009761F01EC02B813C81BA
:101EB0002230310581F08B819C818330910581F046
:101EC00013C0EBE3F0E08A8180830EC0E8E3F0E02A
:101ED0008A81808309C0E5E3F0E08A81808304C0C1
:101EE000E2E3F0E08A8180830F900F900F900F90D3
:101EF000CF91DF910895DF93CF9300D000D00F9260
:101F0000CDB7DEB78A836B838A81282F30E03D838B
:101F10002C834C815D814130510541F18C819D8143
:101F20008230910534F42C813D812115310561F019
:101F300052C04C815D814230510551F18C819D81AF
:101F400083309105B9F147C0E9E3F0E08081282FA3
:101F500030E08B81882F90E0A90102C0559547950C
:101F60008A95E2F7CA018170898335C0E6E3F0E023
:101F70008081282F30E08B81882F90E0A90102C05A
:101F8000559547958A95E2F7CA018170898323C0E8
:101F9000E3E3F0E08081282F30E08B81882F90E010
:101FA000A90102C0559547958A95E2F7CA0181704B
:101FB000898311C0E0E3F0E08081282F30E08B813D
:101FC000882F90E0A90102C0559547958A95E2F7C0
:101FD000CA018170898389810F900F900F900F90B3
:101FE0000F90CF91DF910895DF93CF93CDB7DEB7F8
:101FF000A7E2B0E0E7E2F0E080818F778C93A7E280
:10200000B0E0E7E2F0E0808180648C93A7E2B0E08A
:10201000E7E2F0E080818F7D8C93A6E2B0E0E6E21B
:10202000F0E0808181608C93A6E2B0E0E6E2F0E02F
:10203000808182608C93A6E2B0E0E6E2F0E08081ED
:1020400084608C93A6E2B0E0E6E2F0E080818062FA
:102050008C93A6E2B0E0E6E2F0E0808180688C93A9
:10206000CF91DF910895DF93CF93CDB7DEB7E6E24E
:10207000F0E0808182958F70882F90E08170907061
:102080000097A9F3E4E2F0E080819181CF91DF91A4
:102090000895DF93CF930F92CDB7DEB789838981FF
:1020A000882321F5A7E2B0E0E7E2F0E080818F7EAF
:1020B0008C93A7E2B0E0E7E2F0E08081877F8C9329
:1020C000A7E2B0E0E7E2F0E080818B7F8C93A7E2AB
:1020D000B0E0E7E2F0E080818D7F8C93A7E2B0E092
:1020E000E7E2F0E080818E7F8C9310C1898181309E
:1020F00021F5A7E2B0E0E7E2F0E080818F7E8C93EB
:10210000A7E2B0E0E7E2F0E08081877F8C93A7E26E
:10211000B0E0E7E2F0E080818B7F8C93A7E2B0E053
:10212000E7E2F0E080818D7F8C93A7E2B0E0E7E208
:10213000F0E0808181608C93E9C08981823021F553
:10214000A7E2B0E0E7E2F0E080818F7E8C93A7E227
:10215000B0E0E7E2F0E08081877F8C93A7E2B0E017
:10216000E7E2F0E080818B7F8C93A7E2B0E0E7E2CA
:10217000F0E0808182608C93A7E2B0E0E7E2F0E0DB
:1021800080818E7F8C93C2C08981833021F5A7E244
:10219000B0E0E7E2F0E080818F7E8C93A7E2B0E0D0
:1021A000E7E2F0E08081877F8C93A7E2B0E0E7E28E
:1021B000F0E080818B7F8C93A7E2B0E0E7E2F0E073
:1021C000808182608C93A7E2B0E0E7E2F0E080815A
:1021D00081608C939BC08981843021F5A7E2B0E0B7
:1021E000E7E2F0E080818F7E8C93A7E2B0E0E7E247
:1021F000F0E08081877F8C93A7E2B0E0E7E2F0E037
:10220000808184608C93A7E2B0E0E7E2F0E0808117
:102210008D7F8C93A7E2B0E0E7E2F0E080818E7FD3
:102220008C9374C08981853021F5A7E2B0E0E7E2A4
:10223000F0E080818F7E8C93A7E2B0E0E7E2F0E0EF
:102240008081877F8C93A7E2B0E0E7E2F0E08081B5
:1022500084608C93A7E2B0E0E7E2F0E080818D7FBC
:102260008C93A7E2B0E0E7E2F0E0808181608C939C
:102270004DC08981863021F5A7E2B0E0E7E2F0E0C9
:1022800080818F7E8C93A7E2B0E0E7E2F0E080816E
:10229000877F8C93A7E2B0E0E7E2F0E08081846082
:1022A0008C93A7E2B0E0E7E2F0E0808182608C935B
:1022B000A7E2B0E0E7E2F0E080818E7F8C9326C059
:1022C0008981873019F5A7E2B0E0E7E2F0E080818C
:1022D0008F7E8C93A7E2B0E0E7E2F0E08081877F19
:1022E0008C93A7E2B0E0E7E2F0E0808184608C9319
:1022F000A7E2B0E0E7E2F0E0808182608C93A7E2A1
:10230000B0E0E7E2F0E0808181608C93A6E2B0E08B
:10231000E6E2F0E0808180648C930F90CF91DF91B2
:102320000895DF93CF93CDB7DEB7AFE5B0E0EFE52B
:10233000F0E0808180688C93A6E2B0E0E6E2F0E015
:10234000808188608C93CF91DF910895DF93CF9344
:10235000CDB7DEB7AFE5B0E0EFE5F0E080818F7795
:102360008C93A6E2B0E0E6E2F0E08081877F8C9378
:10237000CF91DF910895DF93CF9300D0CDB7DEB733
:102380009A83898389819A8190938B0080938A00B4
:102390000F900F90CF91DF9108951F920F920FB67B
:1023A0000F9211242F933F934F935F936F937F93DB
:1023B0008F939F93AF93BF93EF93FF93DF93CF934D
:1023C000CDB7DEB7E0918A00F0918B000995CF91EF
:1023D000DF91FF91EF91BF91AF919F918F917F918D
:1023E0006F915F914F913F912F910F900FBE0F9082
:1023F0001F9018950F931F93DF93CF93CDB7DEB740
:10240000CE57D0400FB6F894DEBF0FBECDBFFE0151
:10241000E858FF4F8083FE01E758FF4F6083FE01BD
:10242000E658FF4F4083FE01E558FF4F318320837C
:10243000FE01EA58FF4F11821082FE01E558FF4F5E
:1024400080819181CC01A0E0B0E0072E7BE0880F75
:10245000991FAA1FBB1F7A95D1F7702D20EA35E08E
:1024600040E050E0BC01CD010E943421DA01C901F5
:10247000FE01EC58FF4F91838083DE01AD58BF4FC2
:10248000FE01E758FF4F80818F5F8C93DE01AE58CD
:10249000BF4FFE01E758FF4F80818E5F8C93DE01B6
:1024A000AF58BF4FFE01E758FF4F80818D5F8C937F
:1024B000FE01E858FF4FDE01A758BF4F80816C91A5
:1024C00041E00E94150DFE01E858FF4FDE01AD58B6
:1024D000BF4F80816C9141E00E94150DFE01E858CC
:1024E000FF4FDE01AE58BF4F80816C9141E00E94EA
:1024F000150DFE01E858FF4FDE01AF58BF4F808138
:102500006C9141E00E94150DFE01E858FF4FDE017D
:10251000A758BF4F80816C9141E00E94070EFE01D9
:10252000E858FF4FDE01AD58BF4F80816C9141E00C
:102530000E94070EFE01E858FF4FDE01AE58BF4F64
:1025400080816C9141E00E94070EFE01E858FF4F28
:10255000DE01AF58BF4F80816C9141E00E94070EB1
:10256000FE01E658FF4F8081282F30E0EF963FAF05
:102570002EAFEF97EF968EAD9FADEF97009749F096
:10258000EF96EEADFFADEF97E130F10509F470C3C2
:1025900007C6FE01EA58FF4F1182108259C3FE019F
:1025A000E858FF4FDE01A758BF4F80816C9140E093
:1025B0000E94070EFE01E858FF4FDE01AD58BF4FE5
:1025C00080816C9141E00E94070EFE01E858FF4FA8
:1025D000DE01AE58BF4F80816C9141E00E94070E32
:1025E000FE01E858FF4FDE01AF58BF4F80816C916C
:1025F00041E00E94070EFE01E359FF4F80E090E0AA
:10260000A0E2B1E480839183A283B3838E01075952
:102610001F4FFE01E359FF4F6081718182819381D9
:1026200020E030E04AEF54E40E941F02DC01CB01BD
:10263000F80180839183A283B383FE01E759FF4FA2
:10264000608171818281938120E030E040E85FE326
:102650000E947903882344F4FE01E959FF4F81E089
:1026600090E09183808364C0FE01E759FF4F608151
:1026700071818281938120E03FEF4FE757E40E9410
:10268000190318160CF043C0FE01E359FF4F608197
:1026900071818281938120E030E040E251E40E9428
:1026A0001F02DC01CB018E0109591F4FBC01CD0176
:1026B0000E944900DC01CB01F801918380831FC097
:1026C000FE01EB59FF4F88EC90E091838083FE017F
:1026D000EB59FF4F808191810197F1F7FE01EB5992
:1026E000FF4F91838083DE01A959BF4FFE01E95955
:1026F000FF4F80819181019711969C938E93FE01EB
:10270000E959FF4F808191810097D1F627C08E0152
:1027100009591F4FFE01E759FF4F60817181828186
:1027200093810E944900DC01CB01F80191838083F1
:10273000DE01AD59BF4FFE01E959FF4F8081918104
:102740008D939C93FE01ED59FF4F808191810197FC
:10275000F1F7FE01ED59FF4F91838083FE01E858A8
:10276000FF4FDE01A758BF4F80816C9141E00E946E
:10277000070EFE01E858FF4FDE01AD58BF4F8081C4
:102780006C9140E00E94070EFE01E858FF4FDE0109
:10279000AE58BF4F80816C9141E00E94070EFE0150
:1027A000E858FF4FDE01AF58BF4F80816C9141E088
:1027B0000E94070EFE01E15AFF4F80E090E0A0E288
:1027C000B1E480839183A283B3838E01055A1F4FA6
:1027D000FE01E15AFF4F608171818281938120E087
:1027E00030E04AEF54E40E941F02DC01CB01F80103
:1027F00080839183A283B383FE01E55AFF4F6081FA
:1028000071818281938120E030E040E85FE30E94A3
:102810007903882344F4FE01E75AFF4F81E090E0FA
:102820009183808364C0FE01E55AFF4F608171810E
:102830008281938120E03FEF4FE757E40E94190324
:1028400018160CF043C0FE01E15AFF4F6081718100
:102850008281938120E030E040E251E40E941F0237
:10286000DC01CB018E01075A1F4FBC01CD010E9434
:102870004900DC01CB01F801918380831FC0FE0178
:10288000E95AFF4F88EC90E091838083FE01E95A7A
:10289000FF4F808191810197F1F7FE01E95AFF4FC7
:1028A00091838083DE01A75ABF4FFE01E75AFF4F95
:1028B00080819181019711969C938E93FE01E75A36
:1028C000FF4F808191810097D1F627C08E01075A72
:1028D0001F4FFE01E55AFF4F608171818281938114
:1028E0000E944900DC01CB01F80191838083DE0165
:1028F000AB5ABF4FFE01E75AFF4F808191818D9304
:102900009C93FE01EB5AFF4F808191810197F1F773
:10291000FE01EB5AFF4F91838083FE01E858FF4F81
:10292000DE01A758BF4F80816C9141E00E94070EE5
:10293000FE01E858FF4FDE01AD58BF4F80816C911A
:1029400041E00E94070EFE01E858FF4FDE01AE583D
:10295000BF4F80816C9140E00E94070EFE01E85855
:10296000FF4FDE01AF58BF4F80816C9141E00E9464
:10297000070EFE01EF5AFF4F80E090E0A0E2B1E4C5
:1029800080839183A283B3838E01035B1F4FFE017B
:10299000EF5AFF4F608171818281938120E030E0A6
:1029A0004AEF54E40E941F02DC01CB01F80180834E
:1029B0009183A283B383FE01E35BFF4F608171814A
:1029C0008281938120E030E040E85FE30E94790358
:1029D000882344F4FE01E55BFF4F81E090E09183A2
:1029E000808364C0FE01E35BFF4F6081718182815F
:1029F000938120E03FEF4FE757E40E941903181638
:102A00000CF043C0FE01EF5AFF4F6081718182815B
:102A1000938120E030E040E251E40E941F02DC019B
:102A2000CB018E01055B1F4FBC01CD010E94490007
:102A3000DC01CB01F801918380831FC0FE01E75BBD
:102A4000FF4F88EC90E091838083FE01E75BFF4FAE
:102A5000808191810197F1F7FE01E75BFF4F918340
:102A60008083DE01A55BBF4FFE01E55BFF4F8081E8
:102A70009181019711969C938E93FE01E55BFF4F28
:102A8000808191810097D1F627C08E01055B1F4F91
:102A9000FE01E35BFF4F60817181828193810E941F
:102AA0004900DC01CB01F80191838083DE01A95B41
:102AB000BF4FFE01E55BFF4F808191818D939C9319
:102AC000FE01E95BFF4F808191810197F1F7FE01E3
:102AD000E95BFF4F91838083FE01E858FF4FDE01E1
:102AE000A758BF4F80816C9141E00E94070EFE0104
:102AF000E858FF4FDE01AD58BF4F80816C9141E037
:102B00000E94070EFE01E858FF4FDE01AE58BF4F8E
:102B100080816C9141E00E94070EFE01E858FF4F52
:102B2000DE01AF58BF4F80816C9140E00E94070EDC
:102B3000FE01ED5BFF4F80E090E0A0E2B1E4808316
:102B40009183A283B3838E01015C1F4FFE01ED5B75
:102B5000FF4F608171818281938120E030E04AEFF4
:102B600054E40E941F02DC01CB01F80180839183B1
:102B7000A283B383FE01FF9660817181828193817C
:102B800020E030E040E85FE30E94790388232CF4E2
:102B900081E090E09EAF8DAF46C0FE01FF96608160
:102BA00071818281938120E03FEF4FE757E40E94DB
:102BB0001903181664F5FE01ED5BFF4F608171810A
:102BC0008281938120E030E040E251E40E941F02C4
:102BD000DC01CB01BC01CD010E944900DC01CB012D
:102BE0009EAF8DAF0FC088EC90E09CAF8BAF8BADEC
:102BF0009CAD0197F1F79CAF8BAF8DAD9EAD01976A
:102C00009EAF8DAF8DAD9EAD009769F716C0FE01EA
:102C1000FF9660817181828193810E944900DC016D
:102C2000CB019EAF8DAF8DAD9EAD9AAF89AF89AD13
:102C30009AAD0197F1F79AAF89AFDE01AA58BF4F5D
:102C4000FE01EA58FF4F8081918101968D939C93FC
:102C5000FE01EA58FF4FDE01AC58BF4F20813181A1
:102C60008D919C9111972817390708F498CC98C238
:102C7000FE01EA58FF4F1182108283C2FE01E8581C
:102C8000FF4FDE01A758BF4F80816C9141E00E9449
:102C9000070EFE01E858FF4FDE01AD58BF4F80819F
:102CA0006C9141E00E94070EFE01E858FF4FDE01E3
:102CB000AE58BF4F80816C9141E00E94070EFE012B
:102CC000E858FF4FDE01AF58BF4F80816C9140E064
:102CD0000E94070E80E090E0A0E2B1E48DAB9EABD5
:102CE000AFABB8AF6DA97EA98FA998AD20E030E059
:102CF0004AEF54E40E941F02DC01CB0189AB9AAB7E
:102D0000ABABBCAB69A97AA98BA99CA920E030E048
:102D100040E85FE30E94790388232CF481E090E08F
:102D200098AB8FA73FC069A97AA98BA99CA920E07D
:102D30003FEF4FE757E40E94190318164CF56DA9B1
:102D40007EA98FA998AD20E030E040E251E40E94D6
:102D50001F02DC01CB01BC01CD010E944900DC0156
:102D6000CB0198AB8FA70FC088EC90E09EA78DA7F2
:102D70008DA59EA50197F1F79EA78DA78FA598A970
:102D8000019798AB8FA78FA598A9009769F714C0F2
:102D900069A97AA98BA99CA90E944900DC01CB01F1
:102DA00098AB8FA78FA598A99CA78BA78BA59CA54F
:102DB0000197F1F79CA78BA7FE01E858FF4FDE01B2
:102DC000A758BF4F80816C9141E00E94070EFE0121
:102DD000E858FF4FDE01AD58BF4F80816C9141E054
:102DE0000E94070EFE01E858FF4FDE01AE58BF4FAC
:102DF00080816C9140E00E94070EFE01E858FF4F71
:102E0000DE01AF58BF4F80816C9141E00E94070EF8
:102E100080E090E0A0E2B1E48FA398A7A9A7BAA7A9
:102E20006FA178A589A59AA520E030E04AEF54E487
:102E30000E941F02DC01CB018BA39CA3ADA3BEA308
:102E40006BA17CA18DA19EA120E030E040E85FE372
:102E50000E94790388232CF481E090E09AA389A34F
:102E60003FC06BA17CA18DA19EA120E03FEF4FE769
:102E700057E40E94190318164CF56FA178A589A58F
:102E80009AA520E030E040E251E40E941F02DC01FC
:102E9000CB01BC01CD010E944900DC01CB019AA30A
:102EA00089A30FC088EC90E098A38F8F8F8D98A195
:102EB0000197F1F798A38F8F89A19AA101979AA3FF
:102EC00089A389A19AA1009769F714C06BA17CA17D
:102ED0008DA19EA10E944900DC01CB019AA389A388
:102EE00089A19AA19E8F8D8F8D8D9E8D0197F1F76F
:102EF0009E8F8D8FFE01E858FF4FDE01A758BF4F10
:102F000080816C9141E00E94070EFE01E858FF4F5E
:102F1000DE01AD58BF4F80816C9140E00E94070EEA
:102F2000FE01E858FF4FDE01AE58BF4F80816C9123
:102F300041E00E94070EFE01E858FF4FDE01AF5846
:102F4000BF4F80816C9141E00E94070E80E090E0CD
:102F5000A0E2B1E4898F9A8FAB8FBC8F698D7A8D97
:102F60008B8D9C8D20E030E04AEF54E40E941F02DC
:102F7000DC01CB018D8B9E8BAF8BB88F6D897E89E9
:102F80008F89988D20E030E040E85FE30E9479036C
:102F900088232CF481E090E09C8B8B8B3FC06D8963
:102FA0007E898F89988D20E03FEF4FE757E40E949C
:102FB000190318164CF5698D7A8D8B8D9C8D20E048
:102FC00030E040E251E40E941F02DC01CB01BC0171
:102FD000CD010E944900DC01CB019C8B8B8B0FC083
:102FE00088EC90E09A8B898B89899A890197F1F70F
:102FF0009A8B898B8B899C8901979C8B8B8B8B8976
:103000009C89009769F714C06D897E898F89988D96
:103010000E944900DC01CB019C8B8B8B8B899C89A6
:10302000988B8F878F8598890197F1F7988B8F8779
:10303000FE01E858FF4FDE01A758BF4F80816C9119
:1030400040E00E94070EFE01E858FF4FDE01AD5838
:10305000BF4F80816C9141E00E94070EFE01E8584D
:10306000FF4FDE01AE58BF4F80816C9141E00E945E
:10307000070EFE01E858FF4FDE01AF58BF4F8081B9
:103080006C9141E00E94070E80E090E0A0E2B1E484
:103090008B879C87AD87BE876B857C858D859E855C
:1030A00020E030E04AEF54E40E941F02DC01CB0133
:1030B0008F839887A987BA876F81788589859A8554
:1030C00020E030E040E85FE30E94790388232CF49D
:1030D00081E090E09E838D833FC06F8178858985F4
:1030E0009A8520E03FEF4FE757E40E941903181636
:1030F0004CF56B857C858D859E8520E030E040E237
:1031000051E40E941F02DC01CB01BC01CD010E94F1
:103110004900DC01CB019E838D830FC088EC90E0D9
:103120009C838B838B819C810197F1F79C838B839C
:103130008D819E8101979E838D838D819E810097D5
:1031400069F714C06F81788589859A850E94490046
:10315000DC01CB019E838D838D819E819A8389833F
:1031600089819A810197F1F79A838983DE01AA58B0
:10317000BF4FFE01EA58FF4F8081918101968D93E8
:103180009C93FE01EA58FF4FDE01AC58BF4F2081EF
:1031900031818D919C9111972817390708F46ECDD4
:1031A000C258DF4F0FB6F894DEBF0FBECDBFCF9130
:1031B000DF911F910F910895DF93CF9300D000D03E
:1031C000CDB7DEB789836A8389816FEF0E94F90EDC
:1031D0008A81282F30E03C832B838B819C81843033
:1031E000910509F455C02B813C8125303105DCF473
:1031F0008B819C818130910509F43BC02B813C81FE
:10320000223031052CF48B819C81009769F15DC0DF
:103210002B813C812230310589F18B819C81833067
:10322000910589F152C02B813C812730310509F489
:103230003EC08B819C81883091055CF42B813C8160
:103240002530310551F18B819C818630910551F1FA
:103250003CC02B813C812830310571F18B819C81F0
:103260008930910571F131C089816FE30E943A0F75
:103270002CC0898166E00E943A0F27C089816BE5E6
:103280000E943A0F22C089816FE40E943A0F1DC04C
:10329000898166E60E943A0F18C089816DE60E9416
:1032A0003A0F13C089816DE70E943A0F0EC08981E1
:1032B00067E00E943A0F09C089816FE70E943A0FC8
:1032C00004C089816FE60E943A0F0F900F900F9013
:1032D0000F90CF91DF910895DF93CF93CDB7DEB7F5
:1032E0000E94F40FCF91DF910895DF93CF9300D028
:1032F00000D0CDB7DEB78C838C810E9449100E942C
:1033000033109B838A838A819B81CC01A0E0B0E04B
:1033100024EF31E040E050E0BC01CD010E941521D6
:10332000DC01CB012FEF33E040E050E0BC01CD01E8
:103330000E943421DA01C901898389810F900F909D
:103340000F900F90CF91DF910895DF93CF9300D02E
:10335000CDB7DEB789836A8389816A8141E00E94A3
:10336000150D89816A8141E00E94070E0F900F9030
:10337000CF91DF910895DF93CF9300D0CDB7DEB723
:1033800089836A8389816A8141E00E94150D898160
:103390006A8140E00E94070E0F900F90CF91DF915D
:1033A0000895DF93CF93CDB7DEB70E94F40FCF918E
:1033B000DF910895DF93CF9300D000D00F92CDB767
:1033C000DEB78D838D810E9449100E9433109C834B
:1033D0008B838B819C81CC01A0E0B0E024E630E0BF
:1033E00040E050E0BC01CD010E941521DC01CB0181
:1033F0002FEF33E040E050E0BC01CD010E943421CA
:10340000DA01C9019A83898389819A810F900F908B
:103410000F900F900F90CF91DF910895DF93CF938E
:10342000CDB7DEB72E970FB6F894DEBF0FBECDBF77
:1034300080E065E041E00E94150D80E064E041E03D
:103440000E94150D80E060E041E00E94150D80E0D3
:1034500061E041E00E94150D80E062E041E00E94E1
:10346000150D80E063E041E00E94150D80E090E0E2
:10347000A8ECB2E48B879C87AD87BE876B857C8583
:103480008D859E8520E030E04AEF54E40E941F02C3
:10349000DC01CB018F839887A987BA876F817885F4
:1034A00089859A8520E030E040E85FE30E94790357
:1034B00088232CF481E090E09E838D833FC06F8150
:1034C000788589859A8520E03FEF4FE757E40E9491
:1034D000190318164CF56B857C858D859E8520E03B
:1034E00030E040E251E40E941F02DC01CB01BC014C
:1034F000CD010E944900DC01CB019E838D830FC06A
:1035000088EC90E09C838B838B819C810197F1F701
:103510009C838B838D819E8101979E838D838D817A
:103520009E81009769F714C06F81788589859A8597
:103530000E944900DC01CB019E838D838D819E8199
:103540009A83898389819A810197F1F79A83898384
:1035500083E30E94C61A82E30E94C61A88E20E9490
:10356000C61A8CE00E94C61A82E00E94C61A81E048
:103570000E94C61A86E00E94C61A2E960FB6F894CC
:10358000DEBF0FBECDBFCF91DF910895DF93CF9304
:10359000CDB7DEB7AB970FB6F894DEBF0FBECDBF89
:1035A0008BA780E064E040E00E94070E8BA5829527
:1035B0008F70982F917080E060E0492F0E94070E75
:1035C0008BA5829586958770982F917080E061E039
:1035D000492F0E94070E8BA582958695869583704C
:1035E000982F917080E062E0492F0E94070E8BA512
:1035F000982F991F9927991F80E063E0492F0E9417
:10360000070E80E065E041E00E94070E80E090E058
:10361000A0E8BFE38FA398A7A9A7BAA76FA178A531
:1036200089A59AA520E030E04AEF54E40E941F02E9
:10363000DC01CB018BA39CA3ADA3BEA36BA17CA19A
:103640008DA19EA120E030E040E85FE30E94790375
:1036500088232CF481E090E09AA389A33FC06BA15A
:103660007CA18DA19EA120E03FEF4FE757E40E948F
:10367000190318164CF56FA178A589A59AA520E025
:1036800030E040E251E40E941F02DC01CB01BC01AA
:10369000CD010E944900DC01CB019AA389A30FC090
:1036A00088EC90E098A38F8F8F8D98A10197F1F708
:1036B00098A38F8F89A19AA101979AA389A389A121
:1036C0009AA1009769F714C06BA17CA18DA19EA15E
:1036D0000E944900DC01CB019AA389A389A19AA188
:1036E0009E8F8D8F8D8D9E8D0197F1F79E8F8D8F83
:1036F00080E065E040E00E94070E8BA5982F917056
:1037000080E060E0492F0E94070E8BA58695982FD8
:10371000917080E061E0492F0E94070E8BA586958D
:103720008695982F917080E062E0492F0E94070EE5
:103730008BA5869586958695982F917080E063E09D
:10374000492F0E94070E80E065E041E00E94070ECD
:1037500080E090E0A0E8BFE3898F9A8FAB8FBC8FA9
:10376000698D7A8D8B8D9C8D20E030E04AEF54E49A
:103770000E941F02DC01CB018D8B9E8BAF8BB88F1B
:103780006D897E898F89988D20E030E040E85FE385
:103790000E94790388232CF481E090E09C8B8B8B32
:1037A0003FC06D897E898F89988D20E03FEF4FE77C
:1037B00057E40E94190318164CF5698D7A8D8B8D8C
:1037C0009C8D20E030E040E251E40E941F02DC01C9
:1037D000CB01BC01CD010E944900DC01CB019C8BD7
:1037E0008B8B0FC088EC90E09A8B898B89899A89A2
:1037F0000197F1F79A8B898B8B899C8901979C8B18
:103800008B8B8B899C89009769F714C06D897E89A1
:103810008F89988D0E944900DC01CB019C8B8B8B9A
:103820008B899C89988B8F878F8598890197F1F771
:10383000988B8F8780E065E040E00E94070E80E073
:1038400090E0A0EAB0E48B879C87AD87BE876B854C
:103850007C858D859E8520E030E04AEF54E40E940F
:103860001F02DC01CB018F839887A987BA876F81FC
:10387000788589859A8520E030E040E85FE30E9402
:10388000790388232CF481E090E09E838D833FC0F0
:103890006F81788589859A8520E03FEF4FE757E46F
:1038A0000E94190318164CF56B857C858D859E85C5
:1038B00020E030E040E251E40E941F02DC01CB0135
:1038C000BC01CD010E944900DC01CB019E838D83A8
:1038D0000FC088EC90E09C838B838B819C81019747
:1038E000F1F79C838B838D819E8101979E838D83CD
:1038F0008D819E81009769F714C06F8178858985D5
:103900009A850E944900DC01CB019E838D838D81C5
:103910009E819A83898389819A810197F1F79A839D
:103920008983AB960FB6F894DEBF0FBECDBFCF91A3
:10393000DF910895DF93CF93CDB7DEB7AB970FB686
:10394000F894DEBF0FBECDBF8BA780E064E041E0FE
:103950000E94070E8BA582958F70982F917080E042
:1039600060E0492F0E94070E8BA58295869587708F
:10397000982F917080E061E0492F0E94070E8BA57F
:103980008295869586958370982F917080E062E08D
:10399000492F0E94070E8BA5982F991F9927991FD1
:1039A00080E063E0492F0E94070E80E065E041E07F
:1039B0000E94070E80E090E0A0E8BFE38FA398A7E5
:1039C000A9A7BAA76FA178A589A59AA520E030E09C
:1039D0004AEF54E40E941F02DC01CB018BA39CA39D
:1039E000ADA3BEA36BA17CA18DA19EA120E030E080
:1039F00040E85FE30E94790388232CF481E090E0A3
:103A00009AA389A33FC06BA17CA18DA19EA120E0B8
:103A10003FEF4FE757E40E94190318164CF56FA1CA
:103A200078A589A59AA520E030E040E251E40E9403
:103A30001F02DC01CB01BC01CD010E944900DC0169
:103A4000CB019AA389A30FC088EC90E098A38F8F35
:103A50008F8D98A10197F1F798A38F8F89A19AA1D3
:103A600001979AA389A389A19AA1009769F714C025
:103A70006BA17CA18DA19EA10E944900DC01CB011C
:103A80009AA389A389A19AA19E8F8D8F8D8D9E8DDA
:103A90000197F1F79E8F8D8F80E065E040E00E94F6
:103AA000070E8BA5982F917080E060E0492F0E944F
:103AB000070E8BA58695982F917080E061E0492FC5
:103AC0000E94070E8BA586958695982F917080E0B1
:103AD00062E0492F0E94070E8BA5869586958695F4
:103AE000982F917080E063E0492F0E94070E80E0DC
:103AF00065E041E00E94070E80E090E0A0E8BFE3AF
:103B0000898F9A8FAB8FBC8F698D7A8D8B8D9C8DB1
:103B100020E030E04AEF54E40E941F02DC01CB01B8
:103B20008D8B9E8BAF8BB88F6D897E898F89988D99
:103B300020E030E040E85FE30E94790388232CF422
:103B400081E090E09C8B8B8B3FC06D897E898F8953
:103B5000988D20E03FEF4FE757E40E9419031816B5
:103B60004CF5698D7A8D8B8D9C8D20E030E040E2A4
:103B700051E40E941F02DC01CB01BC01CD010E9477
:103B80004900DC01CB019C8B8B8B0FC088EC90E053
:103B90009A8B898B89899A890197F1F79A8B898BFE
:103BA0008B899C8901979C8B8B8B8B899C89009737
:103BB00069F714C06D897E898F89988D0E944900AC
:103BC000DC01CB019C8B8B8B8B899C89988B8F879D
:103BD0008F8598890197F1F7988B8F8780E065E052
:103BE00040E00E94070E80E090E0A0EAB0E48B87FE
:103BF0009C87AD87BE876B857C858D859E8520E003
:103C000030E04AEF54E40E941F02DC01CB018F83B5
:103C10009887A987BA876F81788589859A8520E0FA
:103C200030E040E85FE30E94790388232CF481E0D0
:103C300090E09E838D833FC06F81788589859A85CA
:103C400020E03FEF4FE757E40E94190318164CF5A8
:103C50006B857C858D859E8520E030E040E251E4D7
:103C60000E941F02DC01CB01BC01CD010E94490072
:103C7000DC01CB019E838D830FC088EC90E09C8398
:103C80008B838B819C810197F1F79C838B838D8142
:103C90009E8101979E838D838D819E81009769F718
:103CA00014C06F81788589859A850E944900DC015E
:103CB000CB019E838D838D819E819A8389838981A7
:103CC0009A810197F1F79A838983AB960FB6F8949E
:103CD000DEBF0FBECDBFCF91DF910895DF93CF93AD
:103CE000CDB7DEB781E00E94C61ACF91DF9108956B
:103CF000DF93CF9300D0CDB7DEB79A8389830AC014
:103D0000E981FA8180810E949A1C89819A810196B9
:103D10009A838983E981FA818081882389F70F90CA
:103D20000F90CF91DF910895DF93CF9300D000D013
:103D300000D0CDB7DEB78D836E8380E8898380ECB9
:103D40008A8380E98B8380ED8C838D81282F30E0FE
:103D5000CE010196FC01E20FF31F90818E81890F45
:103D60000E94C61A26960FB6F894DEBF0FBECDBFCE
:103D7000CF91DF910895DF93CF93CDB7DEB76097F2
:103D80000FB6F894DEBF0FBECDBF6D877E878F87DD
:103D9000988B8D859E85AF85B8890097A105B10563
:103DA00021F480E30E949A1C65C08D859E85AF85B5
:103DB000B889181619061A061B060CF05BC01A8281
:103DC00019828AE0FE013396DF01982F1D929A95A1
:103DD000E9F730C08D859E85AF85B8892AE030E04F
:103DE00040E050E0BC01CD010E945621DC01CB0136
:103DF00089838A81282F332727FD3095CE010396AA
:103E0000FC01E20FF31F898180838A818F5F8A839F
:103E10008D859E85AF85B8892AE030E040E050E08E
:103E2000BC01CD010E945621DA01C9018D879E8710
:103E3000AF87B88B8D859E85AF85B8890097A10522
:103E4000B10541F68A8181508A8311C08A81282F69
:103E5000332727FD3095CE010396FC01E20FF31FB7
:103E60008081805D0E949A1C8A8181508A838A8128
:103E7000882364F760960FB6F894DEBF0FBECDBFFF
:103E8000CF91DF910895DF93CF93CDB7DEB727971A
:103E90000FB6F894DEBF0FBECDBF9C838B836D83BE
:103EA0004E832F838E816F810E94941E8D810E948C
:103EB0009A1C8D81883018F58D81882F90E0880FAD
:103EC000991F880F991F880F991F8A838A818064A0
:103ED0008A838A810E94C61A19820EC08981282F7E
:103EE00030E08B819C81FC01E20FF31F80810E94F6
:103EF0009A1C89818F5F89838981883078F382E079
:103F00000E94C61A27960FB6F894DEBF0FBECDBF2B
:103F1000CF91DF910895DF93CF93CDB7DEB780E0E7
:103F200064E041E00E94150D80E065E041E00E9400
:103F3000150D80E066E041E00E94150D80E067E02D
:103F400041E00E94150D80E064E041E00E94070E10
:103F500080E065E041E00E94070E80E066E041E01D
:103F60000E94070E80E067E041E00E94070E82E0B9
:103F700062E040E00E94150D82E063E040E00E94B4
:103F8000150D82E064E040E00E94150D82E065E0DE
:103F900040E00E94150DCF91DF910895DF93CF93FC
:103FA000CDB7DEB762970FB6F894DEBF0FBECDBFB8
:103FB0001A8A198A188A81E08F8784E0898BB8C0B1
:103FC00080E0698940E00E94070E82E0888BA4C0EF
:103FD00082E068890E947B0F8F878F85882309F094
:103FE00098C080E090E0A0EFB2E48B879C87AD871B
:103FF000BE876B857C858D859E8520E030E04AEF0D
:1040000054E40E941F02DC01CB018F839887A987AB
:10401000BA876F81788589859A8520E030E040E80D
:104020005FE30E94790388232CF481E090E09E8373
:104030008D833FC06F81788589859A8520E03FEF29
:104040004FE757E40E94190318164CF56B857C85E1
:104050008D859E8520E030E040E251E40E941F0201
:10406000DC01CB01BC01CD010E944900DC01CB0188
:104070009E838D830FC088EC90E09C838B838B8123
:104080009C810197F1F79C838B838D819E810197A1
:104090009E838D838D819E81009769F714C06F8107
:1040A000788589859A850E944900DC01CB019E8331
:1040B0008D838D819E819A83898389819A810197DD
:1040C000F1F79A83898382E068890E947B0F8F874A
:1040D0008F858823F1F482E068890E947B0F882312
:1040E000D1F38989882F90E0AC01445050408889F1
:1040F000882F90E09C0122503040CA01880F991F00
:10410000880F991F820F931FFC01E859FF4F808190
:104110008A8B88898F5F888B8889863008F458CF8E
:1041200080E0698941E00E94070E89898F5F898B51
:104130008989883008F444CF8A8962960FB6F8944A
:10414000DEBF0FBECDBFCF91DF910895DF93CF9338
:1041500000D00F92CDB7DEB78A836B838A816B81E3
:104160000E947B0F898389810F900F900F90CF91D0
:10417000DF910895DF93CF9300D00F92CDB7DEB7D4
:1041800089836A830F900F900F90CF91DF910895EC
:104190000F93DF93CF93CDB7DEB727970FB6F89481
:1041A000DEBF0FBECDBF89836A834B832C830D8313
:1041B00089816A8141E00E94150D8B816C8141E00B
:1041C0000E94150D8D81282F30E03F832E838E8134
:1041D0009F81009731F02E813F812130310561F0C0
:1041E00015C089816A8141E00E94070E8B816C8134
:1041F00040E00E94070E0AC089816A8140E00E9467
:10420000070E8B816C8141E00E94070E27960FB646
:10421000F894DEBF0FBECDBFCF91DF910F9108950F
:10422000DF93CF93CDB7DEB7FFCF629FD001739FEF
:10423000F001829FE00DF11D649FE00DF11D929F42
:10424000F00D839FF00D749FF00D659FF00D992781
:10425000729FB00DE11DF91F639FB00DE11DF91FA5
:10426000BD01CF0111240895A1E21A2EAA1BBB1B88
:10427000FD010DC0AA1FBB1FEE1FFF1FA217B30732
:10428000E407F50720F0A21BB30BE40BF50B661F48
:10429000771F881F991F1A9469F76095709580950C
:1042A00090959B01AC01BD01CF01089597FB092EAC
:1042B00005260ED057FD04D0D7DF0AD0001C38F4F5
:1042C00050954095309521953F4F4F4F5F4F089542
:1042D000F6F790958095709561957F4F8F4F9F4F22
:1042E00008952F923F924F925F926F927F928F929A
:1042F0009F92AF92BF92CF92DF92EF92FF920F9375
:104300001F93CF93DF93CDB7DEB7CA1BDB0B0FB67E
:10431000F894DEBF0FBECDBF09942A88398848883B
:104320005F846E847D848C849B84AA84B984C884D1
:10433000DF80EE80FD800C811B81AA81B981CE0FC8
:10434000D11D0FB6F894DEBF0FBECDBFED010895AD
:04435000F894FFCF0F
:1043540000000000000000003738392F3435362AB9
:084364003132332D43303D2BB3
:00000001FF
