:100000000C942A000C9447000C9447000C94470071
:100010000C9447000C9447000C9447000C94470044
:100020000C9447000C9447000C9447000C94470034
:100030000C94F6070C94FB060C9447000C942807CC
:100040000C9447000C9447000C9447000C94470014
:100050000C94470011241FBECFE5D8E0DEBFCDBF12
:1000600010E0A0E6B0E0E8E8F6E202C005900D92EC
:10007000A837B107D9F710E0A8E7B0E001C01D929A
:10008000AE37B107E1F70E9432120C9442130C9480
:100090000000EF92FF920F931F937B018C0120E0F1
:1000A00030E040E05FE40E94490388238CF0C801FF
:1000B000B70120E030E040E05FE40E94C1010E940F
:1000C000A9039B01AC01205030404040504806C07D
:1000D000C801B7010E94A9039B01AC01B901CA0183
:1000E0001F910F91FF90EF900895A0E0B0E0EBE733
:1000F000F0E00C940B13DC012B01FA019C9192307F
:1001000008F439C1EB018881823008F433C194309E
:1001100069F4843009F02FC111969C91119789815F
:10012000981709F428C1A0E6B0E025C1843009F48D
:1001300021C18230A9F4923009F01DC19A01AD01AC
:1001400088E0EA010990AE01E90109929E0181501F
:10015000C1F7E201898111969C918923818308C1AD
:10016000923009F407C112962D903C901397EB0141
:100170008A819B811496AD90BD90CD90DC901797AD
:10018000EC80FD800E811F819101281B390BB90184
:1001900037FF04C066277727621B730B6032710537
:1001A0000CF061C0121613066CF537014801062EDB
:1001B00004C096948794779467940A94D2F721E0C8
:1001C00030E040E050E004C0220F331F441F551FB1
:1001D0006A95D2F721503040404050402E213F21B7
:1001E00040235123211531054105510521F021E01E
:1001F00030E040E050E079018A01E628F72808293C
:1002000019293CC0232BD1F1260E371E350146019A
:10021000062E04C096948794779467940A94D2F734
:1002200021E030E040E050E004C0220F331F441FC3
:10023000551F6A95D2F721503040404050402A2146
:100240003B214C215D21211531054105510521F04E
:1002500021E030E040E050E059016A01A628B728CB
:10026000C828D9280BC0821593052CF01C01AA249C
:10027000BB24650103C0EE24FF24870111969C91E5
:10028000D20111968C91981709F445C0992339F041
:10029000A80197012A193B094C095D0906C0A6016E
:1002A00095012E193F09400B510B57FD08C01182D3
:1002B0003382228224833583468357831DC081E0A5
:1002C00081833382228288279927DC01821B930B4A
:1002D000A40BB50B84839583A683B7830DC0220F2F
:1002E000331F441F551F24833583468357838281E0
:1002F000938101979383828324813581468157813D
:10030000DA01C9010197A109B1098F5F9F4FAF4F72
:10031000BF4328F30BC0918333822282EA0CFB1C7B
:100320000C1D1D1DE482F5820683178383E0808304
:10033000248135814681578157FF1AC0C901AA27F8
:1003400097FDA095BA2F81709070A070B0705695EF
:10035000479537952795822B932BA42BB52B848318
:100360009583A683B7838281938101969383828349
:10037000DF0101C0D201CD01CDB7DEB7E2E10C94BF
:100380002713A0E2B0E0E7ECF1E00C9417136983C7
:100390007A838B839C832D833E834F835887E9E048
:1003A000EE2EF12CEC0EFD1ECE010196B7010E943F
:1003B000D2048E010F5E1F4FCE010596B8010E9438
:1003C000D2048A8991E089278A8BC701B801AE01DE
:1003D000475E5F4F0E9475000E94FD03A096E6E015
:1003E0000C943313A0E2B0E0E8EFF1E00C941713A3
:1003F00069837A838B839C832D833E834F835887C5
:10040000F9E0EF2EF12CEC0EFD1ECE010196B701A6
:100410000E94D2048E010F5E1F4FCE010596B801D7
:100420000E94D204C701B801AE01475E5F4F0E942F
:1004300075000E94FD03A096E6E00C943313A0E241
:10044000B0E0E5E2F2E00C940B1369837A838B83CE
:100450009C832D833E834F835887CE010196BE0136
:10046000675F7F4F0E94D204CE010596BE016F5E8A
:100470007F4F0E94D2049985923088F0898982301A
:10048000C8F0943019F4823051F404C0843029F457
:10049000923081F480E690E0C6C0923049F420E0CA
:1004A0009A858A89981321E02A87CE010996BBC0D4
:1004B000823049F420E09A858A89981321E02A8BBA
:1004C000CE014196B0C02D843E844F8458886D88FB
:1004D0007E888F88988CEE24FF248701AA24BB2471
:1004E000650140E050E060E070E0E0E0F0E0C10174
:1004F00081709070892BE9F0E60CF71C081D191D1E
:100500009A01AB012A0D3B1D4C1D5D1D80E090E062
:10051000A0E0B0E0E614F7040805190520F481E036
:1005200090E0A0E0B0E0BA01A901480F591F6A1F8E
:100530007B1FAA0CBB1CCC1CDD1C97FE08C081E0F5
:1005400090E0A0E0B0E0A82AB92ACA2ADB2A3196B6
:10055000E032F10549F0660C771C881C991C569412
:10056000479437942794C3CFFA85EA892B893C892D
:100570008B859C85280F391F2E5F3F4F17C0CA01FE
:1005800081709070892B61F016950795F794E79428
:1005900080E090E0A0E0B0E8E82AF92A0A2B1B2BC3
:1005A00076956795579547952F5F3F4F77FDE7CF36
:1005B0000CC0440F551F661F771F17FD4160EE0CDE
:1005C000FF1C001F111F21503040403090E05907A0
:1005D00090E0690790E4790760F32B8F3C8FDB0193
:1005E000CA018F779070A070B07080349105A1051A
:1005F000B10561F447FD0AC0E114F10401051105DC
:1006000029F0405C5F4F6F4F7F4F40781A8EFE1786
:1006100011F081E08A8F4D8F5E8F6F8F78A383E01A
:10062000898FCE0149960E94FD03A096E2E10C94C9
:100630002713A8E1B0E0EFE1F3E00C94171369830E
:100640007A838B839C832D833E834F83588789E0F5
:10065000E82EF12CEC0EFD1ECE010196B7010E9492
:10066000D2048E010F5E1F4FCE010596B8010E9485
:10067000D2048985823040F08989823028F0C70110
:10068000B8010E944A0501C08FEF6896E6E00C941D
:100690003313A8E1B0E0EFE4F3E00C94171369839F
:1006A0007A838B839C832D833E834F83588789E095
:1006B000E82EF12CEC0EFD1ECE010196B7010E9432
:1006C000D2048E010F5E1F4FCE010596B8010E9425
:1006D000D2048985823040F08989823028F0C701B0
:1006E000B8010E944A0501C08FEF6896E6E00C94BD
:1006F0003313A8E1B0E0EFE7F3E00C94171369833C
:100700007A838B839C832D833E834F83588789E034
:10071000E82EF12CEC0EFD1ECE010196B7010E94D1
:10072000D2048E010F5E1F4FCE010596B8010E94C4
:10073000D2048985823040F08989823028F0C7014F
:10074000B8010E944A0501C081E06896E6E00C9479
:100750003313ACE0B0E0EFEAF3E00C941B136983D1
:100760007A838B839C83CE010196BE016B5F7F4FA2
:100770000E94D2048D81823061F1823050F1843048
:1007800021F48E81882351F12EC02F81388537FDC9
:1007900020C06E812F3131051CF06623F9F023C093
:1007A0008EE190E0821B930B29853A854B855C8511
:1007B00004C056954795379527958A95D2F76623B5
:1007C000B1F050954095309521953F4F4F4F5F4F79
:1007D0000EC020E030E040E050E009C02FEF3FEFD6
:1007E0004FEF5FE704C020E030E040E050E8B9019F
:1007F000CA012C96E2E00C943713DF92EF92FF923D
:100800000F931F93FC01E480F58006811781D1804E
:100810008081823048F480E090E0A0E1B0E0E82AF6
:10082000F92A0A2B1B2BA5C0843009F49FC0823003
:1008300021F4EE24FF24870105C0E114F104010531
:10084000110519F4E0E0F0E096C0628173819FEF3A
:10085000623879070CF05BC022E83FEF261B370BAC
:100860002A3131052CF020E030E040E050E02AC091
:10087000B801A701022E04C0769567955795479554
:100880000A94D2F781E090E0A0E0B0E004C0880FC5
:10089000991FAA1FBB1F2A95D2F70197A109B10979
:1008A0008E219F21A023B1230097A105B10521F03E
:1008B00081E090E0A0E0B0E09A01AB01282B392B59
:1008C0004A2B5B2BDA01C9018F779070A070B07052
:1008D00080349105A105B10539F427FF09C0205CDA
:1008E0003F4F4F4F5F4F04C0215C3F4F4F4F5F4F13
:1008F000E0E0F0E02030A0E03A07A0E04A07A0E402
:100900005A0710F0E1E0F0E079018A0127C0603871
:10091000710564F5FB01E158FF4FD801C7018F77DE
:100920009070A070B07080349105A105B10539F4C4
:10093000E7FE0DC080E490E0A0E0B0E004C08FE3EB
:1009400090E0A0E0B0E0E80EF91E0A1F1B1F17FFA1
:1009500005C016950795F794E794319687E01695AC
:100960000795F794E7948A95D1F705C0EE24FF2404
:100970008701EFEFF0E06E2F679566276795902F60
:100980009F77D794DD24D7948E2F8695492F462BB9
:10099000582F5D29B701CA011F910F91FF90EF9069
:1009A000DF900895FC01DB01408151812281622F9B
:1009B0006F7770E0221F2227221F9381892F880FD3
:1009C000822B282F30E0991F9927991F11969C930D
:1009D000119721153105A9F54115510561057105DD
:1009E00011F482E037C082E89FEF13969C938E93B8
:1009F00012979A01AB0167E0220F331F441F551F66
:100A00006A95D1F783E08C930DC0220F331F441FEA
:100A1000551F12968D919C911397019713969C9355
:100A20008E931297203080E0380780E0480780E4FA
:100A3000580758F314962D933D934D935C93179755
:100A400008952F3F310579F4411551056105710570
:100A500019F484E08C93089564FF03C081E08C93C3
:100A600012C01C9210C02F57304013963C932E9307
:100A7000129783E08C9387E0440F551F661F771F02
:100A80008A95D1F7706414964D935D936D937C9322
:100A9000179708951F93DC01FB019C91923008F495
:100AA00047C08081823008F443C0943051F41196DD
:100AB0001C91843099F58181682F70E0611B710968
:100AC0003FC0843021F0923031F48230B9F181811D
:100AD000882389F12DC011961C9111978230F1F075
:100AE00081811817D9F412962D913C911397828128
:100AF00093818217930794F028173907BCF0149656
:100B00008D919D910D90BC91A02D248135814681C0
:100B10005781281739074A075B0718F4112341F05A
:100B20000AC082179307A407B50740F4112319F0F0
:100B300061E070E005C06FEF7FEF02C060E070E041
:100B4000CB011F910895DF93CF930F92CDB7DEB7FE
:100B500080E889838981826089838981846089832F
:100B60008981877F898389818F7E898389818F7D30
:100B7000898389818F7B8983E0E4F0E089818083A8
:100B8000E9E2F0E083E38083AAE2B0E0EAE2F0E0A9
:100B9000808188608C93AAE2B0E0EAE2F0E0808194
:100BA00080618C930F90CF91DF910895DF93CF9365
:100BB0000F92CDB7DEB78983ECE2F0E089818083C4
:100BC000EBE2F0E08081829586958770882F90E037
:100BD000817090700097A1F30F90CF91DF910895ED
:100BE000DF93CF93CDB7DEB7EBE2F0E080818823CF
:100BF000DCF7ECE2F0E08081CF91DF910895DF93A4
:100C0000CF9300D00F92CDB7DEB79B838A83198232
:100C10000EC08981282F30E08A819B81FC01E20F80
:100C2000F31F80810E94D60589818F5F8983898126
:100C3000282F30E08A819B81FC01E20FF31F808125
:100C4000882339F70F900F900F90CF91DF9108957F
:100C50000F931F93DF93CF9300D00F92CDB7DEB7E2
:100C60009B838A8319828981282F30E08A819B8126
:100C70008C01020F131F0E94F005F80180830FC042
:100C800089818F5F89838981282F30E08A819B81C8
:100C90008C01020F131F0E94F005F80180838981E7
:100CA000282F30E08A819B81FC01E20FF31F8081B5
:100CB000833231F78981282F30E08A819B81FC01C2
:100CC000E20FF31F10820F900F900F90CF91DF91E2
:100CD0001F910F910895DF93CF9300D00F92CDB75E
:100CE000DEB78983AFE5B0E0EFE5F0E080818068B2
:100CF0008C938981282F30E03B832A838A819B81D2
:100D0000009731F02A813B812130310549F00FC035
:100D1000AAE2B0E0EAE2F0E0808180648C9307C050
:100D2000AAE2B0E0EAE2F0E0808180688C930F9064
:100D30000F900F90CF91DF910895DF93CF9300D064
:100D40000F92CDB7DEB789838981282F30E03B83AE
:100D50002A838A819B81009731F02A813B8121304F
:100D6000310549F00FC0AAE2B0E0EAE2F0E080818C
:100D70008F7B8C9307C0AAE2B0E0EAE2F0E08081CA
:100D80008F778C930F900F900F90CF91DF910895F4
:100D9000DF93CF930F92CDB7DEB78983ECE2F0E01B
:100DA000898180830F90CF91DF910895DF93CF9356
:100DB000CDB7DEB7ECE2F0E08081CF91DF9108950E
:100DC000DF93CF9300D00F92CDB7DEB789837B83BB
:100DD0006A838981882F90E0880F991FFC01E85869
:100DE000FF4F8A819B81918380830F900F900F909A
:100DF000CF91DF9108951F920F920FB60F92112499
:100E00002F933F934F935F936F937F938F939F9312
:100E1000AF93BF93EF93FF93DF93CF93CDB7DEB73D
:100E2000E0917A00F0917B000995CF91DF91FF91DD
:100E3000EF91BF91AF919F918F917F916F915F9152
:100E40004F913F912F910F900FBE0F901F901895CB
:100E50001F920F920FB60F9211242F933F934F932F
:100E60005F936F937F938F939F93AF93BF93EF9312
:100E7000FF93DF93CF93CDB7DEB7E0917800F09189
:100E800079000995CF91DF91FF91EF91BF91AF91DB
:100E90009F918F917F916F915F914F913F912F9192
:100EA0000F900FBE0F901F901895DF93CF93CDB783
:100EB000DEB7ADE2B0E0EDE2F0E0808180628C93DD
:100EC000ADE2B0E0EDE2F0E080818F7E8C93ADE2A8
:100ED000B0E0EDE2F0E0808180648C93CF91DF910F
:100EE0000895DF93CF930F92CDB7DEB78983EFE2FA
:100EF000F0E089818083EEE2F0E080818823DCF7F6
:100F00000F90CF91DF910895DF93CF93CDB7DEB7E8
:100F1000EEE2F0E080818823DCF7EFE2F0E0808110
:100F2000CF91DF910895DF93CF930F92CDB7DEB7C6
:100F30008983EFE2F0E089818083EEE2F0E0808156
:100F40008823DCF7EFE2F0E080810F90CF91DF9112
:100F50000895DF93CF93CDB7DEB7AFE5B0E0EFE50F
:100F6000F0E0808180688C93ADE2B0E0EDE2F0E0EB
:100F7000808180688C93CF91DF910895DF93CF9328
:100F8000CDB7DEB7ADE2B0E0EDE2F0E080818F7783
:100F90008C93CF91DF910895DF93CF930F92CDB7CC
:100FA000DEB78983EFE2F0E0898180830F90CF91F3
:100FB000DF910895DF93CF93CDB7DEB7EFE2F0E096
:100FC0008081CF91DF910895DF93CF9300D0CDB78B
:100FD000DEB79A83898389819A8190937D0080937B
:100FE0007C000F900F90CF91DF9108951F920F9288
:100FF0000FB60F9211242F933F934F935F936F93EC
:101000007F938F939F93AF93BF93EF93FF93DF9360
:10101000CF93CDB7DEB7E0917C00F0917D000995CC
:10102000CF91DF91FF91EF91BF91AF919F918F9100
:101030007F916F915F914F913F912F910F900FBED4
:101040000F901F901895DF93CF93CDB7DEB7E0E2F6
:10105000F0E082E08083A1E2B0E0E1E2F0E08081B4
:101060008E7F8C93A1E2B0E0E1E2F0E080818D7FA1
:101070008C93A6E5B0E0E6E5F0E0808180648C9397
:10108000A6E5B0E0E6E5F0E0808184608C93CF9146
:10109000DF910895DF93CF93CDB7DEB7E6E5F0E0BB
:1010A00084EA8083E6E5F0E080818823DCF7CF9155
:1010B000DF910895DF93CF93CDB7DEB7E6E5F0E09B
:1010C00084EA8083E6E5F0E080818823DCF7CF9135
:1010D000DF910895DF93CF93CDB7DEB7A6E5B0E0FB
:1010E000E6E5F0E0808180618C93A6E5B0E0E6E57E
:1010F000F0E0808180688C93A6E5B0E0E6E5F0E062
:10110000808184608C93CF91DF910895DF93CF939A
:101110000F92CDB7DEB78983E3E2F0E08981808367
:10112000A3E2B0E0E3E2F0E080818E7F8C93A6E55D
:10113000B0E0E6E5F0E0808180688C93E6E5F0E0E1
:1011400080818823DCF70F90CF91DF910895DF93A2
:10115000CF930F92CDB7DEB78983E3E2F0E08981C8
:101160008083A3E2B0E0E3E2F0E0808181608C93D1
:10117000A6E5B0E0E6E5F0E0808180688C93E6E5E6
:10118000F0E080818823DCF70F90CF91DF91089504
:10119000DF93CF930F92CDB7DEB78983E3E2F0E020
:1011A00089818083E6E5F0E084E88083E6E5F0E08D
:1011B00080818823DCF70F90CF91DF910895DF9332
:1011C000CF93CDB7DEB7E6E5F0E084E88083E6E5CF
:1011D000F0E080818823DCF7E3E2F0E08081CF91CA
:1011E000DF910895DF93CF93CDB7DEB70E94230838
:1011F000CF91DF910895DF93CF9300D00F92CDB7B9
:10120000DEB789836A834B830E944A0889810E94E2
:1012100086088A810E94C8088B810E94C8080E94A3
:101220006A080F900F900F90CF91DF910895DF9390
:10123000CF9300D000D0CDB7DEB789836A835C83BB
:101240004B830E944A0889810E9486088A810E94F5
:10125000C8080E945A0889810E94A7080E94DF08D6
:10126000EB81FC8180830E946A080F900F900F90A1
:101270000F90CF91DF910895DF93CF9300D000D0EE
:101280000F92CDB7DEB789836A834B838981282F7C
:1012900030E03D832C838C819D818130910509F460
:1012A00047C02C813D81223031052CF48C819D81F9
:1012B000009771F0CBC02C813D812230310509F4BB
:1012C00067C08C819D818330910509F491C0BEC0B7
:1012D0008B818130A1F4AAE3B0E0EAE3F0E0808101
:1012E000482F8A81282F30E081E090E0022E02C052
:1012F000880F991F0A94E2F7842B8C93A7C08B81E7
:10130000882309F0A3C0AAE3B0E0EAE3F0E080811B
:10131000482F8A81282F30E081E090E0022E02C021
:10132000880F991F0A94E2F7809584238C938EC0CE
:101330008B818130A1F4A7E3B0E0E7E3F0E08081A6
:10134000482F8A81282F30E081E090E0022E02C0F1
:10135000880F991F0A94E2F7842B8C9377C08B81B6
:10136000882309F073C0A7E3B0E0E7E3F0E08081F1
:10137000482F8A81282F30E081E090E0022E02C0C1
:10138000880F991F0A94E2F7809584238C935EC09E
:101390008B818130A1F4A4E3B0E0E4E3F0E080814C
:1013A000482F8A81282F30E081E090E0022E02C091
:1013B000880F991F0A94E2F7842B8C9347C08B8186
:1013C000882309F043C0A4E3B0E0E4E3F0E08081C7
:1013D000482F8A81282F30E081E090E0022E02C061
:1013E000880F991F0A94E2F7809584238C932EC06E
:1013F0008B818130A1F4A1E3B0E0E1E3F0E08081F2
:10140000482F8A81282F30E081E090E0022E02C030
:10141000880F991F0A94E2F7842B8C9317C08B8155
:101420008823A1F4A1E3B0E0E1E3F0E08081482F5C
:101430008A81282F30E081E090E0022E02C0880FE0
:10144000991F0A94E2F7809584238C930F900F9054
:101450000F900F900F90CF91DF910895DF93CF936E
:1014600000D000D00F92CDB7DEB789836A834B835B
:101470008981282F30E03D832C838C819D818130B0
:10148000910509F447C02C813D81223031052CF4AF
:101490008C819D81009771F0CBC02C813D812230E1
:1014A000310509F467C08C819D818330910509F471
:1014B00091C0BEC08B818130A1F4ABE3B0E0EBE31F
:1014C000F0E08081482F8A81282F30E081E090E091
:1014D000022E02C0880F991F0A94E2F7842B8C9386
:1014E000A7C08B81882309F0A3C0ABE3B0E0EBE396
:1014F000F0E08081482F8A81282F30E081E090E061
:10150000022E02C0880F991F0A94E2F78095842367
:101510008C938EC08B818130A1F4A8E3B0E0E8E326
:10152000F0E08081482F8A81282F30E081E090E030
:10153000022E02C0880F991F0A94E2F7842B8C9325
:1015400077C08B81882309F073C0A8E3B0E0E8E39B
:10155000F0E08081482F8A81282F30E081E090E000
:10156000022E02C0880F991F0A94E2F78095842307
:101570008C935EC08B818130A1F4A5E3B0E0E5E3FC
:10158000F0E08081482F8A81282F30E081E090E0D0
:10159000022E02C0880F991F0A94E2F7842B8C93C5
:1015A00047C08B81882309F043C0A5E3B0E0E5E3A1
:1015B000F0E08081482F8A81282F30E081E090E0A0
:1015C000022E02C0880F991F0A94E2F780958423A7
:1015D0008C932EC08B818130A1F4A2E3B0E0E2E3D2
:1015E000F0E08081482F8A81282F30E081E090E070
:1015F000022E02C0880F991F0A94E2F7842B8C9365
:1016000017C08B818823A1F4A2E3B0E0E2E3F0E00D
:101610008081482F8A81282F30E081E090E0022EDF
:1016200002C0880F991F0A94E2F7809584238C9357
:101630000F900F900F900F900F90CF91DF91089522
:10164000DF93CF9300D000D0CDB7DEB789836A8314
:101650008981282F30E03C832B838B819C818130D2
:101660009105D1F02B813C81223031052CF48B8106
:101670009C81009761F01EC02B813C812230310596
:1016800081F08B819C818330910581F013C0EAE366
:10169000F0E08A8180830EC0E7E3F0E08A818083F6
:1016A00009C0E4E3F0E08A81808304C0E1E3F0E074
:1016B0008A8180830F900F900F900F90CF91DF91D0
:1016C0000895DF93CF9300D000D0CDB7DEB78983E4
:1016D0006A838981282F30E03C832B838B819C8116
:1016E00081309105D1F02B813C81223031052CF4E1
:1016F0008B819C81009761F01EC02B813C81223040
:10170000310581F08B819C818330910581F013C07C
:10171000EBE3F0E08A8180830EC0E8E3F0E08A81A9
:10172000808309C0E5E3F0E08A81808304C0E2E3BE
:10173000F0E08A8180830F900F900F900F90CF91EF
:10174000DF910895DF93CF9300D000D00F92CDB7F3
:10175000DEB78A836B838A81282F30E03D832C8318
:101760004C815D814130510541F18C819D818230F8
:10177000910534F42C813D812115310561F052C071
:101780004C815D814230510551F18C819D818330C6
:101790009105B9F147C0E9E3F0E08081282F30E0FE
:1017A0008B81882F90E0A90102C0559547958A95B5
:1017B000E2F7CA018170898335C0E6E3F0E08081F9
:1017C000282F30E08B81882F90E0A90102C0559529
:1017D00047958A95E2F7CA018170898323C0E3E3C4
:1017E000F0E08081282F30E08B81882F90E0A901E4
:1017F00002C0559547958A95E2F7CA0181708983A1
:1018000011C0E0E3F0E08081282F30E08B81882F49
:1018100090E0A90102C0559547958A95E2F7CA0163
:101820008170898389810F900F900F900F900F9096
:10183000CF91DF910895DF93CF93CDB7DEB72E9789
:101840000FB6F894DEBF0FBECDBF80E065E041E08B
:101850000E943C0980E064E041E00E943C0980E095
:1018600060E041E00E943C0980E061E041E00E94CC
:101870003C0980E062E041E00E943C0980E063E0D6
:1018800041E00E943C0980E090E0A8ECB2E48B8744
:101890009C87AD87BE876B857C858D859E8520E086
:1018A00030E04AEF54E40E941F02DC01CB018F8339
:1018B0009887A987BA876F81788589859A8520E07E
:1018C00030E040E85FE30E94790388232CF481E054
:1018D00090E09E838D833FC06F81788589859A854E
:1018E00020E03FEF4FE757E40E94190318164CF52C
:1018F0006B857C858D859E8520E030E040E251E45B
:101900000E941F02DC01CB01BC01CD010E944900F5
:10191000DC01CB019E838D830FC088EC90E09C831B
:101920008B838B819C810197F1F79C838B838D81C5
:101930009E8101979E838D838D819E81009769F79B
:1019400014C06F81788589859A850E944900DC01E1
:10195000CB019E838D838D819E819A83898389812A
:101960009A810197F1F79A83898383E30E94D30CCC
:1019700082E30E94D30C88E20E94D30C8CE00E9488
:10198000D30C82E00E94D30C81E00E94D30C86E04D
:101990000E94D30C2E960FB6F894DEBF0FBECDBFBB
:1019A000CF91DF910895DF93CF93CDB7DEB7AB979B
:1019B0000FB6F894DEBF0FBECDBF8BA780E064E00A
:1019C00040E00E942E0A8BA582958F70982F91700F
:1019D00080E060E0492F0E942E0A8BA582958695B3
:1019E0008770982F917080E061E0492F0E942E0A45
:1019F0008BA58295869586958370982F917080E04F
:101A000062E0492F0E942E0A8BA5982F991F9927D3
:101A1000991F80E063E0492F0E942E0A80E065E074
:101A200041E00E942E0A80E090E0A0E8BFE38FA38F
:101A300098A7A9A7BAA76FA178A589A59AA520E01C
:101A400030E04AEF54E40E941F02DC01CB018BA37B
:101A50009CA3ADA3BEA36BA17CA18DA19EA120E000
:101A600030E040E85FE30E94790388232CF481E0B2
:101A700090E09AA389A33FC06BA17CA18DA19EA1F8
:101A800020E03FEF4FE757E40E94190318164CF58A
:101A90006FA178A589A59AA520E030E040E251E445
:101AA0000E941F02DC01CB01BC01CD010E94490054
:101AB000DC01CB019AA389A30FC088EC90E098A326
:101AC0008F8F8F8D98A10197F1F798A38F8F89A1A0
:101AD0009AA101979AA389A389A19AA1009769F76E
:101AE00014C06BA17CA18DA19EA10E944900DC01C4
:101AF000CB019AA389A389A19AA19E8F8D8F8D8DE9
:101B00009E8D0197F1F79E8F8D8F80E065E040E01C
:101B10000E942E0A8BA5982F917080E060E0492FDB
:101B20000E942E0A8BA58695982F917080E061E027
:101B3000492F0E942E0A8BA586958695982F917025
:101B400080E062E0492F0E942E0A8BA5869586953B
:101B50008695982F917080E063E0492F0E942E0AAD
:101B600080E065E041E00E942E0A80E090E0A0E87D
:101B7000BFE3898F9A8FAB8FBC8F698D7A8D8B8DE8
:101B80009C8D20E030E04AEF54E40E941F02DC010B
:101B9000CB018D8B9E8BAF8BB88F6D897E898F89A2
:101BA000988D20E030E040E85FE30E9479038823CD
:101BB0002CF481E090E09C8B8B8B3FC06D897E89FB
:101BC0008F89988D20E03FEF4FE757E40E9419037B
:101BD00018164CF5698D7A8D8B8D9C8D20E030E048
:101BE00040E251E40E941F02DC01CB01BC01CD01A7
:101BF0000E944900DC01CB019C8B8B8B0FC088ECD1
:101C000090E09A8B898B89899A890197F1F79A8B51
:101C1000898B8B899C8901979C8B8B8B8B899C8969
:101C2000009769F714C06D897E898F89988D0E940D
:101C30004900DC01CB019C8B8B8B8B899C89988B19
:101C40008F878F8598890197F1F7988B8F8780E030
:101C500065E040E00E942E0A80E090E0A0EAB0E457
:101C60008B879C87AD87BE876B857C858D859E85A0
:101C700020E030E04AEF54E40E941F02DC01CB0177
:101C80008F839887A987BA876F81788589859A8598
:101C900020E030E040E85FE30E94790388232CF4E1
:101CA00081E090E09E838D833FC06F817885898538
:101CB0009A8520E03FEF4FE757E40E94190318167A
:101CC0004CF56B857C858D859E8520E030E040E27B
:101CD00051E40E941F02DC01CB01BC01CD010E9436
:101CE0004900DC01CB019E838D830FC088EC90E01E
:101CF0009C838B838B819C810197F1F79C838B83E1
:101D00008D819E8101979E838D838D819E81009719
:101D100069F714C06F81788589859A850E9449008A
:101D2000DC01CB019E838D838D819E819A83898383
:101D300089819A810197F1F79A838983AB960FB6CF
:101D4000F894DEBF0FBECDBFCF91DF910895DF9332
:101D5000CF93CDB7DEB7AB970FB6F894DEBF0FBE0B
:101D6000CDBF8BA780E064E041E00E942E0A8BA5E6
:101D700082958F70982F917080E060E0492F0E94CB
:101D80002E0A8BA5829586958770982F917080E09A
:101D900061E0492F0E942E0A8BA582958695869533
:101DA0008370982F917080E062E0492F0E942E0A84
:101DB0008BA5982F991F9927991F80E063E0492FE1
:101DC0000E942E0A80E065E041E00E942E0A80E039
:101DD00090E0A0E8BFE38FA398A7A9A7BAA76FA137
:101DE00078A589A59AA520E030E04AEF54E40E9446
:101DF0001F02DC01CB018BA39CA3ADA3BEA36BA1EF
:101E00007CA18DA19EA120E030E040E85FE30E942C
:101E1000790388232CF481E090E09AA389A33FC042
:101E20006BA17CA18DA19EA120E03FEF4FE757E47D
:101E30000E94190318164CF56FA178A589A59AA5DB
:101E400020E030E040E251E40E941F02DC01CB01BF
:101E5000BC01CD010E944900DC01CB019AA389A3FA
:101E60000FC088EC90E098A38F8F8F8D98A1019779
:101E7000F1F798A38F8F89A19AA101979AA389A3BB
:101E800089A19AA1009769F714C06BA17CA18DA1CB
:101E90009EA10E944900DC01CB019AA389A389A1DC
:101EA0009AA19E8F8D8F8D8D9E8D0197F1F79E8FBC
:101EB0008D8F80E065E040E00E942E0A8BA5982F70
:101EC000917080E060E0492F0E942E0A8BA58695D4
:101ED000982F917080E061E0492F0E942E0A8BA517
:101EE00086958695982F917080E062E0492F0E9438
:101EF0002E0A8BA5869586958695982F917080E001
:101F000063E0492F0E942E0A80E065E041E00E94D4
:101F10002E0A80E090E0A0E8BFE3898F9A8FAB8F14
:101F2000BC8F698D7A8D8B8D9C8D20E030E04AEFDF
:101F300054E40E941F02DC01CB018D8B9E8BAF8B82
:101F4000B88F6D897E898F89988D20E030E040E8D8
:101F50005FE30E94790388232CF481E090E09C8B5E
:101F60008B8B3FC06D897E898F89988D20E03FEFF4
:101F70004FE757E40E94190318164CF5698D7A8DC6
:101F80008B8D9C8D20E030E040E251E40E941F02E6
:101F9000DC01CB01BC01CD010E944900DC01CB0179
:101FA0009C8B8B8B0FC088EC90E09A8B898B8989F6
:101FB0009A890197F1F79A8B898B8B899C89019774
:101FC0009C8B8B8B8B899C89009769F714C06D89DA
:101FD0007E898F89988D0E944900DC01CB019C8B02
:101FE0008B8B8B899C89988B8F878F85988901979C
:101FF000F1F7988B8F8780E065E040E00E942E0A21
:1020000080E090E0A0EAB0E48B879C87AD87BE8734
:102010006B857C858D859E8520E030E04AEF54E419
:102020000E941F02DC01CB018F839887A987BA87A2
:102030006F81788589859A8520E030E040E85FE30C
:102040000E94790388232CF481E090E09E838D83A5
:102050003FC06F81788589859A8520E03FEF4FE703
:1020600057E40E94190318164CF56B857C858D8505
:102070009E8520E030E040E251E40E941F02DC0136
:10208000CB01BC01CD010E944900DC01CB019E8344
:102090008D830FC088EC90E09C838B838B819C8127
:1020A0000197F1F79C838B838D819E8101979E839D
:1020B0008D838D819E81009769F714C06F8178852B
:1020C00089859A850E944900DC01CB019E838D831E
:1020D0008D819E819A83898389819A810197F1F705
:1020E0009A838983AB960FB6F894DEBF0FBECDBF3F
:1020F000CF91DF910895DF93CF93CDB7DEB781E025
:102100000E94D30CCF91DF910895DF93CF9300D03D
:10211000CDB7DEB79A8389830AC0E981FA818081CD
:102120000E94A70E89819A8101969A838983E98109
:10213000FA818081882389F70F900F90CF91DF91EA
:102140000895DF93CF9300D000D000D0CDB7DEB795
:102150008D836E8380E8898380EC8A8380E98B831A
:1021600080ED8C838D81282F30E0CE010196FC011B
:10217000E20FF31F90818E81890F0E94D30C269667
:102180000FB6F894DEBF0FBECDBFCF91DF9108959B
:10219000DF93CF93CDB7DEB760970FB6F894DEBF6D
:1021A0000FBECDBF6D877E878F87988B8D859E856F
:1021B000AF85B8890097A105B10521F480E30E949D
:1021C000A70E65C08D859E85AF85B889181619063E
:1021D0001A061B060CF05BC01A8219828AE0FE0107
:1021E0003396DF01982F1D929A95E9F730C08D85BF
:1021F0009E85AF85B8892AE030E040E050E0BC0120
:10220000CD010E94CE12DC01CB0189838A81282F67
:10221000332727FD3095CE010396FC01E20FF31F13
:10222000898180838A818F5F8A838D859E85AF8532
:10223000B8892AE030E040E050E0BC01CD010E94C6
:10224000CE12DA01C9018D879E87AF87B88B8D8545
:102250009E85AF85B8890097A105B10541F68A81B1
:1022600081508A8311C08A81282F332727FD30951A
:10227000CE010396FC01E20FF31F8081805D0E9476
:10228000A70E8A8181508A838A81882364F76096A9
:102290000FB6F894DEBF0FBECDBFCF91DF9108958A
:1022A000DF93CF93CDB7DEB727970FB6F894DEBF95
:1022B0000FBECDBF9C838B836D834E832F838E8116
:1022C0006F810E94A1108D810E94A70E8D818830A0
:1022D00018F58D81882F90E0880F991F880F991F1E
:1022E000880F991F8A838A8180648A838A810E94E9
:1022F000D30C19820EC08981282F30E08B819C81FC
:10230000FC01E20FF31F80810E94A70E89818F5F7D
:1023100089838981883078F382E00E94D30C2796E4
:102320000FB6F894DEBF0FBECDBFCF91DF910895F9
:10233000DF93CF93CDB7DEB781E060E041E00E944C
:102340003C0981E061E041E00E943C0981E062E0FB
:1023500041E00E943C0981E063E041E00E943C09C9
:1023600081E060E041E00E942E0A81E061E041E00E
:102370000E942E0A81E062E041E00E942E0A81E084
:1023800063E041E00E942E0A82E064E040E00E94A7
:102390003C0982E065E040E00E943C0982E066E0A2
:1023A00040E00E943C0982E067E040E00E943C0976
:1023B000CF91DF910895DF93CF9300D000D0CDB7B8
:1023C000DEB71C821B821A8281E089831B823EC099
:1023D00081E06B8140E00E942E0A84E08A832BC05A
:1023E00082E06A810E94A20B89838981882301F59A
:1023F00082E06A810E94A20B898382E06A810E9446
:10240000A20B8823D1F38B81482F50E08A81882F3B
:1024100090E09C0124503040CA01880F991F880F1A
:10242000991F820F931FFC01E859FF4F80818C8315
:102430008A818F5F8A838A81883090F281E06B8104
:1024400041E00E942E0A8B818F5F8B838B818430C9
:1024500008F4BECF8C810F900F900F900F90CF910A
:10246000DF910895DF93CF93CDB7DEB760970FB6B6
:10247000F894DEBF0FBECDBF83E060E040E00E9475
:102480003C090E94A3050E94F2080E941B0C188AB6
:102490001F869E01205F3F4F80EA6F85A9010E9441
:1024A000170980E061E00E94A11088890E94A70EB0
:1024B00080E090E0A0E2B1E48B879C87AD87BE8787
:1024C0006B857C858D859E8520E030E04AEF54E465
:1024D0000E941F02DC01CB018F839887A987BA87EE
:1024E0006F81788589859A8520E030E040E85FE358
:1024F0000E94790388232CF481E090E09E838D83F1
:102500003FC06F81788589859A8520E03FEF4FE74E
:1025100057E40E94190318164CF56B857C858D8550
:102520009E8520E030E040E251E40E941F02DC0181
:10253000CB01BC01CD010E944900DC01CB019E838F
:102540008D830FC088EC90E09C838B838B819C8172
:102550000197F1F79C838B838D819E8101979E83E8
:102560008D838D819E81009769F714C06F81788576
:1025700089859A850E944900DC01CB019E838D8369
:102580008D819E819A83898389819A810197F1F750
:102590009A8389838F858F5F8F877BCF97FB092EE7
:1025A00005260ED057FD04D014D00AD0001C38F4F4
:1025B00050954095309521953F4F4F4F5F4F08956F
:1025C000F6F790958095709561957F4F8F4F9F4F4F
:1025D0000895A1E21A2EAA1BBB1BFD010DC0AA1F64
:1025E000BB1FEE1FFF1FA217B307E407F50720F07C
:1025F000A21BB30BE40BF50B661F771F881F991FF7
:102600001A9469F760957095809590959B01AC013F
:10261000BD01CF0108952F923F924F925F926F922A
:102620007F928F929F92AF92BF92CF92DF92EF9262
:10263000FF920F931F93CF93DF93CDB7DEB7CA1BE3
:10264000DB0B0FB6F894DEBF0FBECDBF09942A880E
:10265000398848885F846E847D848C849B84AA84B6
:10266000B984C884DF80EE80FD800C811B81AA8143
:10267000B981CE0FD11D0FB6F894DEBF0FBECDBF0E
:08268000ED010895F894FFCF6D
:1026880000000000000000000708092F0405062AC2
:082698000102032D43003D2B5C
:00000001FF
