:100000000C942A000C94BE070C94FD070C943C0839
:100010000C9447000C9447000C9447000C94470044
:100020000C9447000C9447000C9447000C94470034
:100030000C9447000C9447000C9447000C94470024
:100040000C9426060C9447000C9447000C9447002F
:100050000C94470011241FBECFE5D8E0DEBFCDBF12
:1000600010E0A0E6B0E0E0EDF5E302C005900D92EF
:10007000A038B107D9F710E0A0E8B0E001C01D92A8
:10008000AB38B107E1F70E94591A0C94E61A0C94A8
:100090000000EF92FF920F931F937B018C0120E0F1
:1000A00030E040E05FE40E94490388238CF0C801FF
:1000B000B70120E030E040E05FE40E94C1010E940F
:1000C000A9039B01AC01205030404040504806C07D
:1000D000C801B7010E94A9039B01AC01B901CA0183
:1000E0001F910F91FF90EF900895A0E0B0E0EBE733
:1000F000F0E00C94AF1ADC012B01FA019C919230D4
:1001000008F439C1EB018881823008F433C194309E
:1001100069F4843009F02FC111969C91119789815F
:10012000981709F428C1A0E6B0E025C1843009F48D
:1001300021C18230A9F4923009F01DC19A01AD01AC
:1001400088E0EA010990AE01E90109929E0181501F
:10015000C1F7E201898111969C918923818308C1AD
:10016000923009F407C112962D903C901397EB0141
:100170008A819B811496AD90BD90CD90DC901797AD
:10018000EC80FD800E811F819101281B390BB90184
:1001900037FF04C066277727621B730B6032710537
:1001A0000CF061C0121613066CF537014801062EDB
:1001B00004C096948794779467940A94D2F721E0C8
:1001C00030E040E050E004C0220F331F441F551FB1
:1001D0006A95D2F721503040404050402E213F21B7
:1001E00040235123211531054105510521F021E01E
:1001F00030E040E050E079018A01E628F72808293C
:1002000019293CC0232BD1F1260E371E350146019A
:10021000062E04C096948794779467940A94D2F734
:1002200021E030E040E050E004C0220F331F441FC3
:10023000551F6A95D2F721503040404050402A2146
:100240003B214C215D21211531054105510521F04E
:1002500021E030E040E050E059016A01A628B728CB
:10026000C828D9280BC0821593052CF01C01AA249C
:10027000BB24650103C0EE24FF24870111969C91E5
:10028000D20111968C91981709F445C0992339F041
:10029000A80197012A193B094C095D0906C0A6016E
:1002A00095012E193F09400B510B57FD08C01182D3
:1002B0003382228224833583468357831DC081E0A5
:1002C00081833382228288279927DC01821B930B4A
:1002D000A40BB50B84839583A683B7830DC0220F2F
:1002E000331F441F551F24833583468357838281E0
:1002F000938101979383828324813581468157813D
:10030000DA01C9010197A109B1098F5F9F4FAF4F72
:10031000BF4328F30BC0918333822282EA0CFB1C7B
:100320000C1D1D1DE482F5820683178383E0808304
:10033000248135814681578157FF1AC0C901AA27F8
:1003400097FDA095BA2F81709070A070B0705695EF
:10035000479537952795822B932BA42BB52B848318
:100360009583A683B7838281938101969383828349
:10037000DF0101C0D201CD01CDB7DEB7E2E10C94BF
:10038000CB1AA0E2B0E0E7ECF1E00C94BB1A698371
:100390007A838B839C832D833E834F835887E9E048
:1003A000EE2EF12CEC0EFD1ECE010196B7010E943F
:1003B000D2048E010F5E1F4FCE010596B8010E9438
:1003C000D2048A8991E089278A8BC701B801AE01DE
:1003D000475E5F4F0E9475000E94FD03A096E6E015
:1003E0000C94D71AA0E2B0E0E8EFF1E00C94BB1A4D
:1003F00069837A838B839C832D833E834F835887C5
:10040000F9E0EF2EF12CEC0EFD1ECE010196B701A6
:100410000E94D2048E010F5E1F4FCE010596B801D7
:100420000E94D204C701B801AE01475E5F4F0E942F
:1004300075000E94FD03A096E6E00C94D71AA0E296
:10044000B0E0E5E2F2E00C94AF1A69837A838B8323
:100450009C832D833E834F835887CE010196BE0136
:10046000675F7F4F0E94D204CE010596BE016F5E8A
:100470007F4F0E94D2049985923088F0898982301A
:10048000C8F0943019F4823051F404C0843029F457
:10049000923081F480E690E0C6C0923049F420E0CA
:1004A0009A858A89981321E02A87CE010996BBC0D4
:1004B000823049F420E09A858A89981321E02A8BBA
:1004C000CE014196B0C02D843E844F8458886D88FB
:1004D0007E888F88988CEE24FF248701AA24BB2471
:1004E000650140E050E060E070E0E0E0F0E0C10174
:1004F00081709070892BE9F0E60CF71C081D191D1E
:100500009A01AB012A0D3B1D4C1D5D1D80E090E062
:10051000A0E0B0E0E614F7040805190520F481E036
:1005200090E0A0E0B0E0BA01A901480F591F6A1F8E
:100530007B1FAA0CBB1CCC1CDD1C97FE08C081E0F5
:1005400090E0A0E0B0E0A82AB92ACA2ADB2A3196B6
:10055000E032F10549F0660C771C881C991C569412
:10056000479437942794C3CFFA85EA892B893C892D
:100570008B859C85280F391F2E5F3F4F17C0CA01FE
:1005800081709070892B61F016950795F794E79428
:1005900080E090E0A0E0B0E8E82AF92A0A2B1B2BC3
:1005A00076956795579547952F5F3F4F77FDE7CF36
:1005B0000CC0440F551F661F771F17FD4160EE0CDE
:1005C000FF1C001F111F21503040403090E05907A0
:1005D00090E0690790E4790760F32B8F3C8FDB0193
:1005E000CA018F779070A070B07080349105A1051A
:1005F000B10561F447FD0AC0E114F10401051105DC
:1006000029F0405C5F4F6F4F7F4F40781A8EFE1786
:1006100011F081E08A8F4D8F5E8F6F8F78A383E01A
:10062000898FCE0149960E94FD03A096E2E10C94C9
:10063000CB1AA8E1B0E0EFE1F3E00C94BB1A6983B8
:100640007A838B839C832D833E834F83588789E0F5
:10065000E82EF12CEC0EFD1ECE010196B7010E9492
:10066000D2048E010F5E1F4FCE010596B8010E9485
:10067000D2048985823040F08989823028F0C70110
:10068000B8010E944A0501C08FEF6896E6E00C941D
:10069000D71AA8E1B0E0EFE4F3E00C94BB1A698349
:1006A0007A838B839C832D833E834F83588789E095
:1006B000E82EF12CEC0EFD1ECE010196B7010E9432
:1006C000D2048E010F5E1F4FCE010596B8010E9425
:1006D000D2048985823040F08989823028F0C701B0
:1006E000B8010E944A0501C08FEF6896E6E00C94BD
:1006F000D71AA8E1B0E0EFE7F3E00C94BB1A6983E6
:100700007A838B839C832D833E834F83588789E034
:10071000E82EF12CEC0EFD1ECE010196B7010E94D1
:10072000D2048E010F5E1F4FCE010596B8010E94C4
:10073000D2048985823040F08989823028F0C7014F
:10074000B8010E944A0501C081E06896E6E00C9479
:10075000D71AACE0B0E0EFEAF3E00C94BF1A69837B
:100760007A838B839C83CE010196BE016B5F7F4FA2
:100770000E94D2048D81823061F1823050F1843048
:1007800021F48E81882351F12EC02F81388537FDC9
:1007900020C06E812F3131051CF06623F9F023C093
:1007A0008EE190E0821B930B29853A854B855C8511
:1007B00004C056954795379527958A95D2F76623B5
:1007C000B1F050954095309521953F4F4F4F5F4F79
:1007D0000EC020E030E040E050E009C02FEF3FEFD6
:1007E0004FEF5FE704C020E030E040E050E8B9019F
:1007F000CA012C96E2E00C94DB1ADF92EF92FF9292
:100800000F931F93FC01E480F58006811781D1804E
:100810008081823048F480E090E0A0E1B0E0E82AF6
:10082000F92A0A2B1B2BA5C0843009F49FC0823003
:1008300021F4EE24FF24870105C0E114F104010531
:10084000110519F4E0E0F0E096C0628173819FEF3A
:10085000623879070CF05BC022E83FEF261B370BAC
:100860002A3131052CF020E030E040E050E02AC091
:10087000B801A701022E04C0769567955795479554
:100880000A94D2F781E090E0A0E0B0E004C0880FC5
:10089000991FAA1FBB1F2A95D2F70197A109B10979
:1008A0008E219F21A023B1230097A105B10521F03E
:1008B00081E090E0A0E0B0E09A01AB01282B392B59
:1008C0004A2B5B2BDA01C9018F779070A070B07052
:1008D00080349105A105B10539F427FF09C0205CDA
:1008E0003F4F4F4F5F4F04C0215C3F4F4F4F5F4F13
:1008F000E0E0F0E02030A0E03A07A0E04A07A0E402
:100900005A0710F0E1E0F0E079018A0127C0603871
:10091000710564F5FB01E158FF4FD801C7018F77DE
:100920009070A070B07080349105A105B10539F4C4
:10093000E7FE0DC080E490E0A0E0B0E004C08FE3EB
:1009400090E0A0E0B0E0E80EF91E0A1F1B1F17FFA1
:1009500005C016950795F794E794319687E01695AC
:100960000795F794E7948A95D1F705C0EE24FF2404
:100970008701EFEFF0E06E2F679566276795902F60
:100980009F77D794DD24D7948E2F8695492F462BB9
:10099000582F5D29B701CA011F910F91FF90EF9069
:1009A000DF900895FC01DB01408151812281622F9B
:1009B0006F7770E0221F2227221F9381892F880FD3
:1009C000822B282F30E0991F9927991F11969C930D
:1009D000119721153105A9F54115510561057105DD
:1009E00011F482E037C082E89FEF13969C938E93B8
:1009F00012979A01AB0167E0220F331F441F551F66
:100A00006A95D1F783E08C930DC0220F331F441FEA
:100A1000551F12968D919C911397019713969C9355
:100A20008E931297203080E0380780E0480780E4FA
:100A3000580758F314962D933D934D935C93179755
:100A400008952F3F310579F4411551056105710570
:100A500019F484E08C93089564FF03C081E08C93C3
:100A600012C01C9210C02F57304013963C932E9307
:100A7000129783E08C9387E0440F551F661F771F02
:100A80008A95D1F7706414964D935D936D937C9322
:100A9000179708951F93DC01FB019C91923008F495
:100AA00047C08081823008F443C0943051F41196DD
:100AB0001C91843099F58181682F70E0611B710968
:100AC0003FC0843021F0923031F48230B9F181811D
:100AD000882389F12DC011961C9111978230F1F075
:100AE00081811817D9F412962D913C911397828128
:100AF00093818217930794F028173907BCF0149656
:100B00008D919D910D90BC91A02D248135814681C0
:100B10005781281739074A075B0718F4112341F05A
:100B20000AC082179307A407B50740F4112319F0F0
:100B300061E070E005C06FEF7FEF02C060E070E041
:100B4000CB011F910895DF93CF93CDB7DEB7E7E2D6
:100B5000F0E080818F7380648083E7E2F0E0808141
:100B60008F7D8083E6E2F0E0808187608083E6E22B
:100B7000F0E0808180628083E6E2F0E0808180683E
:100B80008083CF91DF910895DF93CF93CDB7DEB708
:100B9000E4E2F0E080819181CF91DF910895DF93CD
:100BA000CF930F92CDB7DEB78983E7E2F0E089817A
:100BB0008F71982F9F718081807E892B8083E6E2E0
:100BC000F0E080818F7B8083E0E5F0E080818F71B1
:100BD000806480830F90CF91DF910895DF93CF934E
:100BE000CDB7DEB7AFE5B0E0EFE5F0E0808180683B
:100BF0008C93E6E2F0E0808188608083CF91DF9182
:100C00000895DF93CF93CDB7DEB7AFE5B0E0EFE562
:100C1000F0E080818F778C93E6E2F0E08081877F3F
:100C20008083CF91DF910895DF93CF9300D0CDB72C
:100C3000DEB79A83898389819A819093810080931A
:100C400080000F900F90CF91DF9108951F920F9227
:100C50000FB60F9211242F933F934F935F936F938F
:100C60007F938F939F93AF93BF93EF93FF93DF9304
:100C7000CF93CDB7DEB7E0918000F0918100099568
:100C8000CF91DF91FF91EF91BF91AF919F918F91A4
:100C90007F916F915F914F913F912F910F900FBE78
:100CA0000F901F901895DF93CF93CDB7DEB72A979B
:100CB0000FB6F894DEBF0FBECDBF89836A83AFE560
:100CC000B0E0EFE5F0E0808180688C938981282F87
:100CD00030E03A87298789859A858130910509F422
:100CE0006DC029853A852230310509F4C9C089854E
:100CF0009A85009709F0E9C0ABE5B0E0EBE5F0E0DC
:100D0000808180648C938A81282F30E038872F83FC
:100D10008F8198858130910521F12F81388522308E
:100D200031052CF48F819885009761F0CEC02F811A
:100D300038852230310521F18F81988583309105E6
:100D400071F1C3C0A5E5B0E0E5E5F0E080818E7FFC
:100D50008C93A5E5B0E0E5E5F0E0808182608C93BE
:100D6000B4C0A5E5B0E0E5E5F0E0808181608C935A
:100D7000A5E5B0E0E5E5F0E0808182608C93A5C058
:100D8000A5E5B0E0E5E5F0E0808181608C93A5E524
:100D9000B0E0E5E5F0E080818D7F8C9396C0A5E51D
:100DA000B0E0E5E5F0E080818E7F8C93A5E5B0E0D2
:100DB000E5E5F0E080818D7F8C9387C0ABE5B0E006
:100DC000EBE5F0E0808180688C938A81282F30E009
:100DD0003E832D838D819E818130910521F12D816E
:100DE0003E81223031052CF48D819E81009761F087
:100DF0006CC02D813E812230310521F18D819E8193
:100E00008330910571F161C0A5E5B0E0E5E5F0E062
:100E100080818B7F8C93A5E5B0E0E5E5F0E08081F3
:100E200088608C9352C0A5E5B0E0E5E5F0E08081F4
:100E300084608C93A5E5B0E0E5E5F0E08081886012
:100E40008C9343C0A5E5B0E0E5E5F0E080818460E7
:100E50008C93A5E5B0E0E5E5F0E08081877F8C9399
:100E600034C0A5E5B0E0E5E5F0E080818B7F8C93B0
:100E7000A5E5B0E0E5E5F0E08081877F8C9325C0B3
:100E8000ABE5B0E0EBE5F0E0808180628C938A8195
:100E9000282F30E03C832B838B819C81009731F09D
:100EA0002B813C812130310549F00FC0A4E5B0E031
:100EB000E4E5F0E080818F7B8C9307C0A4E5B0E08F
:100EC000E4E5F0E0808180648C932A960FB6F89474
:100ED000DEBF0FBECDBFCF91DF910895DF93CF93DB
:100EE00000D00F92CDB7DEB78983AFE5B0E0EFE574
:100EF000F0E080818F778C938981282F30E03B83CD
:100F00002A838A819B818130910589F02A813B81E6
:100F100022303105A1F08A819B810097B9F4ABE5BD
:100F2000B0E0EBE5F0E080818F7B8C930FC0ABE508
:100F3000B0E0EBE5F0E080818F778C9307C0ABE504
:100F4000B0E0EBE5F0E080818F7D8C930F900F9007
:100F50000F90CF91DF910895DF93CF9300D0CDB75D
:100F6000DEB79A83898389819A81909385008093E3
:100F700084000F900F90CF91DF9108951F920F92F0
:100F80000FB60F9211242F933F934F935F936F935C
:100F90007F938F939F93AF93BF93EF93FF93DF93D1
:100FA000CF93CDB7DEB7E0918400F091850009952D
:100FB000CF91DF91FF91EF91BF91AF919F918F9171
:100FC0007F916F915F914F913F912F910F900FBE45
:100FD0000F901F901895DF93CF9300D0CDB7DEB759
:100FE0009A83898389819A81909387008093860070
:100FF0000F900F90CF91DF9108951F920F920FB62F
:101000000F9211242F933F934F935F936F937F938E
:101010008F939F93AF93BF93EF93FF93DF93CF9300
:10102000CDB7DEB7E0918600F09187000995CF91AA
:10103000DF91FF91EF91BF91AF919F918F917F9140
:101040006F915F914F913F912F910F900FBE0F9035
:101050001F901895DF93CF9300D0CDB7DEB79A835A
:10106000898389819A8190938300809382000F9075
:101070000F90CF91DF9108951F920F920FB60F92AC
:1010800011242F933F934F935F936F937F938F938D
:101090009F93AF93BF93EF93FF93DF93CF93CDB71E
:1010A000DEB7E0918200F09183000995CF91DF9146
:1010B000FF91EF91BF91AF919F918F917F916F9130
:1010C0005F914F913F912F910F900FBE0F901F9006
:1010D0001895DF93CF9300D000D00F92CDB7DEB735
:1010E00089836A834B838981282F30E03D832C8359
:1010F0008C819D818130910509F447C02C813D810F
:10110000223031052CF48C819D81009771F0CBC089
:101110002C813D812230310509F467C08C819D818D
:101120008330910509F491C0BEC08B818130A1F458
:10113000AAE3B0E0EAE3F0E08081482F8A81282F1B
:1011400030E081E090E0022E02C0880F991F0A94DF
:10115000E2F7842B8C93A7C08B81882309F0A3C06E
:10116000AAE3B0E0EAE3F0E08081482F8A81282FEB
:1011700030E081E090E0022E02C0880F991F0A94AF
:10118000E2F7809584238C938EC08B818130A1F40B
:10119000A7E3B0E0E7E3F0E08081482F8A81282FC1
:1011A00030E081E090E0022E02C0880F991F0A947F
:1011B000E2F7842B8C9377C08B81882309F073C06E
:1011C000A7E3B0E0E7E3F0E08081482F8A81282F91
:1011D00030E081E090E0022E02C0880F991F0A944F
:1011E000E2F7809584238C935EC08B818130A1F4DB
:1011F000A4E3B0E0E4E3F0E08081482F8A81282F67
:1012000030E081E090E0022E02C0880F991F0A941E
:10121000E2F7842B8C9347C08B81882309F043C06D
:10122000A4E3B0E0E4E3F0E08081482F8A81282F36
:1012300030E081E090E0022E02C0880F991F0A94EE
:10124000E2F7809584238C932EC08B818130A1F4AA
:10125000A1E3B0E0E1E3F0E08081482F8A81282F0C
:1012600030E081E090E0022E02C0880F991F0A94BE
:10127000E2F7842B8C9317C08B818823A1F4A1E320
:10128000B0E0E1E3F0E08081482F8A81282F30E050
:1012900081E090E0022E02C0880F991F0A94E2F7C5
:1012A000809584238C930F900F900F900F900F9048
:1012B000CF91DF910895DF93CF9300D000D00F92AC
:1012C000CDB7DEB789836A834B838981282F30E0CD
:1012D0003D832C838C819D818130910509F447C029
:1012E0002C813D81223031052CF48C819D81009729
:1012F00071F0CBC02C813D812230310509F467C0EB
:101300008C819D818330910509F491C0BEC08B8191
:101310008130A1F4ABE3B0E0EBE3F0E08081482F53
:101320008A81282F30E081E090E0022E02C0880FF1
:10133000991F0A94E2F7842B8C93A7C08B81882392
:1013400009F0A3C0ABE3B0E0EBE3F0E08081482F0D
:101350008A81282F30E081E090E0022E02C0880FC1
:10136000991F0A94E2F7809584238C938EC08B8119
:101370008130A1F4A8E3B0E0E8E3F0E08081482FF9
:101380008A81282F30E081E090E0022E02C0880F91
:10139000991F0A94E2F7842B8C9377C08B81882362
:1013A00009F073C0A8E3B0E0E8E3F0E08081482FE3
:1013B0008A81282F30E081E090E0022E02C0880F61
:1013C000991F0A94E2F7809584238C935EC08B81E9
:1013D0008130A1F4A5E3B0E0E5E3F0E08081482F9F
:1013E0008A81282F30E081E090E0022E02C0880F31
:1013F000991F0A94E2F7842B8C9347C08B81882332
:1014000009F043C0A5E3B0E0E5E3F0E08081482FB8
:101410008A81282F30E081E090E0022E02C0880F00
:10142000991F0A94E2F7809584238C932EC08B81B8
:101430008130A1F4A2E3B0E0E2E3F0E08081482F44
:101440008A81282F30E081E090E0022E02C0880FD0
:10145000991F0A94E2F7842B8C9317C08B81882301
:10146000A1F4A2E3B0E0E2E3F0E08081482F8A81BA
:10147000282F30E081E090E0022E02C0880F991FF3
:101480000A94E2F7809584238C930F900F900F902D
:101490000F900F90CF91DF910895DF93CF9300D0FD
:1014A00000D0CDB7DEB789836A838981282F30E0E9
:1014B0003C832B838B819C8181309105D1F02B81E2
:1014C0003C81223031052CF48B819C81009761F0A6
:1014D0001EC02B813C812230310581F08B819C81A3
:1014E0008330910581F013C0EAE3F0E08A818083C4
:1014F0000EC0E7E3F0E08A81808309C0E4E3F0E016
:101500008A81808304C0E1E3F0E08A8180830F90C8
:101510000F900F900F90CF91DF910895DF93CF93AD
:1015200000D000D0CDB7DEB789836A838981282FA8
:1015300030E03C832B838B819C8181309105D1F0FD
:101540002B813C81223031052CF48B819C810097CA
:1015500061F01EC02B813C812230310581F08B81EE
:101560009C818330910581F013C0EBE3F0E08A8128
:1015700080830EC0E8E3F0E08A81808309C0E5E360
:10158000F0E08A81808304C0E2E3F0E08A81808316
:101590000F900F900F900F90CF91DF910895DF93F0
:1015A000CF9300D000D00F92CDB7DEB78A836B8384
:1015B0008A81282F30E03D832C834C815D8141302E
:1015C000510541F18C819D818230910534F42C814B
:1015D0003D812115310561F052C04C815D81423061
:1015E000510551F18C819D8183309105B9F147C03E
:1015F000E9E3F0E08081282F30E08B81882F90E0B4
:10160000A90102C0559547958A95E2F7CA018170F4
:10161000898335C0E6E3F0E08081282F30E08B81BC
:10162000882F90E0A90102C0559547958A95E2F769
:10163000CA018170898323C0E3E3F0E08081282F11
:1016400030E08B81882F90E0A90102C05595479525
:101650008A95E2F7CA018170898311C0E0E3F0E066
:101660008081282F30E08B81882F90E0A90102C073
:10167000559547958A95E2F7CA01817089838981DA
:101680000F900F900F900F900F90CF91DF910895D2
:10169000DF93CF93CDB7DEB790917C0082E0692FC6
:1016A00041E00E94690890917D0082E0692F41E04D
:1016B0000E94690890917E0082E0692F41E00E94BB
:1016C000690890917F0082E0692F41E00E946908DB
:1016D00090917C0082E0692F41E00E945B0990912B
:1016E0007D0082E0692F41E00E945B0990917E00BD
:1016F00082E0692F41E00E945B0990917F0082E0C7
:10170000692F41E00E945B099091780083E0692F86
:1017100040E00E9469089091790083E0692F40E0E1
:101720000E94690890917A0083E0692F40E00E944E
:10173000690890917B0083E0692F40E00E9469086E
:10174000CF91DF910895DF93CF9300D000D0CDB734
:10175000DEB78FEF8C831B821A8281E089831B8224
:1017600053C08B81882F90E0FC01E458FF4F90819B
:1017700082E0692F40E00E945B091A8233C08A81AF
:10178000882F90E0FC01E858FF4F908183E0692F9B
:101790000E94CF0A89838981882309F58A81882F4D
:1017A00090E0FC01E858FF4F908183E0692F0E9490
:1017B000CF0A89838981882391F48B81482F50E057
:1017C0008A81282F30E0CA01880F991F880F991F3E
:1017D000820F931FFC01E859FF4F80818C838A811F
:1017E0008F5F8A838A81843050F28B81882F90E0CA
:1017F000FC01E458FF4F908182E0692F41E00E9494
:101800005B098B818F5F8B838B81843008F4A9CF38
:101810008C810F900F900F900F90CF91DF910895D2
:10182000DF93CF93CDB7DEB72E970FB6F894DEBF18
:101830000FBECDBF80E062E041E00E94690880E019
:1018400063E041E00E94690881E060E041E00E94BD
:10185000690881E061E041E00E94690881E062E09E
:1018600041E00E94690881E064E041E00E9469086B
:1018700080E090E0A8ECB2E48B879C87AD87BE87C0
:101880006B857C858D859E8520E030E04AEF54E4B1
:101890000E941F02DC01CB018F839887A987BA873A
:1018A0006F81788589859A8520E030E040E85FE3A4
:1018B0000E94790388232CF481E090E09E838D833D
:1018C0003FC06F81788589859A8520E03FEF4FE79B
:1018D00057E40E94190318164CF56B857C858D859D
:1018E0009E8520E030E040E251E40E941F02DC01CE
:1018F000CB01BC01CD010E944900DC01CB019E83DC
:101900008D830FC088EC90E09C838B838B819C81BE
:101910000197F1F79C838B838D819E8101979E8334
:101920008D838D819E81009769F714C06F817885C2
:1019300089859A850E944900DC01CB019E838D83B5
:101940008D819E819A83898389819A810197F1F79C
:101950009A83898383E30E94C80C82E30E94C80CA7
:1019600088E20E94C80C8CE00E94C80C82E00E94B1
:10197000C80C81E00E94C80C86E00E94C80C2E961C
:101980000FB6F894DEBF0FBECDBFCF91DF910895A3
:10199000DF93CF93CDB7DEB7AB970FB6F894DEBF2A
:1019A0000FBECDBF8BA780E063E040E00E945B09E3
:1019B0008BA582958F70982F917081E060E0492F00
:1019C0000E945B098BA5829586958770982F9170F0
:1019D00081E061E0492F0E945B098BA58295869585
:1019E00086958370982F917081E062E0492F0E9464
:1019F0005B098BA5982F991F9927991F81E064E0B7
:101A0000492F0E945B0980E062E041E00E945B098F
:101A100080E090E0A0E8BFE38FA398A7A9A7BAA7AA
:101A20006FA178A589A59AA520E030E04AEF54E49B
:101A30000E941F02DC01CB018BA39CA3ADA3BEA31C
:101A40006BA17CA18DA19EA120E030E040E85FE386
:101A50000E94790388232CF481E090E09AA389A363
:101A60003FC06BA17CA18DA19EA120E03FEF4FE77D
:101A700057E40E94190318164CF56FA178A589A5A3
:101A80009AA520E030E040E251E40E941F02DC0110
:101A9000CB01BC01CD010E944900DC01CB019AA31E
:101AA00089A30FC088EC90E098A38F8F8F8D98A1A9
:101AB0000197F1F798A38F8F89A19AA101979AA313
:101AC00089A389A19AA1009769F714C06BA17CA191
:101AD0008DA19EA10E944900DC01CB019AA389A39C
:101AE00089A19AA19E8F8D8F8D8D9E8D0197F1F783
:101AF0009E8F8D8F80E062E040E00E945B098BA5A5
:101B0000982F917081E060E0492F0E945B098BA5BE
:101B10008695982F917081E061E0492F0E945B09C2
:101B20008BA586958695982F917081E062E0492F6C
:101B30000E945B098BA5869586958695982F917056
:101B400081E064E0492F0E945B0980E062E041E0AF
:101B50000E945B0980E090E0A0E8BFE3898F9A8F44
:101B6000AB8FBC8F698D7A8D8B8D9C8D20E030E0A2
:101B70004AEF54E40E941F02DC01CB018D8B9E8B47
:101B8000AF8BB88F6D897E898F89988D20E030E08A
:101B900040E85FE30E94790388232CF481E090E021
:101BA0009C8B8B8B3FC06D897E898F89988D20E0BF
:101BB0003FEF4FE757E40E94190318164CF5698D63
:101BC0007A8D8B8D9C8D20E030E040E251E40E94C4
:101BD0001F02DC01CB01BC01CD010E944900DC01E8
:101BE000CB019C8B8B8B0FC088EC90E09A8B898B00
:101BF00089899A890197F1F79A8B898B8B899C89BE
:101C000001979C8B8B8B8B899C89009769F714C0FB
:101C10006D897E898F89988D0E944900DC01CB01F6
:101C20009C8B8B8B8B899C89988B8F878F859889D0
:101C30000197F1F7988B8F8780E062E040E00E9487
:101C40005B0980E090E0A0EAB0E48B879C87AD87D9
:101C5000BE876B857C858D859E8520E030E04AEFD0
:101C600054E40E941F02DC01CB018F839887A9876F
:101C7000BA876F81788589859A8520E030E040E8D1
:101C80005FE30E94790388232CF481E090E09E8337
:101C90008D833FC06F81788589859A8520E03FEFED
:101CA0004FE757E40E94190318164CF56B857C85A5
:101CB0008D859E8520E030E040E251E40E941F02C5
:101CC000DC01CB01BC01CD010E944900DC01CB014C
:101CD0009E838D830FC088EC90E09C838B838B81E7
:101CE0009C810197F1F79C838B838D819E81019765
:101CF0009E838D838D819E81009769F714C06F81CB
:101D0000788589859A850E944900DC01CB019E83F4
:101D10008D838D819E819A83898389819A810197A0
:101D2000F1F79A838983AB960FB6F894DEBF0FBEA6
:101D3000CDBFCF91DF910895DF93CF93CDB7DEB7BD
:101D4000AB970FB6F894DEBF0FBECDBF8BA780E078
:101D500063E041E00E945B098BA582958F70982F0C
:101D6000917081E060E0492F0E945B098BA582950C
:101D700086958770982F917081E061E0492F0E94CD
:101D80005B098BA58295869586958370982F9170B7
:101D900081E062E0492F0E945B098BA5982F991F73
:101DA0009927991F81E064E0492F0E945B0980E038
:101DB00062E041E00E945B0980E090E0A0E8BFE3C0
:101DC0008FA398A7A9A7BAA76FA178A589A59AA557
:101DD00020E030E04AEF54E40E941F02DC01CB0116
:101DE0008BA39CA3ADA3BEA36BA17CA18DA19EA13F
:101DF00020E030E040E85FE30E94790388232CF480
:101E000081E090E09AA389A33FC06BA17CA18DA142
:101E10009EA120E03FEF4FE757E40E9419031816F8
:101E20004CF56FA178A589A59AA520E030E040E2A5
:101E300051E40E941F02DC01CB01BC01CD010E94D4
:101E40004900DC01CB019AA389A30FC088EC90E084
:101E500098A38F8F8F8D98A10197F1F798A38F8FFB
:101E600089A19AA101979AA389A389A19AA1009710
:101E700069F714C06BA17CA18DA19EA10E944900AD
:101E8000DC01CB019AA389A389A19AA19E8F8D8F92
:101E90008D8D9E8D0197F1F79E8F8D8F80E062E092
:101EA00040E00E945B098BA5982F917081E060E073
:101EB000492F0E945B098BA58695982F917081E030
:101EC00061E0492F0E945B098BA586958695982F26
:101ED000917081E062E0492F0E945B098BA5869595
:101EE00086958695982F917081E064E0492F0E9435
:101EF0005B0980E062E041E00E945B0980E090E0E5
:101F0000A0E8BFE3898F9A8FAB8FBC8F698D7A8DE4
:101F10008B8D9C8D20E030E04AEF54E40E941F023C
:101F2000DC01CB018D8B9E8BAF8BB88F6D897E8949
:101F30008F89988D20E030E040E85FE30E947903CC
:101F400088232CF481E090E09C8B8B8B3FC06D89C3
:101F50007E898F89988D20E03FEF4FE757E40E94FC
:101F6000190318164CF5698D7A8D8B8D9C8D20E0A8
:101F700030E040E251E40E941F02DC01CB01BC01D1
:101F8000CD010E944900DC01CB019C8B8B8B0FC0E3
:101F900088EC90E09A8B898B89899A890197F1F76F
:101FA0009A8B898B8B899C8901979C8B8B8B8B89D6
:101FB0009C89009769F714C06D897E898F89988DF7
:101FC0000E944900DC01CB019C8B8B8B8B899C8907
:101FD000988B8F878F8598890197F1F7988B8F87DA
:101FE00080E062E040E00E945B0980E090E0A0EACF
:101FF000B0E48B879C87AD87BE876B857C858D859C
:102000009E8520E030E04AEF54E40E941F02DC018C
:10201000CB018F839887A987BA876F817885898557
:102020009A8520E030E040E85FE30E94790388234E
:102030002CF481E090E09E838D833FC06F81788592
:1020400089859A8520E03FEF4FE757E40E94190306
:1020500018164CF56B857C858D859E8520E030E0DB
:1020600040E251E40E941F02DC01CB01BC01CD0122
:102070000E944900DC01CB019E838D830FC088EC58
:1020800090E09C838B838B819C810197F1F79C83EB
:102090008B838D819E8101979E838D838D819E810F
:1020A000009769F714C06F81788589859A850E94A9
:1020B0004900DC01CB019E838D838D819E819A83B3
:1020C000898389819A810197F1F79A838983AB96F5
:1020D0000FB6F894DEBF0FBECDBFCF91DF9108954C
:1020E000DF93CF93CDB7DEB781E00E94C80CCF91CC
:1020F000DF910895DF93CF9300D0CDB7DEB79A83F9
:1021000089830AC0E981FA8180810E949C0E8981BD
:102110009A8101969A838983E981FA818081882353
:1021200089F70F900F90CF91DF910895DF93CF93B0
:1021300000D000D000D0CDB7DEB78D836E8380E8AD
:10214000898380EC8A8384E98B8384ED8C838D8101
:10215000282F30E0CE010196FC01E20FF31F9081A1
:102160008E81890F0E94C80C26960FB6F894DEBFA8
:102170000FBECDBFCF91DF910895DF93CF93CDB741
:10218000DEB760970FB6F894DEBF0FBECDBF6D8788
:102190007E878F87988B8D859E85AF85B8890097C0
:1021A000A105B10521F480E30E949C0E65C08D85D8
:1021B0009E85AF85B889181619061A061B060CF0FD
:1021C0005BC01A8219828AE0FE013396DF01982FE4
:1021D0001D929A95E9F730C08D859E85AF85B889A7
:1021E0002AE030E040E050E0BC01CD010E94721ACC
:1021F000DC01CB0189838A81282F332727FD309585
:10220000CE010396FC01E20FF31F898180838A814E
:102210008F5F8A838D859E85AF85B8892AE030E0FF
:1022200040E050E0BC01CD010E94721ADA01C90100
:102230008D879E87AF87B88B8D859E85AF85B88942
:102240000097A105B10541F68A8181508A8311C0AA
:102250008A81282F332727FD3095CE010396FC0174
:10226000E20FF31F8081805D0E949C0E8A81815065
:102270008A838A81882364F760960FB6F894DEBF5C
:102280000FBECDBFCF91DF910895DF93CF93CDB730
:10229000DEB727970FB6F894DEBF0FBECDBF9C8385
:1022A0008B836D834E832F838E816F810E94961066
:1022B0008D810E949C0E8D81883018F58D81882F2C
:1022C00090E0880F991F880F991F880F991F8A83A4
:1022D0008A8180648A838A810E94C80C19820EC018
:1022E0008981282F30E08B819C81FC01E20FF31F54
:1022F00080810E949C0E89818F5F898389818830CB
:1023000078F382E00E94C80C27960FB6F894DEBFDF
:102310000FBECDBFCF91DF910895DF93CF93CDB79F
:10232000DEB781E060E041E00E94690881E061E0A1
:1023300041E00E94690881E062E041E00E94690892
:1023400081E064E041E00E94690881E066E041E0EC
:102350000E94690881E065E041E00E94690880E030
:1023600062E041E00E94690880E063E041E00E9491
:102370006908CF91DF910895DF93CF93CDB7DEB792
:102380002C970FB6F894DEBF0FBECDBF89836A834A
:102390008A81282F30E03C872B878B859C85823073
:1023A000910509F450C12B853C852330310534F467
:1023B0008B859C858130910571F0ECC42B853C8523
:1023C0002330310509F477C28B859C8584309105D3
:1023D00009F4A9C3DFC481E066E040E00E945B0924
:1023E00081E065E040E00E945B0980E062E040E05F
:1023F0000E945B0980E063E041E00E945B09898103
:10240000282F30E03A87298789859A85843091057D
:1024100009F49BC029853A8525303105ECF489857E
:102420009A858130910509F451C029853A85223079
:1024300031052CF489859A85009799F1ABC42985DB
:102440003A852230310509F456C089859A85833052
:10245000910509F465C09EC429853A852730310568
:1024600009F4B2C089859A85883091056CF4298574
:102470003A852530310509F47DC089859A858630F5
:10248000910509F48CC086C429853A852830310528
:1024900009F4AFC089859A858930910509F4BEC0D9
:1024A00079C481E060E040E00E945B0981E061E086
:1024B00040E00E945B0981E062E040E00E945B092D
:1024C00081E064E040E00E945B0964C481E060E078
:1024D00041E00E945B0981E061E040E00E945B090D
:1024E00081E062E040E00E945B0981E064E040E05E
:1024F0000E945B094FC481E060E040E00E945B09FC
:1025000081E061E041E00E945B0981E062E040E03F
:102510000E945B0981E064E040E00E945B093AC4EC
:1025200081E060E041E00E945B0981E061E041E020
:102530000E945B0981E062E040E00E945B0981E06B
:1025400064E040E00E945B0925C481E060E040E077
:102550000E945B0981E061E040E00E945B0981E04C
:1025600062E041E00E945B0981E064E040E00E949B
:102570005B0910C481E060E041E00E945B0981E0FA
:1025800061E040E00E945B0981E062E041E00E947E
:102590005B0981E064E040E00E945B09FBC381E0ED
:1025A00060E040E00E945B0981E061E041E00E9460
:1025B0005B0981E062E041E00E945B0981E064E048
:1025C00040E00E945B09E6C381E060E041E00E94D8
:1025D0005B0981E061E041E00E945B0981E062E02B
:1025E00041E00E945B0981E064E040E00E945B09F9
:1025F000D1C381E060E040E00E945B0981E061E0DE
:1026000040E00E945B0981E062E040E00E945B09DB
:1026100081E064E041E00E945B09BCC381E060E0CE
:1026200041E00E945B0981E061E040E00E945B09BB
:1026300081E062E040E00E945B0981E064E041E00B
:102640000E945B09A7C381E066E040E00E945B094D
:1026500081E065E040E00E945B0980E062E041E0EB
:102660000E945B0980E063E040E00E945B09898191
:10267000282F30E038872F838F819885843091050B
:1026800009F49BC02F81388525303105ECF48F810A
:1026900098858130910509F451C02F813885223009
:1026A00031052CF48F819885009799F173C32F81A0
:1026B00038852230310509F456C08F8198858330E2
:1026C000910509F465C066C32F813885273031052F
:1026D00009F4B2C08F819885883091056CF42F8100
:1026E00038852530310509F47DC08F819885863085
:1026F000910509F48CC04EC32F81388528303105EF
:1027000009F4AFC08F8198858930910509F4BEC066
:1027100041C381E060E040E00E945B0981E061E04C
:1027200040E00E945B0981E062E040E00E945B09BA
:1027300081E064E040E00E945B092CC381E060E03E
:1027400041E00E945B0981E061E040E00E945B099A
:1027500081E062E040E00E945B0981E064E040E0EB
:102760000E945B0917C381E060E040E00E945B09C2
:1027700081E061E041E00E945B0981E062E040E0CD
:102780000E945B0981E064E040E00E945B0902C3B3
:1027900081E060E041E00E945B0981E061E041E0AE
:1027A0000E945B0981E062E040E00E945B0981E0F9
:1027B00064E040E00E945B09EDC281E060E040E03F
:1027C0000E945B0981E061E040E00E945B0981E0DA
:1027D00062E041E00E945B0981E064E040E00E9429
:1027E0005B09D8C281E060E041E00E945B0981E0C2
:1027F00061E040E00E945B0981E062E041E00E940C
:102800005B0981E064E040E00E945B09C3C281E0B3
:1028100060E040E00E945B0981E061E041E00E94ED
:102820005B0981E062E041E00E945B0981E064E0D5
:1028300040E00E945B09AEC281E060E041E00E949E
:102840005B0981E061E041E00E945B0981E062E0B8
:1028500041E00E945B0981E064E040E00E945B0986
:1028600099C281E060E040E00E945B0981E061E0A4
:1028700040E00E945B0981E062E040E00E945B0969
:1028800081E064E041E00E945B0984C281E060E095
:1028900041E00E945B0981E061E040E00E945B0949
:1028A00081E062E040E00E945B0981E064E041E099
:1028B0000E945B096FC281E066E040E00E945B0914
:1028C00081E065E041E00E945B0980E062E040E079
:1028D0000E945B0980E063E040E00E945B0989811F
:1028E000282F30E03E832D838D819E818430910599
:1028F00009F49BC02D813E8125303105ECF48D819A
:102900009E818130910509F451C02D813E81223094
:1029100031052CF48D819E81009799F13BC22D8168
:102920003E812230310509F456C08D819E8183306D
:10293000910509F465C02EC22D813E8127303105F5
:1029400009F4B2C08D819E81883091056CF42D818F
:102950003E812530310509F47DC08D819E81863010
:10296000910509F48CC016C22D813E8128303105B5
:1029700009F4AFC08D819E818930910509F4BEC0F4
:1029800009C281E060E040E00E945B0981E061E013
:1029900040E00E945B0981E062E040E00E945B0948
:1029A00081E064E040E00E945B09F4C181E060E006
:1029B00041E00E945B0981E061E040E00E945B0928
:1029C00081E062E040E00E945B0981E064E040E079
:1029D0000E945B09DFC181E060E040E00E945B098A
:1029E00081E061E041E00E945B0981E062E040E05B
:1029F0000E945B0981E064E040E00E945B09CAC17B
:102A000081E060E041E00E945B0981E061E041E03B
:102A10000E945B0981E062E040E00E945B0981E086
:102A200064E040E00E945B09B5C181E060E040E005
:102A30000E945B0981E061E040E00E945B0981E067
:102A400062E041E00E945B0981E064E040E00E94B6
:102A50005B09A0C181E060E041E00E945B0981E088
:102A600061E040E00E945B0981E062E041E00E9499
:102A70005B0981E064E040E00E945B098BC181E07A
:102A800060E040E00E945B0981E061E041E00E947B
:102A90005B0981E062E041E00E945B0981E064E063
:102AA00040E00E945B0976C181E060E041E00E9465
:102AB0005B0981E061E041E00E945B0981E062E046
:102AC00041E00E945B0981E064E040E00E945B0914
:102AD00061C181E060E040E00E945B0981E061E06B
:102AE00040E00E945B0981E062E040E00E945B09F7
:102AF00081E064E041E00E945B094CC181E060E05C
:102B000041E00E945B0981E061E040E00E945B09D6
:102B100081E062E040E00E945B0981E064E041E026
:102B20000E945B0937C181E066E041E00E945B09D9
:102B300081E065E040E00E945B0980E062E040E007
:102B40000E945B0980E063E040E00E945B098981AC
:102B5000282F30E03C832B838B819C81843091052E
:102B600009F49BC02B813C8125303105ECF48B812D
:102B70009C818130910509F451C02B813C81223028
:102B800031052CF48B819C81009799F103C12B8135
:102B90003C812230310509F456C08B819C81833001
:102BA000910509F465C0F6C02B813C8127303105C1
:102BB00009F4B2C08B819C81883091056CF42B8123
:102BC0003C812530310509F47DC08B819C818630A4
:102BD000910509F48CC0DEC02B813C812830310581
:102BE00009F4AFC08B819C818930910509F4BEC086
:102BF000D1C081E060E040E00E945B0981E061E0DB
:102C000040E00E945B0981E062E040E00E945B09D5
:102C100081E064E040E00E945B09BCC081E060E0CC
:102C200041E00E945B0981E061E040E00E945B09B5
:102C300081E062E040E00E945B0981E064E040E006
:102C40000E945B09A7C081E060E040E00E945B0950
:102C500081E061E041E00E945B0981E062E040E0E8
:102C60000E945B0981E064E040E00E945B0992C041
:102C700081E060E041E00E945B0981E061E041E0C9
:102C80000E945B0981E062E040E00E945B0981E014
:102C900064E040E00E945B097DC081E060E040E0CC
:102CA0000E945B0981E061E040E00E945B0981E0F5
:102CB00062E041E00E945B0981E064E040E00E9444
:102CC0005B0968C081E060E041E00E945B0981E04F
:102CD00061E040E00E945B0981E062E041E00E9427
:102CE0005B0981E064E040E00E945B0953C081E041
:102CF00060E040E00E945B0981E061E041E00E9409
:102D00005B0981E062E041E00E945B0981E064E0F0
:102D100040E00E945B093EC081E060E041E00E942B
:102D20005B0981E061E041E00E945B0981E062E0D3
:102D300041E00E945B0981E064E040E00E945B09A1
:102D400029C081E060E040E00E945B0981E061E031
:102D500040E00E945B0981E062E040E00E945B0984
:102D600081E064E041E00E945B0914C081E060E022
:102D700041E00E945B0981E061E040E00E945B0964
:102D800081E062E040E00E945B0981E064E041E0B4
:102D90000E945B092C960FB6F894DEBF0FBECDBF24
:102DA000CF91DF910895DF93CF93CDB7DEB7EF9743
:102DB0000FB6F894DEBF0FBECDBF9FAF8EAF1DAE76
:102DC00008C28EAD9FAD28EE33E0B9010E945E1AB5
:102DD000CB018CAF8EAD9FAD24E630E0B9010E94EF
:102DE0005E1ACB012AE030E0B9010E945E1A8BAF77
:102DF0008EAD9FAD2AE030E0B9010E945E1ACB0192
:102E00002AE030E0B9010E945E1A8AAF8EAD9FAD14
:102E10002AE030E0B9010E945E1A89AF8CAD64E00F
:102E20000E94BC1180E090E0A0E8BFE38DAB9EABB8
:102E3000AFABB8AF6DA97EA98FA998AD20E030E007
:102E40004AEF54E40E941F02DC01CB0189AB9AAB2C
:102E5000ABABBCAB69A97AA98BA99CA920E030E0F7
:102E600040E85FE30E94790388232CF481E090E03E
:102E700098AB8FA73FC069A97AA98BA99CA920E02C
:102E80003FEF4FE757E40E94190318164CF56DA960
:102E90007EA98FA998AD20E030E040E251E40E9485
:102EA0001F02DC01CB01BC01CD010E944900DC0105
:102EB000CB0198AB8FA70FC088EC90E09EA78DA7A1
:102EC0008DA59EA50197F1F79EA78DA78FA598A91F
:102ED000019798AB8FA78FA598A9009769F714C0A1
:102EE00069A97AA98BA99CA90E944900DC01CB01A0
:102EF00098AB8FA78FA598A99CA78BA78BA59CA5FE
:102F00000197F1F79CA78BA78BAD63E00E94BC11E2
:102F100080E090E0A0E8BFE38FA398A7A9A7BAA795
:102F20006FA178A589A59AA520E030E04AEF54E486
:102F30000E941F02DC01CB018BA39CA3ADA3BEA307
:102F40006BA17CA18DA19EA120E030E040E85FE371
:102F50000E94790388232CF481E090E09AA389A34E
:102F60003FC06BA17CA18DA19EA120E03FEF4FE768
:102F700057E40E94190318164CF56FA178A589A58E
:102F80009AA520E030E040E251E40E941F02DC01FB
:102F9000CB01BC01CD010E944900DC01CB019AA309
:102FA00089A30FC088EC90E098A38F8F8F8D98A194
:102FB0000197F1F798A38F8F89A19AA101979AA3FE
:102FC00089A389A19AA1009769F714C06BA17CA17C
:102FD0008DA19EA10E944900DC01CB019AA389A387
:102FE00089A19AA19E8F8D8F8D8D9E8D0197F1F76E
:102FF0009E8F8D8F8AAD62E00E94BC1180E090E0D0
:10300000A0E8BFE3898F9A8FAB8FBC8F698D7A8DD3
:103010008B8D9C8D20E030E04AEF54E40E941F022B
:10302000DC01CB018D8B9E8BAF8BB88F6D897E8938
:103030008F89988D20E030E040E85FE30E947903BB
:1030400088232CF481E090E09C8B8B8B3FC06D89B2
:103050007E898F89988D20E03FEF4FE757E40E94EB
:10306000190318164CF5698D7A8D8B8D9C8D20E097
:1030700030E040E251E40E941F02DC01CB01BC01C0
:10308000CD010E944900DC01CB019C8B8B8B0FC0D2
:1030900088EC90E09A8B898B89899A890197F1F75E
:1030A0009A8B898B8B899C8901979C8B8B8B8B89C5
:1030B0009C89009769F714C06D897E898F89988DE6
:1030C0000E944900DC01CB019C8B8B8B8B899C89F6
:1030D000988B8F878F8598890197F1F7988B8F87C9
:1030E00089AD61E00E94BC1180E090E0A0E8BFE300
:1030F0008B879C87AD87BE876B857C858D859E85FC
:1031000020E030E04AEF54E40E941F02DC01CB01D2
:103110008F839887A987BA876F81788589859A85F3
:1031200020E030E040E85FE30E94790388232CF43C
:1031300081E090E09E838D833FC06F817885898593
:103140009A8520E03FEF4FE757E40E9419031816D5
:103150004CF56B857C858D859E8520E030E040E2D6
:1031600051E40E941F02DC01CB01BC01CD010E9491
:103170004900DC01CB019E838D830FC088EC90E079
:103180009C838B838B819C810197F1F79C838B833C
:103190008D819E8101979E838D838D819E81009775
:1031A00069F714C06F81788589859A850E944900E6
:1031B000DC01CB019E838D838D819E819A838983DF
:1031C00089819A810197F1F79A8389838DAD8F5F09
:1031D0008DAF8DAD853008F4F4CD81E066E040E040
:1031E0000E945B0981E065E040E00E945B0980E0AD
:1031F00062E040E00E945B0980E063E040E00E9402
:103200005B09EF960FB6F894DEBF0FBECDBFCF912E
:10321000DF910895DF93CF9300D000D0CDB7DEB714
:103220009C838B838B819C819A83898389819A81FA
:103230000E94D31689819A81009731F089819A8101
:1032400001979A838983F2CF0F900F900F900F9080
:10325000CF91DF910895DF93CF9300D000D0CDB709
:10326000DEB79C838B838B819C819A8389830FC07B
:1032700089819A810E94D31689819A8127E28F30B1
:10328000920759F089819A8101969A83898389816D
:103290009A8127E28031920758F30F900F900F9098
:1032A0000F90CF91DF910895DF93CF93CDB7DEB725
:1032B00083E067E040E00E94690883E066E040E068
:1032C0000E94690883E065E040E00E94690883E0AD
:1032D00063E040E00E946908CF91DF910895DF9399
:1032E000CF9300D000D0CDB7DEB78A8319828A8110
:1032F000282F30E03C832B838B819C818230910589
:10330000E1F02B813C812330310534F48B819C81A9
:103310008130910561F022C02B813C812330310541
:1033200091F08B819C818430910599F017C083E0E6
:1033300067E00E94CF0A898311C083E066E00E94A3
:10334000CF0A89830BC083E065E00E94CF0A89839E
:1033500005C083E063E00E94CF0A898389810F90D2
:103360000F900F900F90CF91DF910895DF93CF933F
:10337000CDB7DEB780E064E041E00E94690880E0FC
:1033800065E041E00E94690880E066E041E00E945B
:10339000690881E067E041E00E946908CF91DF9110
:1033A0000895DF93CF9300D00F92CDB7DEB7898316
:1033B0008981282F30E03B832A838A819B81823058
:1033C0009105E1F02A813B812330310534F48A8173
:1033D0009B818130910561F022C02A813B8123309D
:1033E000310591F08A819B818430910599F017C055
:1033F00080E064E041E00E945B0911C080E065E08C
:1034000041E00E945B090BC080E066E041E00E9461
:103410005B0905C081E067E041E00E945B090F9015
:103420000F900F90CF91DF910895DF93CF9300D04D
:103430000F92CDB7DEB789838981282F30E03B8397
:103440002A838A819B8182309105E1F02A813B8128
:103450002330310534F48A819B818130910561F0FC
:1034600022C02A813B812330310591F08A819B81E2
:103470008430910599F017C080E064E040E00E943C
:103480005B0911C080E065E040E00E945B090BC071
:1034900080E066E040E00E945B0905C081E067E0F3
:1034A00040E00E945B090F900F900F90CF91DF9149
:1034B0000895DF93CF93CDB7DEB7FFCFAA1BBB1B19
:1034C00051E107C0AA1FBB1FA617B70710F0A61B24
:1034D000B70B881F991F5A95A9F780959095BC0145
:1034E000CD01089597FB092E05260ED057FD04D077
:1034F00014D00AD0001C38F4509540953095219591
:103500003F4F4F4F5F4F0895F6F790958095709518
:1035100061957F4F8F4F9F4F0895A1E21A2EAA1BEE
:10352000BB1BFD010DC0AA1FBB1FEE1FFF1FA21773
:10353000B307E407F50720F0A21BB30BE40BF50B70
:10354000661F771F881F991F1A9469F760957095F9
:10355000809590959B01AC01BD01CF0108952F92FC
:103560003F924F925F926F927F928F929F92AF9213
:10357000BF92CF92DF92EF92FF920F931F93CF9360
:10358000DF93CDB7DEB7CA1BDB0B0FB6F894DEBFF7
:103590000FBECDBF09942A88398848885F846E841D
:1035A0007D848C849B84AA84B984C884DF80EE8067
:1035B000FD800C811B81AA81B981CE0FD11D0FB670
:1035C000F894DEBF0FBECDBFED010895F894FFCF94
:1035D00000000000000000000708092F0405062A6B
:1035E0000102032D43003D2B0706050305040302DA
:00000001FF
